:100000000C948A010C94E2240C94B7240C948C2454
:100010000C9461240C9436240C940B240C94E0234F
:100020000C94B5230C94BB010C94BB010C94BB0144
:100030000C94BB010C94BB010C94BB010C94BB0150
:100040000C94BB010C94BB010C94BB010C94BB0140
:100050000C94BB010C94BB010C94BB010C946B235E
:100060000C94BB010C9435230C940B230C94BB0112
:100070000C94BB010C94BB010C94BB010C94BB0110
:100080000C94BB010C94BB010C94BB010C94BB0100
:100090000C94BB010C94BB010C94BB010C940D257A
:1000A0000C94BB010C94BB010C94BB010C94BB01E0
:1000B0000C94BB010C94BB010C94BB010C94BB01D0
:1000C0000C94BB010C94BB010C94BB010C94BB01C0
:1000D0000C94BB010C94BB010C94BB010C94BB01B0
:1000E0000C94BB010C9422040C94BD010C94C2012D
:1000F0000C946C020C9414040C94FC030C94DC21FE
:100100000C94EF070C94CA020C94D0030C940604D0
:100110000C94D2040C940A040C94EF030C940E0477
:100120000C944E260C94A8020C9400040C94F60730
:100130000C94D5030C9499020C9426040C94D304CB
:100140000C94D1040C94F7190C9423080C948E226F
:100150000C94DC070C94CC070C94F3030C94EB0385
:100160000C94F6030C94BC020C944F030C94CD0732
:100170000C9402030C9418040C941C040C94E703D4
:100180000C9452080C94C1010000210024002700A7
:100190002A002D0030003300010100000401070196
:1001A0000A0100002200250028002B002E0031004B
:1001B000340002010000050108010B0105050505D9
:1001C000070508080808020202020A0A08080404CF
:1001D00004040101010101010101030303030303FD
:1001E0000303040707070C0C0C0C0C0C0C0C02028C
:1001F000020206060606060606060B0B0B0B0B0B89
:100200000B0B010210202008081020401020408015
:1002100002010201080402010102040810204080CA
:100220008040201008040201800402018040201058
:1002300008040201080402010102040810204080A1
:10024000010204081020408000000A0B02090C0D76
:100250000E08070304010000000000000000000079
:10026000000000000000000000000000000000008E
:10027000000000001211100000000000000000004B
:1002800000000000000000000000000000004661C7
:10029000696C656420746F20626F6F74207365638E
:1002A0006F6E6420564C35334C3058004661696C93
:1002B000656420746F20626F6F7420666972737456
:1002C00020564C35334C3058005374617274696E4B
:1002D000672E2E2E00426F746820696E207265733F
:1002E0006574206D6F64652E2E2E2870696E7320E4
:1002F000617265206C6F77290053687574646F773D
:100300006E2070696E7320696E697465642E2E2E7E
:1003100000004E2611241FBECFEFD1E2DEBFCDBFBD
:1003200000E00CBF14E0A0E0B2E0E0E1F1E600E0A4
:100330000BBF02C007900D92A433B107D9F72AE092
:10034000A4E3B4E001C01D92A734B207E1F711E0C5
:10035000CAE8D1E000E006C021970109802FFE0124
:100360000E94292FC938D10780E00807A9F70E9409
:1003700036290C9486300C94000081E0809334047C
:10038000089508950895CF93DF9300D01F92CDB7BD
:10039000DEB719821A821B821C8289819A81AB8105
:1003A000BC818A3F9105A105B10568F400008981EF
:1003B0009A81AB81BC810196A11DB11D89839A836D
:1003C000AB83BC83EACF80E00F900F900F900F902B
:1003D000DF91CF9108954F925F926F927F928F92AB
:1003E0009F92AF92BF92CF92DF92EF92FF920F93C4
:1003F0001F93CF93F9010FEF1FEF98010083118333
:10040000228333834A015B01B3E0B694A7949794A7
:100410008794BA95D1F76A017B0127E0C222DD24D7
:10042000EE24FF2495018401C0E00630110521056A
:10043000310508F041C0C1113FC0DC01A00FB11F60
:100440006C91412C512C320180169106A206B30604
:1004500049F470E00C2C02C0759567950A94E2F798
:1004600026013701462F50E060FF17C0B901A801EF
:10047000A3E0440F551F661F771FAA95D1F7440EBE
:10048000551E661E771E4082518262827382C1E0D1
:100490000F5F1F4F2F4F3F4FC8CFBA01759567951C
:1004A0004FEF441A540A640A740A48E0441651048F
:1004B00061047104B9F6ECCFCF911F910F91FF90B9
:1004C000EF90DF90CF90BF90AF909F908F907F90F4
:1004D0006F905F904F900895AF92BF92CF92DF924E
:1004E000EF92FF920F931F93CF93DF936C017B01E9
:1004F0008B01040F151FEB015E01AE18BF08C0177A
:10050000D10759F06991D601ED91FC910190F081EC
:10051000E02DC6011995892B79F7C501DF91CF919F
:100520001F910F91FF90EF90DF90CF90BF90AF9011
:100530000895FC01538D448D252F30E0842F90E0E9
:10054000821B930B541710F0CF96089501970895CE
:10055000FC01918D828D981761F0A28DAE0FBF2F97
:10056000B11D5D968C91928D9F5F9F73928F90E0ED
:1005700008958FEF9FEF0895FC01918D828D98175C
:1005800031F0828DE80FF11D858D90E008958FEF99
:100590009FEF0895FC01918D228D892F90E0805C62
:1005A0009F4F821B91098F739927089588EF94E0DC
:1005B0000E94CA0221E0892B09F420E0822F0895CD
:1005C000FC01A48DA80FB92FB11DA35ABF4F2C91C8
:1005D000848D90E001968F739927848FA689B789BF
:1005E0002C93A089B1898C91837080648C93938DB6
:1005F000848D981306C00288F389E02D80818F7D59
:1006000080830895EF92FF920F931F93CF93DF9310
:10061000EC0181E0888F9B8D8C8D98131AC0E8893E
:10062000F989808185FF15C09FB7F894EE89FF890D
:100630006083E889F98980818370806480839FBFAB
:1006400081E090E0DF91CF911F910F91FF90EF90AB
:100650000895F62E0B8D10E00F5F1F4F0F731127BB
:10066000E02E8C8D8E110CC00FB607FCFACFE889F6
:10067000F989808185FFF5CFCE010E94E002F1CF9C
:10068000EB8DEC0FFD2FF11DE35AFF4FF0829FB76A
:10069000F8940B8FEA89FB8980818062CFCFCF935A
:1006A000DF93EC01888D8823B9F0AA89BB89E8899A
:1006B000F9898C9185FD03C0808186FD0DC00FB640
:1006C00007FCF7CF8C9185FFF2CF808185FFEDCFBE
:1006D000CE010E94E002E9CFDF91CF91089580E042
:1006E00090E0892B29F00E94D60281110E9400001F
:1006F00080E090E0892B49F080E090E0892B29F0A0
:100700000E94000081110E94000080E090E0892B8F
:1007100049F080E090E0892B29F00E9400008111CF
:100720000E94000080E090E0892B49F080E090E09A
:10073000892B29F00E94000081110C94000008957B
:10074000282F30E0F901E85BFD4F9491F901EE5F4D
:10075000FD4F449124543E4FF9012491222309F482
:1007600035C0992311F191509231F8F4E92FF0E05E
:100770008827E254FC4F8F4F0C94292FEF03F3038B
:10078000D003E703EB03D503F603FC0300040604E0
:100790000A040E0414041804D5031C0422042604BD
:1007A000809180008F7780938000E22FF0E0EE0F41
:1007B000FF1FEE55FE4FA591B4918FB7F894EC91C1
:1007C000611148C040954E234C938FBF089580918E
:1007D00080008F7DE8CF80918000877FE4CF84B553
:1007E0008F7784BDE2CF84B58F7DFBCF8091B00041
:1007F0008F778093B000D9CF8091B0008F7DF9CFF3
:10080000809190008F7780939000CFCF809190005F
:100810008F7DF9CF80919000877FF5CF8091A000E8
:100820008F778093A000C1CF8091A0008F7DF9CFFA
:100830008091A000877FF5CF809120018F778093F2
:100840002001B3CF809120018F7DF9CF80912001CD
:10085000877FF5CF4E2BB8CFCF93DF9390E0FC018D
:10086000EE5FFD4F249184549E4FFC0184918823B8
:10087000D1F090E0880F991FFC01E857FE4FA59139
:10088000B491FC01EE55FE4FC591D491623071F4E4
:100890009FB7F8943C91822F809583238C93E881B5
:1008A0002E2B28839FBFDF91CF9108958FB7F894A7
:1008B000EC912E2B2C938FBFF6CF863308F0865306
:1008C00020917B00982F9870277F922B90937B002C
:1008D0008770806480937C0080917A00806480932C
:1008E0007A0080917A0086FDFCCF8091780090910B
:1008F000790008953FB7F89480917A0490917B0431
:10090000A0917C04B0917D0426B5A89B05C02F3F23
:1009100019F00196A11DB11D3FBFBA2FA92F982F25
:100920008827BC01CD01620F711D811D911D42E020
:10093000660F771F881F991F4A95D1F708958F92E8
:100940009F92AF92BF92CF92DF92EF92FF924B01B4
:100950005C010E947A046B017C010E947A046C198C
:100960007D098E099F09683E734081059105A8F3B2
:1009700021E0821A9108A108B10888EEC80E83E030
:10098000D81EE11CF11C81149104A104B10429F7C3
:10099000FF90EF90DF90CF90BF90AF909F908F909F
:1009A000089508950895089520915604260F332739
:1009B000331F21323105ECF42091CE04FC0190E08C
:1009C00080E0243069F082E00895A09156042191DE
:1009D000AC014A5C5B4FA40FB52FB11D2C9301965F
:1009E000861798F380915604680F6093560480E050
:1009F000089581E008951092CE0481E08093CD04A3
:100A00001092A80461E084E10E94A00361E085E106
:100A10000E94A003E9EBF0E080818E7F80838081DB
:100A20008D7F808388E48093B80085E48093BC0048
:100A3000089510928704109286041092D5041092A3
:100A4000F7040E94FB0481EC91E09093850480936D
:100A5000840482EC91E0909383048093820408954F
:100A6000CF93DF9391E0909335048823B9F0C09140
:100A7000B800D091BA008091BC008A7B8093BC0002
:100A800060E084E10E94A00360E085E10E94A00391
:100A90000E94FB04D093BA00C093B800DF91CF91BD
:100AA00008958F929F92AF92BF92CF92DF92EF9272
:100AB000FF920F931F93CF93DF93D091F704D1321E
:100AC00008F0D7C0182FC091F6040E947A046B0179
:100AD0007C018091CE0481116BC082E08093CE04B2
:100AE0001093CD048FEF8093CC041092CB04D0935D
:100AF000CA04A6EDB4E0EAEAF4E080E0D81391C0BD
:100B00001092A9048091A904CC0FC82BC093A9040A
:100B10008091A804813009F088C01092A8040E9436
:100B20007A046B017C018091A9048093BB008091C1
:100B3000D0049091D104A091D204B091D304892B18
:100B40008A2B8B2BA1F00E947A040091D004109183
:100B5000D1042091D2043091D3046C197D098E09FF
:100B60009F09061717072807390708F442C0809124
:100B7000BC0083FDD8CF85EC8093BC000E947A0432
:100B80006B017C018091CE04823009F450C08091C9
:100B9000CC048F3F09F46FC08091CC04803209F4FB
:100BA0006CC08091CC04803309F469C084E026C015
:100BB0008091D0049091D104A091D204B091D3043B
:100BC000892B8A2B8B2B09F484CF0E947A04809086
:100BD000D0049090D104A090D204B090D3046C19AA
:100BE0007D098E099F0986169706A806B90608F0A2
:100BF00070CF8091CF040E94300585E01092D5041B
:100C00001092F7041092D404DF91CF911F910F91AD
:100C1000FF90EF90DF90CF90BF90AF909F908F901C
:100C200008959D9191938F5F69CF85EEA5CF8091B7
:100C3000D0049091D104A091D204B091D304892B17
:100C40008A2B8B2B09F49ECF0E947A040091D0044A
:100C50001091D1042091D2043091D3046C197D09F4
:100C60008E099F09061717072807390708F08ACF4A
:100C7000C0CF81E0C3CF80E0C1CF82E0BFCF83E0AF
:100C8000BDCF8F929F92AF92BF92CF92DF92EF92A1
:100C9000FF920F931F93CF93DF936A014801E701FF
:100CA00091E09093D4048093F6041092D5041092AE
:100CB000F704E881F9810190F081E02DC7011995D1
:100CC0008C0C9D1CC814D90459F0E881F98101905D
:100CD000F081E02DD6016D916D01CE011995F2CF15
:100CE00081E00E94510590E080E0DF91CF911F915B
:100CF0000F91FF90EF90DF90CF90BF90AF909F90BB
:100D00008F900895EF92FF920F931F93CF93DF93ED
:100D10001F921F92CDB7DEB7FC01EF5BFE4F7081D3
:100D20003496E080F1804A83598302E010E020E0AD
:100D300030E0AE014F5F5F4F872F0E944106892B45
:100D400051F08CEE0F900F90DF91CF911F910F918A
:100D5000FF90EF90089580E0F5CFEF92FF920F9310
:100D60001F93CF93DF931F92CDB7DEB7FC01EF5BEC
:100D7000FE4F70813496E080F180498301E010E0FD
:100D800020E030E0AE014F5F5F4F872F0E944106A9
:100D9000892B49F08CEE0F90DF91CF911F910F912D
:100DA000FF90EF90089580E0F6CFEF92FF920F93BF
:100DB0001F93AB01FC01EB5BFE4FE080F1808F5B8A
:100DC0009E4F06E010E020E030E060EBFC01808107
:100DD0000E944106892B31F08CEE1F910F91FF90FC
:100DE000EF90089580E0F9CF8F929F92AF92BF92DB
:100DF000CF92DF92EF92FF920F931F93CF93DF93E7
:100E0000D82FC62F142F613208F09CC00E947A049C
:100E10006B017C018091CE0481116FC081E08093D1
:100E2000CE041093CD049FEF9093CC041092CB048A
:100E30009C0F9093CA048093A9048091A904DD0FAC
:100E4000D82BD093A9048091A804813009F07CC0EC
:100E50001092A8040E947A046B017C018091A9047D
:100E60008093BB008091D0049091D104A091D204D2
:100E7000B091D304892B8A2B8B2BA1F00E947A048A
:100E80000091D0041091D1042091D2043091D30468
:100E90006C197D098E099F0906171707280739075E
:100EA00008F44CC08091BC0083FDD8CF85EC8093C2
:100EB000BC000E947A046B017C018091CE048130D9
:100EC00009F444C08091CB048C1710F4C091CB047A
:100ED000EAEAF4E0A8E8B4E080E08C1359C08C2F73
:100EE000DF91CF911F910F91FF90EF90DF90CF9006
:100EF000BF90AF909F908F9008958091D004909173
:100F0000D104A091D204B091D304892B8A2B8B2BCE
:100F100009F480CF0E947A048090D0049090D1048C
:100F2000A090D204B090D3046C197D098E099F095A
:100F300086169706A806B90608F06CCF8091CF04F4
:100F40000E943005C0E0CBCF85EEB1CF8091D004B8
:100F50009091D104A091D204B091D304892B8A2B13
:100F60008B2B09F4AACF0E947A040091D00410912F
:100F7000D1042091D2043091D3046C197D098E09DB
:100F80009F09061717072807390708F096CFD6CF0D
:100F900091919D938F5FA1CF0895E09187048091F7
:100FA0008604E81730F4F0E0E857FB4F808190E0CA
:100FB00008958FEF9FEF08959091870480918604A4
:100FC0002FEF3FEF981748F4E92FF0E0E857FB4F79
:100FD000208130E09F5F90938704C901089580913C
:100FE000860490918704891B990B0895CF92DF9214
:100FF000EF92FF920F931F93CF93DF937C01CB016E
:101000008A012091D404222389F0EB016B01C40EE4
:10101000D51ECC15DD0569F06991D701ED91FC91E4
:101020000190F081E02DC7011995F3CF642F0E9444
:10103000D404C801DF91CF911F910F91FF90EF90E1
:10104000DF90CF900895CF93DF931F92CDB7DEB797
:1010500069832091D4042223F9F02091F7042032EF
:1010600058F021E030E0FC013383228390E080E0FF
:101070000F90DF91CF9108958091D504E82FF0E093
:10108000EA52FB4F998190838F5F8093D5048093C0
:10109000F70481E090E0ECCF61E0CE0101960E9480
:1010A000D404F7CF90E080E008951F93CF93DF93AF
:1010B000EA01122FDC0111968D919C91DC01ED91DA
:1010C000FC910280F381E02D1995C817D90729F406
:1010D000812F0E94510591E0811190E0892FDF91CD
:1010E000CF911F910895CF93DF93EC018B818823DB
:1010F000A1F0888191E09093D4048093F60410923B
:10110000D5041092F70481E00E94510591E081110D
:1011100090E0892FDF91CF9108950E94190581E019
:101120008B83CE010E947308982F8111E2CFF1CFFB
:10113000FC0101900020E9F73197AF01481B590BE2
:10114000BC0188EF94E00C946C020F931F93CF9333
:10115000DF938C01D0E0C0E0F801EC0FFD1F64913B
:10116000662341F088EF94E00E940203892B11F07E
:101170002196F2CF8BE493E00E9498088C0F9D1F7C
:10118000DF91CF911F910F910895CF93DF931F921D
:101190001F92CDB7DEB7606869834A83FC01808106
:1011A0009181FC01248135812230310590F020812C
:1011B00031E03093D4042093F6041092D5041092B9
:1011C000F70421E042E050E0BE016F5F7F4F0E94D4
:1011D00055080F900F90DF91CF910895CF93DF9333
:1011E0001F921F92CDB7DEB789836A838091490928
:1011F00090914A09FC012481358122303105B8F0F3
:10120000208131E03093D4042093F6041092D50469
:101210001092F70421E042E050E0BE016F5F7F4F83
:101220000E9455080F900F90DF91CF91089580E0B4
:10123000F9CF8F929F92AF92BF92DF92EF92FF927F
:101240000F931F93CF93DF93D82EEA01480181E0DB
:101250008093D404D092F6041092D5041092F7042F
:10126000D701ED91FC910190F081E02DC701199516
:1012700081E00E94510541E0602F8D2D0E94F4060F
:1012800010928704809386048C0E9D1EC815D90584
:1012900051F0D701ED91FC910284F385E02DC70157
:1012A00019958993F3CF90E080E0DF91CF911F9162
:1012B0000F91FF90EF90DF90BF90AF909F908F9035
:1012C00008952F923F924F925F926F927F928F92EA
:1012D0009F92AF92BF92CF92DF92EF92FF920F93C5
:1012E0001F93CF93DF93CDB7DEB72F970FB6F89448
:1012F000DEBF0FBECDBF9C878B876D875F874E8714
:101300003901170128012F82388649865A8610E054
:1013100000E0EE24E394F12C0A151B0509F461C0EA
:101320009E01295F3F4FB201A1018E859F850E94DA
:10133000EB014F81588569857A854F3F2FEF520722
:101340006207720709F49CC0DB01CA018C549F4FED
:10135000AF4FBF4FE6E0B695A79597958795EA956D
:10136000D1F7880F991F880F991F875F9C4F21E045
:10137000FC0180819181A281B381892B8A2B8B2BE7
:1013800009F420E0FD85F2137BC01A012B0133E044
:1013900056944794379427943A95D1F7DB01CA01C4
:1013A00087709927AA27BB2726E02216310441041B
:1013B000510468F4F301E20DF31D970102C0220FFE
:1013C000331F8A95E2F7C9019081892B80831A0126
:1013D0002B013FEF231A330A430A530A0F5F1F4FB3
:1013E0009BCFB12CF4012082318242825382B11012
:1013F0002DC0B3018B859C850E94D506B82E811126
:1014000025C0EB85FC85EB5BFE4FE080F180EB8532
:10141000FC85EF5BFE4F06E010E020E030E0AE011F
:101420004F5F5F4F60EB80810E941909892B11F09B
:101430009CEEB92EF301DE011196C301069631919F
:101440002D91321320C0E817F907C9F78B2D2F967D
:101450000FB6F894DEBF0FBECDBFDF91CF911F91C5
:101460000F91FF90EF90DF90CF90BF90AF909F9043
:101470008F907F906F905F904F903F902F90089546
:101480002EECB22EAFCF8EECB82EE0CFCF92DF9203
:10149000EF92FF920F931F93CF93DF9300D01F9291
:1014A000CDB7DEB76A01FC01EB5BFE4FE080F18057
:1014B0008F5B9E4F04E010E020E030E0AE014F5F14
:1014C0005F4FFC0180810E94190949815A8154278C
:1014D0004527542770E060E0762F652F542F44276E
:1014E0002B81422B762F652F542F44272C81422BA2
:1014F000F6014083518362837383892B71F480E00A
:101500000F900F900F900F90DF91CF911F910F913F
:10151000FF90EF90DF90CF9008958CEEF1CFCF92B7
:10152000DF92EF92FF920F931F93CF93DF931F925F
:101530001F92CDB7DEB76A01FC01EB5BFE4FE08086
:10154000F1808F5B9E4F02E010E020E030E0AE01C2
:101550004F5F5F4FFC0180810E94190929813A8108
:10156000322723273227F60131832083892B61F428
:1015700080E00F900F90DF91CF911F910F91FF901E
:10158000EF90DF90CF9008958CEEF3CFEF92FF9223
:101590000F931F93CF93DF931F921F92CDB7DEB7A8
:1015A0008C017A016330710509F449C090F461300F
:1015B000710509F162307105E1F1F80181A992A983
:1015C000A3A9B4A9F70180839183A283B38380E0A8
:1015D00049C06630710588F7AE014F5F5F4F64E622
:1015E0000E948F0A81113EC0298180E0922F990FBD
:1015F000B0E0A0E0E7CFAE014F5F5F4F64E40E9430
:101600008F0A81112FC0998120E0392F330FA90152
:1016100070E060E0232BD1F0F701408351836283B7
:101620007383F80145AB56AB67AB70AF91E096A3FF
:1016300019C0FC0181AD92ADA3ADB4ADC3CFFC0127
:10164000FD9680819181A281B381BCCFF80145A92B
:1016500056A967A970ADF7014083518362837383F4
:10166000F80116A20F900F90DF91CF911F910F916B
:10167000FF90EF9008958F929F92AF92BF92CF927A
:10168000DF92EF92FF920F931F93CF93DF931F92FE
:101690001F92CDB7DEB7962ED42E822EFC01EF5BC3
:1016A000FE4FC0805C012BEBA21A2EEFB20AF501AF
:1016B000E080F18001E010E020E030E0AE014E5F1C
:1016C0005F4F8C2D0E941909892BA9F42A812D21A5
:1016D00028292A83F501E080F180298301E010E0C8
:1016E00020E030E0AE014F5F5F4F692D8C2D0E94EE
:1016F0004106892B81F08CEE0F900F90DF91CF91F6
:101700001F910F91FF90EF90DF90CF90BF90AF901F
:101710009F908F90089580E0EFCFEF92FF920F930C
:101720001F93FC01EB5BFE4FE080F1808F5B9E4FCF
:1017300001E010E020E030E0FC0180810E94190906
:10174000892B31F08CEE1F910F91FF90EF9008954F
:1017500080E0F9CFEF92FF920F931F93CF93DF9327
:101760001F92CDB7DEB77C0100E041E06BE0C7011E
:101770000E94AD06182F40E06BE0C7010E94AD0645
:10178000182BAE014F5F5F4F63E1C7010E948D0BC5
:10179000812B0F5F9981977061F0033061F088238E
:1017A00021F30F90DF91CF911F910F91FF90EF9058
:1017B00008950330B1F784EFF4CF0F931F93CF93C5
:1017C000DF931F92CDB7DEB78A01AE014F5F5F4F47
:1017D000613081F060E50E948D0B811105C0998117
:1017E0009F5F990FF80190830F90DF91CF911F9128
:1017F0000F91089560E7EFCFCF92DF92EF92FF92C3
:101800001F93CF93DF931F92CDB7DEB77C0140E0EB
:1018100063E80E94AD06182F811117C0D12CC12C8E
:10182000AE014F5F5F4F63E8C7010E948D0B182F19
:10183000898181110AC0111108C08FEFC81AD80A16
:1018400088ECC816D10461F719EF41E063E8C701DD
:101850000E94AD06812B0F90DF91CF911F91FF90D9
:10186000EF90DF90CF900895CF92DF92EF92FF92AA
:101870000F931F93CF93DF931F92CDB7DEB77C01F9
:1018800010E000E06C018EECC80ED11CF6018081E6
:10189000AE014F5F5F4F8430A9F463E1C7010E943E
:1018A0008D0B9981292F2770987111F58823D9F014
:1018B0000F90DF91CF911F910F91FF90EF90DF90EC
:1018C000CF90089564E1C7010E948D0B8111F0CF84
:1018D000998190FDEDCF0F5F1F4F083C110531F04E
:1018E0000E94C301D3CF2430B1F7E2CF89EFE0CF1C
:1018F0008AEFDECFCF93DF93EC01462F416060E0AB
:101900000E94AD06811111C0CE010E94340C8111DC
:101910000CC0CE010E94AA0B811107C040E060E01C
:10192000CE01DF91CF910C94AD06DF91CF91089558
:101930000F931F93CF93DF931F92CDB7DEB78B0129
:101940001982AE014F5F5F4F61E00E948D0B8111E4
:1019500016C0998194FB332730F9F801308393FB4B
:10196000332730F9328392FB332730F9318396FBEA
:10197000222720F92383991F9927991F94830F9079
:10198000DF91CF911F910F9108952F923F924F9227
:101990005F926F927F928F929F92AF92BF92CF92FF
:1019A000DF92EF92FF921F93CF93DF9300D000D08E
:1019B00000D01F921F92CDB7DEB76C011A011B86B3
:1019C0001F821E82623009F06EC0AE01465F5F4F1B
:1019D00060E00E94DD0B182F811108C0AE01455F49
:1019E0005F4F66E4C6010E948D0B182FAA85B0E0F8
:1019F00020E03FE24AE350E00E94402F2B013C01EF
:101A000024EF420E21E0521E611C711CCB84D12CAC
:101A1000F12CE12C8FEFC81AD80AE80AF80A98EEE0
:101A2000892E93E0992EA12CB12CC301B201A501FE
:101A300094010E94072FCA01B901A70196010E94D3
:101A4000CF2E6B017C01C301B20120ED37E040E0F5
:101A500050E00E94072FC701B601620F731F841F59
:101A6000951FA50194010E94072FF1012083318366
:101A700042835383812F2B960FB6F894DEBF0FBE9F
:101A8000CDBFDF91CF911F91FF90EF90DF90CF906E
:101A9000BF90AF909F908F907F906F905F904F908E
:101AA0003F902F900895633009F043C0AE01465F28
:101AB0005F4F60E00E94DD0B182F20E030E0A901AD
:101AC0008111D3CFAE01465F5F4F60E0C6010E9437
:101AD000DD0B182F811108C0AE014A5F5F4F61E531
:101AE000C6010E948F0A182FEE81FF81AA85B0E0FF
:101AF00020E03FE24AE350E00E94402F2B013C01EE
:101B000024EF420E21E0521E611C711C6F01DD2486
:101B1000F12CE12C04C0CC0CDD1CEE1CFF1CFA9552
:101B2000D2F78FEFC81AD80AE80AF80AEE24FF2481
:101B300076CFBE016F5F7F4F0E94980C8C81882307
:101B400051F1AE01465F5F4F60E0C6010E94DD0BC0
:101B5000182FF12CE12C81111BC0AE014A5F5F4FA1
:101B600061E5C6010E948F0A182F2E813F81C901AD
:101B70009927B0E0A0E004C0880F991FAA1FBB1FDF
:101B80003A95D2F70196A11DB11D7C01112329F0D0
:101B9000D12CC12C25C0F12CE12CAE01465F5F4F4A
:101BA00061E0C6010E94DD0B182F8111F1CFAE015B
:101BB000485F5F4F61E7C6010E948F0A182F288592
:101BC0003985C9019927B0E0A0E004C0880F991FAA
:101BD000AA1FBB1F3A95D2F70196A11DB11D6C013A
:101BE000AA85B0E020E03FE24AE350E00E94402FA7
:101BF0002B013C01E4EF4E0EE1E05E1E611C711C06
:101C000088EE882E83E0982EA12CB12CC301B2015E
:101C1000A50194010E94072FD601AE19BF090E94A9
:101C2000402F0FCF4F925F926F927F92BF92CF92D1
:101C3000DF92EF92FF920F931F93CF93DF9300D029
:101C40001F92CDB7DEB78A01AE014F5F5F4F0E9492
:101C5000C50CB82E81112AC069817A818B819C8143
:101C600028EE422E23E0522E612C712CA30192010A
:101C70000E94072F69017A019B01AC01AFEFBFEF12
:101C80000E94402F6C507E4F8F4F9F4FA3019201B7
:101C90000E94072F7601DD24CC24C20ED31EE41E41
:101CA000F51EF801C082D182E282F3828B2D0F9063
:101CB0000F900F900F90DF91CF911F910F91FF9098
:101CC000EF90DF90CF90BF907F906F905F904F909C
:101CD00008955F926F927F928F929F92AF92BF9280
:101CE000CF92DF92EF92FF920F931F93CF93DF93E8
:101CF000CDB7DEB761970FB6F894DEBF0FBECDBF8C
:101D00007C018B01FC018089FB018083AE014A5F6D
:101D10005F4F68EFC7010E948F0A582E81113AC1A8
:101D2000AE014F5F5F4F64E0C7010E94460A582E24
:101D3000811130C12E813F812115310569F050E0BC
:101D400040E069817A818B819C810E94072FF80194
:101D50002683378340875187F80186819781A08544
:101D6000B185F701868B978BA08FB18FF801128612
:101D7000AE014F5F5F4F60E2C7010E948F0A582E8D
:101D8000811108C189819A81009709F01AC1F70170
:101D9000858D968DA78DB0A1F80185879687A78739
:101DA000B08BF701128EAE014F5F5F4F68E2C70143
:101DB0000E948F0A582E8111EDC089819A819F70EF
:101DC0008115F8E09F0708F090514AEF489F900175
:101DD000499F300D1124C901330FAA0BBB0BF80129
:101DE000818B928BA38BB48B5801F1E2AF0EB11CA7
:101DF000470125E2820E911C380185E1680E711CB5
:101E0000D12CC12CA501B601C7010E94C60A582ECB
:101E10008111C0C0F40181914F01F30181933F0111
:101E2000FFEFCF1ADF0A24E0A20EB11C86E0C8162D
:101E3000D10441F7AE014F5F5F4F61E0C7010E94DF
:101E40008D0B582E8111A6C08981F701E35EFE4FEC
:101E5000808387FFCAC081E0F80181AFF80181ADBE
:101E6000F701E75BFF4F808380ED97E0A0E0B0E0F3
:101E70008A879B87AC87BD871E821F82188619863A
:101E800086E39BE0A0E0B0E0F80182839383A48323
:101E9000B583BE016F5F7F4FC7010E94980C582E1B
:101EA000811178C08981811107C08A81811104C0A4
:101EB0008B81882309F43EC0AE01465F5F4F62E02C
:101EC000C7010E94C50C8111C1C089818823A9F076
:101ED0008A859B85AC85BD85825B9D4FAF4FBF4F8B
:101EE000F8014281538164817581840F951FA61F7B
:101EF000B71F82839383A483B5838B81882309F4DE
:101F000077C08A859B85AC85BD858E549D4FAF4F2C
:101F1000BF4F880F991FAA1FBB1FF8014281538131
:101F200064817581840F951FA61FB71F82839383D9
:101F3000A483B5838C81811168C08D81882301F1D0
:101F4000AE01425F5F4F64E0C7010E94C50C8E8402
:101F50009F84A888B988F6E28F0EF2E09F1EA11C2C
:101F6000B11CF8014281538164817581480D591D6E
:101F70006A1D7B1D4283538364837583811166C010
:101F8000F80182819381A481B581F701828B938BC3
:101F9000A48BB58B852D61960FB6F894DEBF0FBE6E
:101FA000CDBFDF91CF911F910F91FF90EF90DF9008
:101FB000CF90BF90AF909F908F907F906F905F90E9
:101FC000089533E0880F991F3A95E1F7B0E0A0E05B
:101FD000F80185879687A787B08BF701858F968F45
:101FE000A78FB0A381E0828FDECEF80111AE36CF8D
:101FF0008A81882309F49ECF8A859B85AC85BD851F
:102000008C569D4FAF4FBF4F88CFAE014A5F5F4F99
:1020100063E0C7010E94C50C8E809F80A884B984AC
:10202000F4E98F0EF2E09F1EA11CB11CF801428161
:10203000538164817581480D591D6A1D7B1D428342
:10204000538364837583882309F477CF582EA2CFF6
:102050005F926F927F928F929F92AF92BF92CF9238
:10206000DF92EF92FF920F931F93CF93DF93DC01E8
:102070001496ED91FC911597EF2B09F454C069016A
:102080003A01EC01888191E09093D4048093F604A6
:102090001092D5041092F70420E041E050E0CD0109
:1020A0000E945508582E8823F1F1F12CE12CEC14F4
:1020B000FD04D0F58C819D8186010E191F098017C2
:1020C000910708F48C0141E0C601801B910BE816D2
:1020D000F90608F440E0602F013208F060E28881E0
:1020E0000E94F406109287048093860480171106DC
:1020F000D1F443018E0C9F1C5401C5018819990924
:102100008017910768F489819A81DC01ED91FC9137
:102110000284F385E02D1995F50181935F01EDCFE0
:10212000E00EF11EC4CF512C852DDF91CF911F9170
:102130000F91FF90EF90DF90CF90BF90AF909F9066
:102140008F907F906F905F900895CF93DF931F9251
:10215000CDB7DEB7198221E030E0AE014F5F5F4FAF
:10216000BA018091490990914A090E9428108981F9
:102170000F90DF91CF9108958F929F92AF92BF926F
:10218000CF92DF92EF92FF920F931F93CF93DF9343
:10219000CDB7DEB7A1970FB6F894DEBF0FBECDBFA7
:1021A0006C01990FEE08FF08F7FE41C06DE288EF61
:1021B00094E00E9402038C0122273327A9012C19E5
:1021C0003D094E095F0919A2CE0181967C019AE072
:1021D000892E912CA12CB12CCA01B901A501940121
:1021E0000E94072F605DF70162937F012115310581
:1021F0004105510589F790E080E0309719F0CF0153
:102200000E949808800F911FA1960FB6F894DEBF28
:102210000FBECDBFDF91CF911F910F91FF90EF9037
:10222000DF90CF90BF90AF909F908F900895A701BF
:10223000960119A28E010F5D1F4F8AE0C82ED12C86
:10224000E12CF12CCA01B901A70196010E94072FC8
:10225000605DF80162938F0121153105410551053B
:1022600089F790E080E0309779F2CF010E949808DA
:10227000CBCF9F92AF92BF92CF92DF92EF92FF921D
:102280000F931F93CF93DF931F92CDB7DEB77C01DF
:102290005B016A01922E198241E06FEF0E94AD0648
:1022A000182F40E060E0C7010E94AD06182B40E007
:1022B0006FEFC7010E94AD06182B992031F0A501E0
:1022C0006BECC7010E948D0B182B002341F0AE016F
:1022D0004F5F5F4F6EEEC7010E948D0B182B41E0E0
:1022E0006FEFC7010E94AD06182B41E060E0C70107
:1022F0000E94AD06182B40E06FEFC7010E94AD06AB
:1023000099819F7EF6019083812B0F90DF91CF9171
:102310001F910F91FF90EF90DF90CF90BF90AF9003
:102320009F900895FC012FB7F89480917E049091BE
:102330007F04A0918004B09181042FBF8283938396
:10234000A483B58380818130B9F020F0833031F1EE
:10235000862F089581810E945D04BC016B50710934
:102360008CE198E00E94F32E633010F463E0F0CF2C
:10237000603270F36FE1ECCF81810E945D04BC019B
:102380006451710980EC92E10E94F32E693010F4DF
:1023900069E0DECF6235E0F261E5DACF81810E944B
:1023A0005D04BC01990F880B990B0E94D62D29E280
:1023B0003CE547E851E40E94C62C9B01AC0160E07B
:1023C00078ED83E196E40E94332D0E94A52D6331C0
:1023D00010F463E1BDCF683908F4BACF67E9B8CF2C
:1023E0002F923F924F925F926F927F928F929F9225
:1023F000AF92BF92CF92DF92EF92FF920F931F9313
:10240000CF93DF93CDB7DEB769970FB6F894DEBFF1
:102410000FBECDBF00ED17E020E030E00B871C873A
:102420002D873E871F86188A198A1A8A40322EE421
:10243000520761057105E0F45CEFB52E8B2D6996AE
:102440000FB6F894DEBF0FBECDBFDF91CF911F91C5
:102450000F91FF90EF90DF90CF90BF90AF909F9043
:102460008F907F906F905F904F903F902F90089546
:102470004E8B5F8B688F798F8C01BE016A5F7F4FB7
:102480000E94980CB82E8111D9CFCE88DF88E88CB5
:10249000F98C88EEC81A88E0D80AE108F1088E8124
:1024A000811106C08F81811103C088858823C1F105
:1024B000AE01455F5F4F62E0C8010E94C50C81110B
:1024C0000AC18E81882391F08B859C85AD85BE8560
:1024D000825B9D4FAF4FBF4F8C159D05AE05BF056D
:1024E00008F0AACFC81AD90AEA0AFB0A8885882305
:1024F00009F471C08B859C85AD85BE858E549D4F3A
:10250000AF4FBF4F880F991FAA1FBB1F8C159D058A
:10251000AE05BF0508F090CFC81AD90AEA0AFB0A2F
:1025200089858823D9F0AE01415F5F4F63E0C80120
:102530000E94C50C4F85588969897A894C565D4F30
:102540006F4F7F4F4C155D056E057F0508F074CF0A
:102550008111C1C0C41AD50AE60AF70A8A85882300
:1025600009F46CCFBE016F5F7F4FC8010E94980CC9
:102570008C818823E9F1AE014B5E5F4F60E0C801BA
:102580000E94DD0BB82E81111CC0AE014D5E5F4F65
:1025900061E5C8010E948F0AB82E8B899C891C01B5
:1025A0003324512C412C04C0220C331C441C551CD8
:1025B0009A95D2F79FEF291A390A490A590ABB207E
:1025C000C9F08E899F89A88DB98DF801828B938B74
:1025D000A48BB58B33CF8F81882309F4A1CF8B8552
:1025E0009C85AD85BE858C569D4FAF4FBF4F8ECF1E
:1025F000312C212CAE014B5E5F4F61E0C8010E947F
:10260000DD0BB82E8111DDCFA6E2CA1AA2E0DA0AEC
:10261000E108F108AD89B0E020E03FE24AE350E094
:102620000E94402F4B015C01B4EF8B0EB1E09B1E6A
:10263000A11CB11CA8EEB3E0A70196010E94402F97
:102640002B013C01C501B40120ED37E040E050E032
:102650000E94072F420E531E641E751EC501B40151
:1026600028EE33E040E050E00E94072FC301B201A2
:102670000E94072F220E331E21143104E1F0410184
:10268000B12CA12CE1E08E1A9108A108B10890E0CC
:1026900080E0B501A4014427452B462B472B31F0A0
:1026A000B694A794979487940196F3CF982F882790
:1026B0001C01280C391CA10161E7C8010E94820697
:1026C000B82E81117ECFF801E153FF4FC082D18235
:1026D000E282F38276CFB82EB1CE7F928F929F9214
:1026E000AF92BF92CF92DF92EF92FF920F931F9320
:1026F000CF93DF931F92CDB7DEB77C015B016A01F8
:10270000722E4C0183EE881A8EEF980AF401108124
:10271000198241E061E0C7010E94AD0681114AC003
:1027200060E4C7010E947A0C811144C0F1E07F127D
:102730001AC000E021E0AE014F5F5F4FB501C70155
:102740000E943911882389F00F90DF91CF911F915A
:102750000F91FF90EF90DF90CF90BF90AF909F9040
:102760008F907F900895F501108242E061E0C701EB
:102770000E94AD06811124C060E0C7010E947A0C5E
:1027800081111EC0F1E07F1218C001E020E0A60117
:10279000BE016F5F7F4FC7010E9439118111D4CFF5
:1027A000412F61E0C7010E94AD068111CDCFF40138
:1027B0001083CACFF5011082C7CFF6011082F0CF87
:1027C000F601F9CF2F923F924F925F926F927F92D4
:1027D0008F929F92AF92BF92CF92DF92EF92FF9231
:1027E0000F931F93CF93DF93CDB7DEB7C354D109B7
:1027F0000FB6F894DEBF0FBECDBF6C0124967FAF3D
:102800006EAF2497FC01E35EFE4F40804AAE40EC81
:1028100061E00E94AD06811145C0F601108A41E0D9
:1028200060E8C6010E94AD0641E06FEFC6010E945C
:10283000AD0640E060E0C6010E94AD06F601E95D2C
:10284000FE4F408161E9C6010E94AD0641E060E0B3
:10285000C6010E94AD0640E06FEFC6010E94AD06C2
:1028600040E060E8C6010E94AD0641E060E0C601BC
:102870000E94AD06811116C091E09983812C912CA4
:102880005401FFEF8F1A9F0AAF0ABF0A998190FF88
:102890002BC0811187C228EC82169104A104B104D7
:1028A000D9F489EFCD5BDF4F0FB6F894DEBF0FBED2
:1028B000CDBFDF91CF911F910F91FF90EF90DF90EF
:1028C000CF90BF90AF909F908F907F906F905F90D0
:1028D0004F903F902F900895AE014F5F5F4F60E0A3
:1028E000C6010E948D0BCDCF38EC83169104A10454
:1028F000B104B9F28111D6CFC6010E94340C811106
:10290000D1CF83E0F601E15EFE4F8083B696E08092
:10291000F1800CE010E020E030E0AE01465E5F4F59
:1029200064E1349780810E941909892B11F08CEEA3
:10293000B9CF6CA170E0762F66278DA0680D711D50
:1029400029A0312C322C2224330C4101B12CA12C92
:102950008BA190E0982F8827990F2C01712C612C66
:1029600022964CAE5DAE6EAE7FAE22978C8D90E01F
:10297000982F88272D8D7C01E20EF11CF601E75C73
:10298000FE4F208131817B971081283E43E0340740
:10299000C1F1629FC001639F900D729F900D112441
:1029A0008C509E4F68EE73E00E94DF2EF601858DFD
:1029B000968DA78DB0A1228D222319F1E89EA0014A
:1029C000E99E500DF89E500D1124452F55272416D1
:1029D000350641F460EE7AE8112309F49AC168EBF8
:1029E00072E212C09101DB010E94312F21013501F9
:1029F000441A550A61087108A30192010E94072F29
:102A0000B901112309F485C13B017694679476944A
:102A100067947DAE6CAE762E7294770C770CF0ECEA
:102A20007F227BAE8A8D1FA61EA690E02C0173E04C
:102A3000559447947A95E1F759AE48AE28AD2F707A
:102A400028AB222309F469C188AD8D70853009F463
:102A500067C131E03EAB822F8C50843008F01EAA53
:102A600041E06FEFC6010E94AD06811107C0AE01C3
:102A7000425D5F4F66EBC6010E948F0A9EA520E073
:102A8000392F330F2901712C612C49AA5AAA6BAA3C
:102A90007CAA811105C040E06FEFC6010E94AD061F
:102AA000F601EE5CFE4F49A85AA86BA87CA84082AC
:102AB000518262827382811162C1F601F5A1FDAB80
:102AC000FF2309F43CC1F601258D368D478D50A1B9
:102AD000828D882309F427C1D7010E94402F9B01D2
:102AE000AC0120583F4F4F4F5F4F232F342F452FBE
:102AF0005527280D391D4A1D5B1DA8EEB3E00E9425
:102B0000402F70588F4F9F4FBC0188279927F6019F
:102B1000E65DFE4F672B682B692B09F008C18EEA32
:102B200097E8AFE8B2E080839183A283B3833EEA63
:102B3000432E37E8532E3FE8632E32E0732EAE016A
:102B4000465D5F4F70E060E0C6010E94C60A4AA57C
:102B50005BA56CA57DA5411551056105710531F099
:102B600001E0441555056605770508F000E0811180
:102B70000DC1F601F7A1FFABFF2309F4E2C0AE01DE
:102B80004A5D5F4F62E070E0C6010E94C60A4EA136
:102B90005FA168A579A5411551056105710551F041
:102BA00011E049A85AA86BA87CA8441555056605EC
:102BB000770508F010E08111ECC0F601F0A5F9AB43
:102BC000FF2309F4C0C0412C512C3201E114F1045F
:102BD00071F0B10190E080E0982F872F762F662763
:102BE000970150E040E00E94072F29013A01AE0111
:102BF0004F5F5F4F63E070E0C6010E94C60A4981E3
:102C00005A816B817C81411551056105710531F057
:102C100091E0441655066606770608F090E0882392
:102C200009F492C080E04DA8411001C001E0F60116
:102C300036A103A7F8A9F43009F4D3C021E031117B
:102C400020E0F60124A74FA8411001C011E0F601D1
:102C500015A749A8411001C091E0F60196A799E196
:102C60009601265B3F4FF901DE01119601900D920E
:102C70009A95E1F71D821E821F8218864CAC5DACCE
:102C80005A8649861C861B868D869E86AF86B88AA4
:102C900022964CAC5DAC6EAC7FAC2297498A5A8AC6
:102CA0006B8A7C8AFE8AED8A5BAC588E898F89E1BB
:102CB000FE013196D90101900D928A95E1F7C60186
:102CC0000E94AA0B8111EECD41E06FEFC6010E9478
:102CD000AD068111E7CD24964EAD5FAD249766EB2E
:102CE000C6010E948F0A8111DDCD40E06FEFC60161
:102CF0000E94AD068111D6CD4AAD61E0C6010E94A9
:102D0000AD068111CFCDF601E35EFE4F6AAC608265
:102D1000C9CD7DAF6CAF1BAE85CE41E04EABA0CE32
:102D200051E05EAB9DCE20E030E0A901E2CE108202
:102D3000118212821382412C512C320100CF00E00B
:102D400018CF10E03ACF90E02EA9213029F188A9C0
:102D50008150833018F138A9363061F1393051F1A2
:102D600088AD8D708830E1F01130D1F0343081F1D0
:102D7000913049F1013049F1902F102F53CF1FAA04
:102D80001DAA19AA00E090E010E04CCF1FAA19AAD2
:102D9000FACF19AA90E046CF8FEF45CF85E043CF19
:102DA00083E041CF28EC82169104A104B10409F01C
:102DB00079CD77CD84E04DA8411039CFF60136A109
:102DC00021E023A73BCF82E0F6CF192F81E0F3CF9C
:102DD0004DA882E041102BCF81E0F60183A710E0DF
:102DE00082E021E02ECF2F923F924F925F926F921E
:102DF0007F928F929F92AF92BF92CF92DF92EF928B
:102E0000FF920F931F93CF93DF93CDB7DEB7AC97AD
:102E10000FB6F894DEBF0FBECDBF1C017FA36EA31B
:102E200059A748A71F82188619861A861B861C86F2
:102E30001D861E86198A1A8AFC01E85DFE4F2081D4
:102E40003181398F288FAC014F5E5E4F5B8F4A8F87
:102E5000DA011C922C01BEEE4B1ABEEF5B0AF201A6
:102E600010823C01FDEE6F1AFEEF7F0AD3011C9227
:102E7000FC01EC5EFE4F108231961082319610827A
:102E800041E06FEF0E94AD068B8B81111DC140E0C8
:102E90006FE4C1010E94AD068B8B811115C14CE21C
:102EA0006EE4C1010E94AD068B8B81110DC140E023
:102EB0006FEFC1010E94AD068B8B811105C144EB00
:102EC00066EBC1010E94AD068B8B8111FDC040E015
:102ED00060E8C1010E94AD068B8B8111F5C020E036
:102EE000AE014E5E5F4FBE016F5E7F4FC1010E941B
:102EF0006D138B8B8111E8C01F82188619861A8684
:102F0000F101E95EFE4FFD8FEC8F9E01295F3F4F7F
:102F10004901A3E0AA2EB12CC12CD12CE12CF12C1B
:102F200087012A8D3B8DAF0160E0C1010E946109DC
:102F30008B8B8111C9C04F81588569857A854C8BEF
:102F40005D8B6E8B7F8BBE01615F7F4FC1010E94E5
:102F5000E2138B8B8111B8C08F859889688D798D2C
:102F60006817790708F0D3C0AA8DBB8D1C92F201B7
:102F70001082D3011C9232961082319610823196C3
:102F800010828C899D89AE89BF898C549F4FAF4F29
:102F9000BF4FE6E0B695A79597958795EA95D1F747
:102FA000880F991F880F991F875F9C4FFC018081B4
:102FB0009181A281B381892B8A2B8B2B91F42C894F
:102FC0003D894E895F892C3231054105510548F410
:102FD0002F5F3F4F4F4F5F4F2C8B3D8B4E8B5F8B47
:102FE000D0CFAE01495F5F4F4A0173E0A72EB12CED
:102FF000C12CD12CEC88FD880E891F892A8D3B8D30
:103000004C8D5D8D61E0C1010E946109811159C142
:103010006F81788589859A856C8B7D8B8E8B9F8B54
:10302000BE01615F7F4FC1010E94E213811149C15E
:103030008F859889A88DB98D11E063E0462E512CBB
:10304000612C712CA817B90720F010E0412C512CED
:103050003201C12CD12C7601C39460C0D501C401CA
:103060000196A11DB11D8C8B9D8BAE8BBF8B86E015
:10307000EAA5FBA5ACA5B02F01900D928A95E1F7CA
:103080004E8C5F8C68A079A04AA35BA36CA37DA340
:103090006FC04E8C5F8C68A079A0AEA1BFA14D928D
:1030A0005D926D927C921397E8A5F9A51083F101CA
:1030B000EC5FFE4F81E0808332978C918083A8A5DE
:1030C000B9A58C91319680838B89AC960FB6F89414
:1030D000DEBF0FBECDBFDF91CF911F910F91FF904B
:1030E000EF90DF90CF90BF90AF909F908F907F90A8
:1030F0006F905F904F903F902F900895BEECBB8BE8
:10310000E3CFEEECEB8BE0CFFEECFB8BDDCF10E002
:10311000412C512C3201C12CD12C76018F859889FC
:10312000288D398D8217930708F0B7CF46E0EA8DD6
:10313000FB8D9E012F5F3F4FD90101900D924A9563
:10314000E1F7E88DF98D8E1B9F0BAC0170E060E01C
:103150004AA35BA36CA37DA353E0452E512C612CA5
:10316000712CB1016F5E7E4F7BA76AA72CA7032F3E
:103170009E01255F3F4F4C895D896E897F898C8DCB
:103180009D8D0E94EB018B849C84AD84BE847FEF77
:1031900087169706A706B70609F4B0CFD301C20178
:1031A0000196A11DB11D8E8F9F8FA8A3B9A3D50134
:1031B000C4018C549F4FAF4FBF4F36E0B695A795D3
:1031C000979587953A95D1F7880F991F880F991F82
:1031D000875F9C4F11E0FC0180819181A281B381C6
:1031E000892B8A2B8B2B09F410E0812F90E0B0E023
:1031F000A0E08C159D05AE05BF0509F082CFD50175
:10320000C40123E0B695A795979587952A95D1F7A0
:10321000B501A401477055276627772786309105A9
:10322000A105B10508F070CFEA8DFB8DE80FF91FFD
:1032300021E030E001C0220F4A95EAF78081822B1D
:1032400080836A8D7B8DC1010E94D506811139C0B2
:10325000BE01615F7F4FC1010E94E213811131C045
:103260008F859889288D398DAC01421B530B8217AD
:10327000930711F450E040E070E060E0A88DB98D54
:10328000A817B90708F0EACE8AA19BA1ACA1BDA1FD
:1032900084179507A607B70708F0FBCEBE016F5F3E
:1032A0007F4FC1010E94D50696E0FE013196D10103
:1032B000AF5EBE4F01900D929A95E1F7882309F415
:1032C000ECCE8B8B01CFDF92EF92FF920F931F9387
:1032D000CF93DF931F92CDB7DEB78C01FC018081C5
:1032E0009181009711F00E94E72F86E090E00E9404
:1032F0004B2F7C0189E2F701808385E995E0928379
:103300008183138280E290E095838483F801F182C7
:10331000E0820E94190581E0F7018383C7010E94C2
:103320007308F82E81110BC0F12C8F2D0F90DF91B7
:10333000CF911F910F91FF90EF90DF90089582E958
:10334000898321E030E0AE014F5F5F4FBA01F801A1
:10335000808191810E94281089818D3421F08434EC
:1033600011F0803109F781E0F8018283E5804E2D6C
:1033700061E0C8010E94C508F801E582E380D480BD
:103380008281811103C0C8010E9463194E2D6FE034
:10339000C8010E94C508F801E382D48241E060E0E0
:1033A000C8010E94C50863E070E080E090E00E94E0
:1033B0009F0443E060E0C8010E94C508F8018581D0
:1033C00020E031E0281B31094CE0429FC001439FBF
:1033D000900D112465E070E00E94F32E6F5F7F4F27
:1033E000072E000C880B990B0E949F049ECF0C9413
:1033F000E72F9F92AF92BF92CF92DF92EF92FF9210
:103400000F931F93CF93DF93CDB7DEB7A0970FB67F
:10341000F894DEBF0FBECDBF6C012FEDC20ED11CE4
:10342000F601A080F7E0F12CAF1609F4EEC0B62E3D
:103430008C0141E060E80E94AD06F82E41E06FEF9C
:10344000C8010E94AD06F82A40E060E0C8010E9471
:10345000AD06F82A46E06FEFC8010E94AD06F82AD3
:10346000AE01425E5F4F63E8C8010E948D0BF82AEF
:103470004E8D446063E8C8010E94AD06F82A47E01B
:103480006FEFC8010E94AD06F82A41E061E8C8016B
:103490000E94AD06F82A0E94C301F82A41E060E8C4
:1034A000C8010E94AD06F82A21E0B212C1C0A0FCFA
:1034B00002C24BE664E9C8010E94AD06E82EC801CD
:1034C0000E94FC0B8E29F82AAE01465E5F4F60E930
:1034D000C8010E94460AF82A8A8D9B8DAC8DBD8D4D
:1034E000992EE89497F897FBEE24E0F844E264E91B
:1034F000C8010E94AD06F82AC8010E94FC0BF82AF8
:10350000AE01465E5F4F60E9C8010E94460AF82A94
:103510008A8D9B8D2C8D3D8D3C8B2D8B9E8B8F8B27
:1035200045E264E9C8010E94AD06F82AC8010E947C
:10353000FC0BF82AAE01465E5F4F60E9C8010E94AD
:10354000460AF82A8C8D9D8D988F898F40E061E81E
:10355000C8010E94AD06F82A46E06FEFC8010E943C
:10356000AD06F82AAE01425E5F4F63E8C8010E94D3
:103570008D0BF82A4E8D4B7F63E8C8010E94AD0683
:10358000F82A41E06FEFC8010E94AD06F82A41E039
:1035900060E0C8010E94AD06F82A40E06FEFC80164
:1035A0000E94AD06F82A40E060E8C8010E94AD061E
:1035B000F82A59F5F1E0BF1699F0A1FC23C0F801F3
:1035C000E052FF4F8F8D8083319688A18083BE01AA
:1035D0006F5F7F4FC8018E519F4F0E94703012C0A5
:1035E000A0FC10C0F801EE5FFE4F90823196E082A1
:1035F000DE0154967496035E1E4F8D9181930E17D3
:103600001F07D9F7BA28F601B0828F2DA0960FB602
:10361000F894DEBF0FBECDBFDF91CF911F910F9108
:10362000FF90EF90DF90CF90BF90AF909F90089564
:10363000A1FC41C142E064E9C8010E94AD06E82E48
:10364000C8010E94FC0B8E29F82AAE01415E5F4F33
:1036500060E9C8010E948D0BF82A4BE764E9C801B4
:103660000E94AD06F82AC8010E94FC0BF82AAE01A0
:10367000405E5F4F60E9C8010E948D0BF82A47E762
:1036800064E9C8010E94AD06F82AC8010E94FC0B3B
:10369000F82AAE01465E5F4F60E9C8010E94460A03
:1036A000F82A4A8D5B8D6C8D7D8DDB01CA0129E185
:1036B000B695A795979587952A95D1F78983DB01CC
:1036C000CA0132E1B695A795979587953A95D1F7B6
:1036D0008F778A83DB01CA01EBE0B695A7959795B2
:1036E0008795EA95D1F78F778B83DB01CA01F4E0E8
:1036F000B695A79597958795FA95D1F78F778C838F
:10370000440F440F440F48774E8F48E764E9C801DF
:103710000E94AD06F82AC8010E94FC0BF82AAE01EF
:10372000465E5F4F60E9C8010E94460AF82A8A8D0A
:103730009B8DAC8DBD8DAC01BD012DE1769567955E
:10374000579547952A95D1F72E8D240F2D83AC01DF
:10375000BD0136E176956795579547953A95D1F72E
:103760004F774E83AC01BD01EFE076956795579595
:103770004795EA95D1F74F774F83292F2F772887E1
:10378000AC01BD0176956795579547954F77498769
:10379000982F9295990F990F90749E8F49E764E93D
:1037A000C8010E94AD06F82AC8010E94FC0BF82A45
:1037B000AE01465E5F4F60E9C8010E94460AF82AE2
:1037C0008A8D9B8DAC8DBD8DAC01BD012AE17695B6
:1037D0006795579547952A95D1F72E8D240F2A87FF
:1037E000AC01BD0133E176956795579547953A95BC
:1037F000D1F74F774B87AC01BD01ECE0769567952B
:1038000057954795EA95D1F74F774C87AC01BD01A5
:10381000F5E07695679557954795FA95D1F74F77E7
:103820004D87982F990F990F9C779E8F4AE764E9EF
:10383000C8010E94AD06F82AC8010E94FC0BF82AB4
:10384000AE01465E5F4F60E9C8010E94460AF82A51
:103850008A8D9B8DAC8DBD8DAC01BD012EE1769521
:103860006795579547952A95D1F72E8D240F2E876A
:10387000AC01BD0137E176956795579547953A9527
:10388000D1F74F774F872A2F2F77288BAC01BD01B7
:10389000E9E07695679557954795EA95D1F74F7783
:1038A000498BF2E0B695A79597958795FA95D1F74C
:1038B0008F778A8B1B8AE12C912C48CE2F923F92D6
:1038C0004F925F926F927F928F929F92AF92BF9230
:1038D000CF92DF92EF92FF920F931F93CF93DF93DC
:1038E000CDB7DEB7C755D1090FB6F894DEBF0FBE0E
:1038F000CDBF3C01C62EAC01485B5E4F60965FAF0A
:103900004EAF6097DA01ED91FC911197EF5BFE4F9E
:1039100089E28083ED91FC911197EE5BFE4F81E08F
:103920008083ED91FC911197ED5BFE4F80E991E072
:1039300091838083ED91FC91EB5BFE4F85E995E0EF
:10394000918380830E9419052301BFEF4B1A5B0A04
:1039500021E04EEF69E8C2010E943B0B811105C0D6
:1039600040E068E8C2010E94AD06FE01FB962A967F
:10397000FFAFEEAF2A97AF0160ECC2010E948D0B42
:10398000F301E052FF4F108288EE93E0E65AFF4FBA
:103990009183808380E991E032969183808385E8EA
:1039A0009BE6A1E0B0E0329680839183A283B3834B
:1039B00084EA90E7A9E0B0E0E557F10980839183BC
:1039C000A283B383D3015E961D921D921D921C9219
:1039D0009197FE0131962C96FFAFEEAF2C97BF0169
:1039E000C2010E94690E082F81110BC019821A8230
:1039F0008AE3FE013196D301519601900D928A958A
:103A0000E1F784E690E0F301EE5DFE4F9183808361
:103A100084E893E032969183808384EF91E032963C
:103A20009183808380E09AE033969183808381E064
:103A30007096808341E060E8C2010E94AD06182FB5
:103A400041E06FEFC2010E94AD06182B102B40E041
:103A500060E0C2010E94AD06182BAE01415C5F4FD1
:103A600061E9C2010E948D0B182B8FADF301E85D57
:103A7000FE4F808341E060E0C2010E94AD06182B3A
:103A800040E06FEFC2010E94AD06182B40E060E8F5
:103A9000C2010E94AD06912F982B130110E000E0A7
:103AA000DD24D3947301F4E0EF0EF11C9111B5C144
:103AB0000330110509F491C07CF401301105D1F0F7
:103AC0000230110509F485C0D3019696DC92D1012C
:103AD0009696DC9280E020C00430110509F480C085
:103AE00020E04FEE0530110579F760E6C2010E9433
:103AF0003B0B10C0F70142A953A964A975A9B9E00D
:103B00007695679557954795BA95D1F764E4C201C4
:103B10000E9482068823D9F20F5F1F4FBFEF2B1A36
:103B20003B0A982F0630110509F0C0CF811169C0FA
:103B3000F30110A611A622E04EEF60E6C2010E943A
:103B40003B0B81115EC0D3019A961C9220E14FEE8F
:103B500060E6C2010E943B0B811153C0F30113A622
:103B600086A1811140C080E090E0A2E1B0E082AB8C
:103B700093ABA4ABB5ABD30197968C91811138C0B0
:103B800080E090E4A0E0B0E0F30186AB97ABA0AF9B
:103B9000B1AF80E090E0A3E2B0E082AF93AFA4AF1A
:103BA000B5AFFE9610821182128213828FEFE0521F
:103BB000FF4F80834FEF61E0C2010E94AD0691E0AC
:103BC000F301E05EFE4F908381111BC07B97108252
:103BD00018C0D3019896DC927ACFF301D1A677CFA3
:103BE00020E04EEF82CF80E090E0A2E1B0E0BFCFD6
:103BF00040E250E064E4C2010E948206882309F496
:103C0000BFCFD3018C934C2D6AE86096EEADFFAD2B
:103C10006097808191810E94AD06D3018C936AE008
:103C200070E080E090E00E949F04F30180818111A8
:103C3000A8C16096AEADBFAD6097ED91FC91EF5B12
:103C4000FE4FC08262E0C2010E94F919811135C0A5
:103C50008301065B1E4FC30186579E4FF301EF5150
:103C6000FF4F20812111DBC06DE473E00E947030B2
:103C70006EE473E0C8010E94703067E873E0C80129
:103C800080960E947030A30146555E4F60ECC201E1
:103C90000E948D0B811111C0AE014F5F5F4F62EC2E
:103CA000C2010E948D0B91E0F301E555FE4F908318
:103CB0003196998192959F709083D3018C93811155
:103CC0000DC0F301E555FE4F8081813021F431961E
:103CD0008081813019F08BEFF3018083D3018C91C7
:103CE0008111D1C06096EEADFFAD609740805180EC
:103CF0008AE32C96AEADBFAD2C971D928A95E9F75D
:103D000025961FAE1EAE259728961FAE289727969C
:103D10001FAE279723961CAE1DAE1EAE1FAE239777
:103D200061E0C2010E94F919F201ED5FFE4F30809F
:103D3000B1E0B31508F498C031972080A22CB12CC3
:103D4000D12CC12C3B1289C0E1E2AE16B104C104F2
:103D5000D10408F089C041E06FEFC2010E94AD06B6
:103D600081111AC040E06FE4C2010E94AD068111CA
:103D700013C04CE26EE4C2010E94AD0681110CC07A
:103D800040E06FEFC2010E94AD06811105C044EB17
:103D900066EBC2010E94AD0692012F5E3E4FD90133
:103DA0001C92F201EE5EFE4F108231961082319627
:103DB00010823196108231961082E12CF12C87010D
:103DC000332009F4F9C0D801C7018C549F4FAF4F7D
:103DD000BF4FF6E0B695A79597958795FA95D1F7D9
:103DE000880F991F880F991F875F9C4FFC01808166
:103DF0009181A281B381892B8A2B8B2B09F0DCC0A6
:103E0000FCE2EF16F1040105110509F4D5C04FEFEE
:103E1000E41AF40A0F4F1F4FD6CF892FF2CEF301C9
:103E2000EE51FF4FF080B3016D517F4F0E94703013
:103E3000FF2009F41DCFB2E2BF1540F0E0E26AE5D1
:103E400073E0FE1217CF66E673E014CFF6E262E786
:103E500073E0FF1508F40ECFF6CFFDE0AF16B10406
:103E6000C104D10408F477CFAE014A5B5F4FBE01B5
:103E7000615C7F4FC2010E94F316B82EBB2009F48B
:103E8000B1C0F301B082D3018C91811110C0AE0199
:103E90004D5B5F4FBE016F5F7F4F6096EEADFFAD34
:103EA0006097808191810E94F316D3018C93F30176
:103EB0008081811111C021E0AE01455C5F4FBE01E0
:103EC000615C7F4F6096AEADBFAD60978D919C9168
:103ED0000E946D13F3018083D3018C91811109C07D
:103EE0006096AEADBFAD6097ED91FC91108AF30185
:103EF0001082D3018C91811140C06096AEADBFADF0
:103F00006097ED91FC911197FF24F394F5A2F301D2
:103F100010820D911C91D801D5964D915D916D91B6
:103F20007C91D89799E076956795579547959A959E
:103F3000D1F764E4C8010E948206811102C0F80131
:103F4000F6A2D3018C93811118C06096AEADBFADBF
:103F50006097ED91FC91119781E080A7F3011082A9
:103F6000ED91FC91FD9684ED98E0A0E0B0E08083B7
:103F70009183A283B383D3011C9281E0F3019081EA
:103F8000911180E0C95ADF4F0FB6F894DEBF0FBE23
:103F9000CDBFDF91CF911F910F91FF90EF90DF90F8
:103FA000CF90BF90AF909F908F907F906F905F90D9
:103FB0004F903F902F900895CE01CB964C01A201D7
:103FC000495E5E4F632DC2010E946109B82E8111C6
:103FD00055CF81E0F201EC5FFE4F80833297208263
:103FE00031963082F201E85CFE4F80818111DFC1A1
:103FF0003297C080D18030E020E04201FBEB8F1A85
:10400000FEEF9F0AA2014F5B5E4F2E965FAF4EAF51
:104010002E97C2018D5D9E4F62969FAF8EAF6297C5
:10402000D201AF5DBE4F6496BFAFAEAF6497F201F1
:10403000EB5DFE4F6696FFAFEEAF669749515109B3
:1040400068965FAF4EAF689703C0ECEFBE2E91014C
:10405000F601E20FF31F0081002309F48DC0B110B7
:1040600010CF19019FEF291A390AD601A20DB31DED
:104070006C910F3F09F04FC01901A2E02A0E311CCC
:10408000D601A20DB31D8C91613029F198F06230F8
:1040900099F16330D1F6190144E0240E311C2381DB
:1040A00090E0982F8827820F911D6896AEADBFAD26
:1040B00068971FC01901B4E02B0E311C238190E0DA
:1040C000982F8827820F911D6496EEADFFAD6497FF
:1040D00091838083BCCF190144E0240E311C2381DD
:1040E00090E0982F8827820F911D6296AEADBFADEC
:1040F00062978D939C93ABCF1901B4E02B0E311CCA
:10410000238190E0982F8827820F911D6696EEAD4F
:10411000FFAD6697DDCF053008F097CF2E5F3F4F9C
:10412000D601A20FB31FFE01FB96202E312CCF012A
:104130002A964EAD5FAD2A97841B950B8215930589
:104140001CF48D918193F3CF220E331ED401ED9098
:10415000FC9010E030E020E0AE01455C5F4F2E9611
:10416000EEADFFAD2E9780810E944106892B09F4A8
:104170006ECF7CEEB72E6BCFB11083CE44E06AE0F9
:10418000C2010E94AD06B82E81117BCE20E04FEE19
:1041900064E8C2010E943B0BB82E811172CE84E00C
:1041A000F201E253FF4F8083C2010E94AA0BB82E96
:1041B000811167CE41E06FEFC2010E94AD06B82EBB
:1041C000AE014D5B5F4F64E8C2010E948F0AB82ABE
:1041D00040E06FEFC2010E94AD06B82A09F051CE4F
:1041E000F201E853FF4F25968EAD9FAD259724E051
:1041F000880F991F2A95E1F7B0E0A0E080839183B2
:10420000A283B383BE016F5F7F4FC2010E94690E1C
:10421000B82E811136CEAE01495B5F4F69E0C20115
:104220000E948D0BB82E81112CCE28968FAD289729
:10423000817028968FAF2897F201E25EFE4F80834F
:104240008AE3FE013196D201509601900D928A9533
:10425000E1F7AE01495B5F4F61E0C2010E948D0B47
:10426000B82E81110ECE8201035E1E4F28968FADAF
:104270002897D8018C931BAEAE01455C5F4F61E07F
:10428000C2010E948D0BB82E8111FBCD8BADF82E93
:10429000E894F4F884FF14C04F2D61E0C2010E943D
:1042A000AD06B82E8111EDCDF801F082D201529603
:1042B0004D915D916D917C915597C2010E94F011D5
:1042C0001BAEAE01455C5F4F61E0C2010E948D0BE9
:1042D000B82E8111D6CD8BADF82EE894F2F882FF7E
:1042E00014C04F2D61E0C2010E94AD06B82E8111AD
:1042F000C8CDF801F082D20152964D915D916D9139
:104300007C915597C2010E94F01183E0F201E15EB9
:10431000FE4F8083AE014B5B5F4F60E0C2010E94A5
:10432000DD0BB82E8111ADCD26968FAD2697F2010B
:10433000E852FF4F8083AE014B5B5F4F61E0C201EB
:104340000E94DD0BB82E81119CCD26968FAD26974D
:10435000F201ED52FF4F8083AE01455C5F4F63E099
:10436000C2010E94120EB82E81118BCD8BAD9CAD77
:10437000ADADBEADF201EC52FF4F80839183A283BD
:10438000B383AE01455C5F4F64E0C2010E94120E30
:10439000B82E811176CDF201E153FF4F8BAD9CAD6C
:1043A000ADADBEAD80839183A283B3836ACD80E03F
:1043B000C82E82E0D82E1FCE8F929F92AF92BF92CE
:1043C000CF92DF92EF92FF920F931F93CF93DF93E1
:1043D000CDB7DEB763970FB6F894DEBF0FBECDBF83
:1043E0008B01FB01349620E2DF011D922A95E9F74B
:1043F00044E250E060E070E0F80140835183628362
:104400007383DC0115964D915D916D917C911897A8
:10441000448355836683778343E050E060E070E037
:1044200040875187628773872FB7F89440917E0445
:1044300050917F0460918004709181042FBF408B64
:10444000518B628B738B2CE0FE013196DF011D9244
:104450002A95E9F7AE01435F5F4F26E0FA0111921A
:104460002A95E9F72AE12B8B26E030E0BE016D5E4C
:104470007F4FDC0113968D919C910E9428106D85D1
:104480007E85072E000C880B990B0E94D62D20E00C
:1044900030E040E85DE30E94622E4B015C016F85D5
:1044A0007889072E000C880B990B0E94D62D20E0EE
:1044B00030E040E85DE30E94622E6B017C01698977
:1044C0007A89072E000C880B990B0E94D62D20E0CC
:1044D00030E040E85DE30E94622EF801848A958A0C
:1044E000A68AB78AC08ED18EE28EF38E648F758FC6
:1044F000868F978F81E063960FB6F894DEBF0FBE6C
:10450000CDBFDF91CF911F910F91FF90EF90DF9082
:10451000CF90BF90AF909F908F9008950F931F936F
:10452000CF93DF938C01EB0188E2FB0111928A9516
:10453000E9F74BE050E06FE873E0CE010E9477307E
:104540001B8681E090E0A0E0B0E08C879D87AE877D
:10455000BF87F80185819681A781B085888B998B6B
:10456000AA8BBB8B83E090E0A0E0B0E08C8B9D8BAE
:10457000AE8BBF8B1CA21DA21EA21FA2188E198E6D
:104580001A8E1B8E1C8E1D8E1E8E1F8E8AE097ED3E
:10459000A3E2BCE388A399A3AAA3BBA3DF91CF9115
:1045A0001F910F91089585ED8093BC008091D004F8
:1045B0009091D104A091D204B091D3040796A11D8B
:1045C000B11D23E0B695A795979587952A95D1F7C4
:1045D0002091BC0024FD03C01092CE0408954091A8
:1045E000D0045091D1046091D2047091D304452B32
:1045F000462B472B69F30097A105B10541F025E350
:104600002A95F1F700000197A109B109E1CF809146
:10461000CF040C9430051F920F920FB60F92112405
:104620000BB60F922F933F934F935F936F937F93AC
:104630008F939F93AF93BF93EF93FF9388EF94E093
:104640000E94E002FF91EF91BF91AF919F918F91F6
:104650007F916F915F914F913F912F910F900BBE82
:104660000F900FBE0F901F9018951F920F920FB6CC
:104670000F9211240BB60F922F938F939F93EF936A
:10468000FF93E0910805F09109058081E0910E0506
:10469000F0910F0582FD1DC09081809111058F5F03
:1046A0008F7320911205821741F0E0911105F0E01F
:1046B000E850FB4F958F80931105FF91EF919F91EB
:1046C0008F912F910F900BBE0F900FBE0F901F90E8
:1046D00018958081F2CF1F920F920FB60F9211247E
:1046E0002F933F938F939F93AF93BF9380917E04BB
:1046F00090917F04A0918004B0918104309179045D
:1047000023E0230F2D3758F50196A11DB11D2093ED
:10471000790480937E0490937F04A0938004B093E7
:10472000810480917A0490917B04A0917C04B091E3
:104730007D040196A11DB11D80937A0490937B04A2
:10474000A0937C04B0937D04BF91AF919F918F9112
:104750003F912F910F900FBE0F901F90189526E854
:10476000230F0296A11DB11DD2CF1F920F920FB63B
:104770000F9211240BB60F922F933F934F935F9399
:104780006F937F938F939F93AF93BF93EF93FF9319
:10479000E0910103F09102031995FF91EF91BF9110
:1047A000AF919F918F917F916F915F914F913F91C9
:1047B0002F910F900BBE0F900FBE0F901F9018956A
:1047C0001F920F920FB60F9211240BB60F922F93D8
:1047D0003F934F935F936F937F938F939F93AF9389
:1047E000BF93EF93FF93E091FF02F09100031995BF
:1047F000FF91EF91BF91AF919F918F917F916F91B9
:104800005F914F913F912F910F900BBE0F900FBE74
:104810000F901F9018951F920F920FB60F921124B0
:104820000BB60F922F933F934F935F936F937F93AA
:104830008F939F93AF93BF93EF93FF93E091F50214
:10484000F091F6021995FF91EF91BF91AF919F9171
:104850008F917F916F915F914F913F912F910F9029
:104860000BBE0F900FBE0F901F9018951F920F92C6
:104870000FB60F9211240BB60F922F933F934F93C5
:104880005F936F937F938F939F93AF93BF93EF93B8
:10489000FF93E091F302F091F4021995FF91EF91EB
:1048A000BF91AF919F918F917F916F915F914F9148
:1048B0003F912F910F900BBE0F900FBE0F901F9046
:1048C00018951F920F920FB60F9211240BB60F92EC
:1048D0002F933F934F935F936F937F938F939F9308
:1048E000AF93BF93EF93FF93E091FD02F091FE022F
:1048F0001995FF91EF91BF91AF919F918F917F910A
:104900006F915F914F913F912F910F900BBE0F9040
:104910000FBE0F901F9018951F920F920FB60F9217
:1049200011240BB60F922F933F934F935F936F9386
:104930007F938F939F93AF93BF93EF93FF93E091F8
:10494000FB02F091FC021995FF91EF91BF91AF919D
:104950009F918F917F916F915F914F913F912F9197
:104960000F900BBE0F900FBE0F901F9018951F92C7
:104970000F920FB60F9211240BB60F922F933F9305
:104980004F935F936F937F938F939F93AF93BF9357
:10499000EF93FF93E091F902F091FA021995FF91DC
:1049A000EF91BF91AF919F918F917F916F915F91A7
:1049B0004F913F912F910F900BBE0F900FBE0F9014
:1049C0001F9018951F920F920FB60F9211240BB6DD
:1049D0000F922F933F934F935F936F937F938F9398
:1049E0009F93AF93BF93EF93FF93E091F702F09102
:1049F000F8021995FF91EF91BF91AF919F918F911F
:104A00007F916F915F914F913F912F910F900BBECE
:104A10000F900FBE0F901F9018951F920F920FB618
:104A20000F9211240BB60F922F933F934F935F93E6
:104A30006F937F938F939F93AF93BF93EF93FF9366
:104A40008091B900887F803609F44DC008F040C0DD
:104A5000883209F4A9C028F5803109F49DC0C8F452
:104A6000882309F4FBC0883009F496C0FF91EF91C8
:104A7000BF91AF919F918F917F916F915F914F9176
:104A80003F912F910F900BBE0F900FBE0F901F9074
:104A90001895883109F488C0803241F78093CC049E
:104AA00014C0803409F49DC040F48033B9F38833D6
:104AB000E9F68093CC0485ECB0C0803509F485C05C
:104AC000883509F496C0883489F60E94D322CECF67
:104AD000883909F48CC038F5883729F050F48836C5
:104AE00011F0803719F683E08093CE041092780499
:104AF00057C0883809F47BC0803919F0803809F034
:104B0000B5CF80917804803208F071C0E0917804CC
:104B100081E08E0F809378048091BB00F0E0E85A2A
:104B2000FB4F80833DC0803B39F0E0F4803A09F4CC
:104B300079C0883A09F09ACF84E08093CE0410922D
:104B4000570410925604E0918404F091850419955D
:104B50008091560481110FC081E080935604109219
:104B6000360409C0803C09F4A6CF883C09F4A3CFE1
:104B7000883B09F07BCFE091570481E08E0F809352
:104B80005704F0E0EA5CFB4F80818093BB0090917A
:104B900057048091560429C08091A9048093BB00DA
:104BA00085EC8093BC0062CF9091CB048091CA04C5
:104BB000981758F5E091CB0481E08E0F8093CB04D9
:104BC000F0E0E655FB4F8081E9CFE091CB0481E036
:104BD0008E0F8093CB048091BB00F0E0E655FB4F35
:104BE00080839091CB048091CA049817C8F285E81D
:104BF000D8CFE091CB0481E08E0F8093CB048091DD
:104C0000BB00F0E0E655FB4F80838091CD0481111D
:104C10005CCF81E08093A80484EA8093BC0010926A
:104C2000CE0424CF85EC8093BC001092CE048091FA
:104C30007804803230F4E0917804F0E0E85AFB4FD9
:104C400010826091780470E0E0918204F091830416
:104C500088E594E019951092780408CF1092CC045E
:104C600034CFCF93DF93EC01862F6A837B835D8300
:104C70004C833F832E8391E098872FEF3FEF39835A
:104C8000288361E00E942C0461E08C810E942C0446
:104C900061E08E81DF91CF910C942C040F931F93D0
:104CA0001092FB041092FA0488EE93E0A0E0B0E0CA
:104CB0008093FC049093FD04A093FE04B093FF0442
:104CC0002DE133E03093F9042093F80425EC30E033
:104CD000309305052093040524EC30E0309307055C
:104CE0002093060520EC30E0309309052093080559
:104CF00021EC30E030930B0520930A0522EC30E0E4
:104D000030930D0520930C0526EC30E030930F0511
:104D100020930E05109211051092120510921305A2
:104D2000109214051092980510929705809399059A
:104D300090939A05A0939B05B0939C058FE293E016
:104D4000909396058093950522E030E049E150E08C
:104D500066E170E08AE39AE00E94312624E030E0C8
:104D60004DE150E06AE170E081E39AE00E94312673
:104D700025E030E04CE150E06BE170E088E29AE041
:104D80000E94312623E030E048E150E067E170E026
:104D90008FE19AE00E9431261092CF091092D0093B
:104DA0001092D1091092D2091092D3091092D4090D
:104DB0001092D5091092D6091092D7091092D809ED
:104DC0001092D9091092DA0940E050E060E070E8F2
:104DD0004093E3095093E4096093E5097093E60971
:104DE00080E090E0A0E8BFE38093E7099093E809B2
:104DF000A093E909B093EA0900E010E020E83FEB56
:104E00000093EB091093EC092093ED093093EE0920
:104E10001092EF091092F0091092F1091092F20924
:104E20008093F3099093F409A093F509B093F609E0
:104E30008093F7099093F809A093F909B093FA09C0
:104E40001092FB091092FC091092FD091092FE09C4
:104E50008093FF099093000AA093010AB093020A7D
:104E60000093030A1093040A2093050A3093060A5C
:104E70004093070A5093080A6093090A70930A0A3C
:104E800080930B0A90930C0AA0930D0AB0930E0A1C
:104E900080930F0A9093100AA093110AB093120AFC
:104EA0001092130A1092140A1092150A1092160A00
:104EB0001092170A1092180A1092190A10921A0AE0
:104EC00010921B0A10921C0A10921D0A10921E0AC0
:104ED0008DEC9CECACE4BEE38093C7099093C809C9
:104EE000A093C909B093CA098093CB099093CC09C8
:104EF000A093CD09B093CE098AE39AE09093DC09A0
:104F00008093DB0981E39AE09093DE098093DD09C9
:104F100088E29AE09093E0098093DF098FE19AE0BC
:104F20009093E2098093E1091092C10988E380938C
:104F3000C2091092C3091092C4091092C5091092B7
:104F4000C6091092BB098CE38093BC091092BD097D
:104F50001092BE091092BF091092C0091092B509B3
:104F600087E38093B6091092B7091092B80910929E
:104F7000B9091092BA091092AF098DE38093B00974
:104F80001092B1091092B2091092B3091092B409AB
:104F90001092A90989E38093AA091092AB09109293
:104FA000AC091092AD091092AE091092A3098BE3DF
:104FB0008093A4091092A5091092A6091092A7093E
:104FC0001092A80910929D0986E380939E09109281
:104FD0009F091092A0091092A1091092A2091092A3
:104FE00097098AE3809398091092990910929A0977
:104FF00010929B0910929C091092860910928509C3
:10500000109288091092870910928A0910928909D2
:1050100010928C0910928B0910928E0910928D09B2
:105020001092900910928F09109292091092910992
:105030001092940910929309109296091092950972
:1050400081EC99E090937609809375098BEB99E058
:10505000909378098093770985EB99E090937A098A
:10506000809379098FEA99E090937C0980937B097A
:1050700089EA99E090937E0980937D0983EA99E01B
:105080009093800980937F098DE999E0909382093C
:105090008093810987E999E090938409809383093B
:1050A00081E493E0909347098093460987E390E079
:1050B000A0E0B0E080934B0990934C09A0934D0978
:1050C000B0934E0986E090E00E944B2FFC0188E2ED
:1050D000808385E995E092838183138280E290E06A
:1050E00095838483F0934A09E09349098EEA91E01D
:1050F000EDECF5E0DF019C011D9221503040E1F71D
:105100002EEC35E03093160720931507E4E9F7E01D
:10511000DF019C011D9221503040E1F785E997E0C5
:105120009093DD088093DC081092430910924209A5
:1051300010924509109244091092AF051092AE05E5
:105140001092B0051092B3051092B2051092B105FD
:1051500082E190E09093AD058093AC058EEA95E0F6
:105160009093AB058093AA0562E082E10E942C0433
:105170002091AC053091AD052230310581F58DEBE4
:1051800091E09093F4028093F30280916A008C7F07
:10519000826080936A00EC9A1092A8051092A7058D
:1051A00086E090E09093A4058093A30587E090E0CB
:1051B0009093A6058093A5051092A90581E090E043
:1051C0009093A2058093A10561E086E00E942C04E3
:1051D00061E08091A5051F910F910C942C04233060
:1051E000310571F48DEB91E09093F6028093F50216
:1051F00080916A00837F886080936A00ED9ACCCFAB
:10520000C9014297049740F687E1821BE82FF0E03E
:10521000EE0FFF1FED50FD4F2DEB31E0318320836A
:105220008430A1F08530D1F0833041F08091690065
:105230008C7F826080936900E89AAECF809169008C
:10524000837F886080936900E99AA6CF8091690086
:105250008F7C806280936900EA9A9ECF809169007A
:105260008F73806880936900EB9A96CFCF93DF931A
:105270001F92CDB7DEB7789484B5826084BD84B5C3
:10528000816084BD85B5826085BD85B5816085BD41
:1052900080916E00816080936E00109281008091F9
:1052A0008100826080938100809181008160809381
:1052B0008100809180008160809380008091B100A6
:1052C00084608093B1008091B00081608093B000D1
:1052D0008091910082608093910080919100816023
:1052E00080939100809190008160809390008091E4
:1052F000A10082608093A1008091A10081608093D1
:10530000A1008091A00081608093A0008091210184
:10531000826080932101809121018160809321012D
:105320008091200181608093200180917A008460C7
:1053300080937A0080917A00826080937A008091D5
:105340007A00816080937A0080917A0080688093EF
:105350007A001092C100E0910805F091090582E001
:105360008083E0910405F09105051082E091060527
:10537000F091070580E1808310921005E0910C0503
:10538000F0910D0586E08083E0910A05F0910B0510
:10539000808180618083E0910A05F0910B05808116
:1053A00088608083E0910A05F0910B058081806818
:1053B0008083E0910A05F0910B0580818F7D8083C9
:1053C00061E08DE20E942C0460E08DE20E94A00367
:1053D00061E081E10E942C0461E080E10E942C04E4
:1053E00089EF92E00E94A50860E081E10E94A0039D
:1053F00060E080E10E94A00385ED92E00E94A50894
:1054000089EC92E00E94A50860E081E10E94A0037F
:1054100060E080E10E94A0036AE070E080E090E03C
:105420000E949F0461E081E10E94A00361E080E1AD
:105430000E94A0036AE070E080E090E00E949F0478
:1054400061E081E10E94A00360E080E10E94A0038E
:1054500060E38DEC95E00E945E1C811105C08CEA32
:1054600092E00E94A508FFCF6AE070E080E090E043
:105470000E949F0461E080E10E94A0036AE070E066
:1054800080E090E00E949F0461E384E997E00E943D
:105490005E1C811105C08EE892E00E94A508FFCF36
:1054A0000091490910914A090E94190581E0F8010B
:1054B0008383C8010E947308882389F10E94A51084
:1054C000803A19F51092500910924F0960E08DE36F
:1054D00090E00E94EE086EE170E080E090E00E94B3
:1054E0009F0460E28FE390E00E94EE086EE170E0BE
:1054F00080E090E00E949F040E94A510803AA1F0F5
:105500006AE070E080E090E0F5CF68EE73E080E064
:1055100090E00E949F040E94A510803A99F286E9CB
:1055200093E00E949808FFCF62E370E080E090E093
:105530000E949F0460E08EE390E00E94EE086AE023
:1055400070E080E090E00E949F0460E087E090E0DF
:105550000E94EE0860E08FE390E00E94EE086AE0AF
:1055600070E080E090E00E949F048CE090E09093D7
:10557000500980934F096CE08DE390E00E94EE08A3
:105580006EE170E080E090E00E949F0464E170E0D2
:1055900080E090E00E949F0461E08DE20E94A00301
:1055A0006AE070E080E090E00E949F048091AA058C
:1055B0009091AB050E946319811109C086EB93E0BD
:1055C0000E9498088BE493E00E949808FFCF89EA34
:1055D00093E00E9498088BE493E00E94980840E0D2
:1055E0006CE08091AA059091AB050E94C5080091DE
:1055F000AA051091AB0580E8898321E030E0AE0177
:105600004F5F5F4FBA01F801808191810E9428109D
:105610004981406160E0C8010E94C50888EF94E0BC
:105620000E944F038091950990919609009709F087
:10563000AFC080917509909176090E94921190E017
:1056400090938609809385098091770990917809D4
:105650000E94921190E0909388098093870980912D
:10566000790990917A090E94921190E090938A09A9
:105670008093890980917B0990917C090E94921105
:1056800090E090938C0980938B0980917D09909193
:105690007E090E94921190E090938E0980938D096B
:1056A00080917F09909180090E94921190E09093DF
:1056B000900980938F0980918109909182090E94BD
:1056C000921190E0909392098093910980918309BF
:1056D000909184090E94921190E090939409809394
:1056E000930983EE93E00E94980880918909909134
:1056F0008A090E94BC108DEE93E00E949808809168
:105700008B0990918C090E94BC1087EF93E00E9456
:10571000980880919109909192090E94BC1081E0B3
:1057200094E00E94980880919309909194090E94B6
:10573000BC108BE094E00E949808809185099091BC
:1057400086090E94BC1085E194E00E94980880912F
:105750008709909188090E94BC108FE194E00E9413
:10576000980880918D0990918E090E94BC1089E261
:1057700094E00E94980880918F09909190090E946E
:10578000BC108BE493E00E9498080E946F034ACFFC
:105790008A35910509F052C08091790990917A0972
:1057A0000E94921190E090938609809385098091E0
:1057B0007B0990917C090E94921190E09093880956
:1057C0008093870980917F09909180090E949211AE
:1057D00090E090938A098093890980917D09909146
:1057E0007E090E94921190E090938C0980938B091E
:1057F00080918109909182090E94921190E090938A
:105800008E0980938D0980918309909184090E946B
:10581000921190E09093900980938F09809177097D
:10582000909178090E94921190E090939209809350
:10583000910980917509909176094CCF843B91052F
:1058400009F052C080917F09909180090E949211C5
:1058500090E0909386098093850980917D099091CD
:105860007E090E94921190E09093880980938709A5
:1058700080918309909184090E94921190E0909305
:105880008A098093890980918109909182090E94F7
:10589000921190E090938C0980938B098091770905
:1058A000909178090E94921190E090938E098093D4
:1058B0008D0980917509909176090E94921190E06E
:1058C0009093900980938F0980917B0990917C0936
:1058D0000E94921190E09093920980939109809197
:1058E000790990917A09F6CE809181099091820987
:1058F0000E94921190E0909386098093850980918F
:105900008309909184090E94921190E090938809F4
:105910008093870980917509909176090E94921170
:1059200090E090938A0980938909809177099091FA
:1059300078090E94921190E090938C0980938B09D2
:1059400080917B0990917C090E94921190E0909344
:105950008E0980938D098091790990917A090E942E
:10596000921190E09093900980938F0980917D0926
:1059700090917E090E94921190E0909392098093F9
:10598000910980917F0990918009A4CE5058BB273E
:10599000AA270E94DE2C0C94282E0E941A2E38F082
:1059A0000E94212E20F039F49F3F19F426F40C9424
:1059B000172E0EF4E095E7FB0C94112EE92F0E94B0
:1059C000392E58F3BA17620773078407950720F03A
:1059D00079F4A6F50C945B2E0EF4E0950B2EBA2FFD
:1059E000A02D0B01B90190010C01CA01A0011124E5
:1059F000FF27591B99F0593F50F4503E68F11A1691
:105A0000F040A22F232F342F4427585FF3CF469521
:105A100037952795A795F0405395C9F77EF41F1643
:105A2000BA0B620B730B840BBAF09150A1F0FF0F0D
:105A3000BB1F661F771F881FC2F70EC0BA0F621FF9
:105A4000731F841F48F4879577956795B795F795E9
:105A50009E3F08F0B0CF9395880F08F09927EE0F7E
:105A60009795879508950E94472D0C94282E0E94A3
:105A7000212E58F00E941A2E40F029F45F3F29F0A1
:105A80000C94112E51110C945C2E0C94172E0E9424
:105A9000392E68F39923B1F3552391F3951B550BD8
:105AA000BB27AA2762177307840738F09F5F5F4FF1
:105AB000220F331F441FAA1FA9F335D00E2E3AF030
:105AC000E0E832D091505040E695001CCAF72BD048
:105AD000FE2F29D0660F771F881FBB1F2617370799
