:100000000C94BB010C942D2A0C94022A0C94D72931
:100010000C94AC290C9481290C9456290C942B290E
:100020000C9400290C94EC010C94EC010C94EC0160
:100030000C94EC010C94EC010C94EC010C94EC018C
:100040000C94EC010C94E22A0C94EC010C94EC015D
:100050000C94EC010C94EC010C94EC010C94B6287B
:100060000C94EC010C9480280C9456280C94EC0110
:100070000C94EC010C94EC010C94EC010C94EC014C
:100080000C94B42A0C94EC010C94EC010C94EC014B
:100090000C94EC010C94EC010C94EC010C94102BDE
:1000A0000C94EC010C94EC010C94862A0C94EC0159
:1000B0000C94EC010C94EC010C94EC010C94582A77
:1000C0000C94EC010C94EC010C94EC010C94EC01FC
:1000D0000C94EC010C94EC010C94EC010C94EC01EC
:1000E0000C94EC0105A84CCDB2D44EB93836A90217
:1000F0000C50B9918688083CA6AAAA2ABE00000026
:10010000803F0C9428050C94130A0C94AE1E0C949A
:1001100077040C94F6060C94470A0C9458040C943B
:100120009A050C943F050C9488040C94AA040C9432
:1001300021030C948A030C94512C0C947E040C948F
:10014000F1090C941A0A0C9453050C94000A0C94AF
:1001500073040C948E040C94D9270C9496040C947C
:10016000C2050C9484040C943B060C94A4050C94D6
:1001700030030C94AE040C946D050C9435050C946E
:1001800027270C949C040C94760A0C946F040C940E
:1001900030050C94A4040C94F2010C9492040C9479
:1001A000EE010C94F4020C9463050C9490050C94ED
:1001B000A0040C94B8050C9477050C94F3010C94EE
:1001C000F0090C9444030C945B050C94AE050C945C
:1001D00052030C9449050C945D040C94D7030C94C1
:1001E00081050C94F7060C947B0400002100240088
:1001F00027002A002D003000330001010000040117
:1002000007010A0100002200250028002B002E0013
:100210003100340002010000050108010B01050551
:100220000505070508080808020202020A0A08086C
:10023000040404040101010101010101030303039A
:1002400003030303040707070C0C0C0C0C0C0C0C29
:100250000202020206060606060606060B0B0B0B3A
:100260000B0B0B0B0102102020080810204010205F
:10027000408002010201080402010102040810206A
:100280004080804020100804020180040201804068
:1002900020100804020108040201010204081020D1
:1002A0004080010204081020408000000A0B02096F
:1002B0000C0D0E0807030401000000000000000000
:1002C000000000000000000000000000000000002E
:1002D00000000000000012111000000000000000EB
:1002E000000000000000000000000000000000000E
:1002F0004661696C656420746F20626F6F7420734F
:1003000065636F6E6420564C35334C30580046613F
:10031000696C656420746F20626F6F742066697207
:10032000737420564C35334C3058005374617274DA
:10033000696E672E2E2E00426F746820696E2072DF
:1003400065736574206D6F64652E2E2E2870696E3E
:100350007320617265206C6F77290053687574642F
:100360006F776E2070696E7320696E697465642E94
:100370002E2E0000512C11241FBECFEFD1E2DEBF84
:10038000CDBF00E00CBF14E0A0E0B2E0E8E7F7E783
:1003900000E00BBF02C007900D92AE30B107D9F755
:1003A0002AE0AEE0B4E001C01D92A73CB207E1F73D
:1003B00011E0CBEBD1E000E006C021970109802FCE
:1003C000FE010E94773ACA3BD10780E00807A9F7EF
:1003D0000E94842F0C94BA3B0C94000081E080931F
:1003E0005D0408950895089520910F0A3091100A30
:1003F000820F931F883621E0920794F1885691402E
:100400009093100A80930F0A80910F0A9091100A1E
:100410009C012C543F4F283641E0340734F12856D4
:1004200031403093120A2093110A9C012A55310958
:10043000283641E03407FCF0285631403093140A46
:100440002093130A9C01265A3F4F283641E0340777
:10045000C4F08E5091409093160A8093150A089527
:1004600097FFCECF88599E4FCBCF37FFDACF9C0175
:10047000245E3D4FD6CF37FFE1CF9C01225F3E4F38
:10048000DDCF37FD05C03093160A2093150A089575
:100490008E539E4FE0CFCF93DF9300D01F92CDB706
:1004A000DEB719821A821B821C8289819A81AB81F4
:1004B000BC818A3F9105A105B10568F400008981DE
:1004C0009A81AB81BC810196A11DB11D89839A835C
:1004D000AB83BC83EACF80E00F900F900F900F901A
:1004E000DF91CF9108954F925F926F927F928F929A
:1004F0009F92AF92BF92CF92DF92EF92FF920F93B3
:100500001F93CF93F9010FEF1FEF98010083118321
:10051000228333834A015B01B3E0B694A794979496
:100520008794BA95D1F76A017B0127E0C222DD24C6
:10053000EE24FF2495018401C0E006301105210559
:10054000310508F041C0C1113FC0DC01A00FB11F4F
:100550006C91412C512C320180169106A206B306F3
:1005600049F470E00C2C02C0759567950A94E2F787
:1005700026013701462F50E060FF17C0B901A801DE
:10058000A3E0440F551F661F771FAA95D1F7440EAD
:10059000551E661E771E4082518262827382C1E0C0
:1005A0000F5F1F4F2F4F3F4FC8CFBA01759567950B
:1005B0004FEF441A540A640A740A48E0441651047E
:1005C00061047104B9F6ECCFCF911F910F91FF90A8
:1005D000EF90DF90CF90BF90AF909F908F907F90E3
:1005E0006F905F904F900895AF92BF92CF92DF923D
:1005F000EF92FF920F931F93CF93DF936C017B01D8
:100600008B01040F151FEB015E01AE18BF08C01768
:10061000D10759F06991D601ED91FC910190F081DB
:10062000E02DC6011995892B79F7C501DF91CF918E
:100630001F910F91FF90EF90DF90CF90BF90AF9000
:100640000895FC01538D448D252F30E0842F90E0D8
:10065000821B930B541710F0CF96089501970895BD
:10066000FC01918D828D981761F0A28DAE0FBF2F86
:10067000B11D5D968C91928D9F5F9F73928F90E0DC
:1006800008958FEF9FEF0895FC01918D828D98174B
:1006900031F0828DE80FF11D858D90E008958FEF88
:1006A0009FEF0895FC01918D228D892F90E0805C51
:1006B0009F4F821B91098F739927089588ED94E0CD
:1006C0000E94520321E0892B09F420E0822F089533
:1006D000FC01A48DA80FB92FB11DA35ABF4F2C91B7
:1006E000848D90E001968F739927848FA689B789AE
:1006F0002C93A089B1898C91837080648C93938DA5
:10070000848D981306C00288F389E02D80818F7D47
:1007100080830895EF92FF920F931F93CF93DF93FF
:10072000EC0181E0888F9B8D8C8D98131AC0E8892D
:10073000F989808185FF15C09FB7F894EE89FF89FC
:100740006083E889F98980818370806480839FBF9A
:1007500081E090E0DF91CF911F910F91FF90EF909A
:100760000895F62E0B8D10E00F5F1F4F0F731127AA
:10077000E02E8C8D8E110CC00FB607FCFACFE889E5
:10078000F989808185FFF5CFCE010E946803F1CF02
:10079000EB8DEC0FFD2FF11DE35AFF4FF0829FB759
:1007A000F8940B8FEA89FB8980818062CFCFCF9349
:1007B000DF93EC01888D8823B9F0AA89BB89E88989
:1007C000F9898C9185FD03C0808186FD0DC00FB62F
:1007D00007FCF7CF8C9185FFF2CF808185FFEDCFAD
:1007E000CE010E946803E9CFDF91CF91089580E0A8
:1007F00090E0892B29F00E945E0381110E94000085
:1008000080E090E0892B49F080E090E0892B29F08E
:100810000E94000081110E94000080E090E0892B7E
:1008200049F080E090E0892B29F00E9400008111BE
:100830000E94000080E090E0892B49F080E090E089
:10084000892B29F00E94000081110C94000008956A
:10085000282F30E0F901E655FD4F9491F901EC594C
:10086000FD4F4491225E3D4FF9012491222309F46A
:1008700035C0992311F191509231F8F4E92FF0E04D
:100880008827EA5BFB4F8F4F0C94773A77047B0401
:1008900058046F0473045D047E04840488048E0489
:1008A000920496049C04A0045D04A404AA04AE046B
:1008B000809180008F7780938000E22FF0E0EE0F30
:1008C000FF1FEC5FFD4FA591B4918FB7F894EC91A9
:1008D000611148C040954E234C938FBF089580917D
:1008E00080008F7DE8CF80918000877FE4CF84B542
:1008F0008F7784BDE2CF84B58F7DFBCF8091B00030
:100900008F778093B000D9CF8091B0008F7DF9CFE1
:10091000809190008F7780939000CFCF809190004E
:100920008F7DF9CF80919000877FF5CF8091A000D7
:100930008F778093A000C1CF8091A0008F7DF9CFE9
:100940008091A000877FF5CF809120018F778093E1
:100950002001B3CF809120018F7DF9CF80912001BC
:10096000877FF5CF4E2BB8CFCF93DF9390E0FC017C
:10097000EC59FD4F2491825E9D4FFC0184918823A8
:10098000C9F090E0880F991FFC01E651FE4FA59138
:10099000B491FC01EC5FFD4FC591D49161110DC084
:1009A0009FB7F8948C91209582238C93888128237B
:1009B00028839FBFDF91CF910895623051F49FB794
:1009C000F8943C91822F809583238C93E8812E2B81
:1009D000EFCF8FB7F894EC912E2B2C938FBFEACFEB
:1009E0001F93CF93DF93182FEB0161E00E94B404B3
:1009F000209739F460E0812FDF91CF911F910C9403
:100A00002804CF3FD10511F461E0F5CFE12FF0E0EC
:100A1000E655FD4FE491E150E23108F0B3C0F0E05B
:100A20008827EA5EFA4F8F4F0C94773A28053005F5
:100A300035053F054905C20553055B0563056D0591
:100A40007705810590059A05C205A405AE05B80590
:100A500084B5806884BDC7BDDF91CF911F91089593
:100A600084B5806284BDC8BDF7CF80918000806866
:100A700080938000D0938900C0938800EDCF80914F
:100A80008000806280938000D0938B00C0938A00A6
:100A9000E3CF80918000886080938000D0938D00A8
:100AA000C0938C00D9CF8091B00080688093B00053
:100AB000C093B300D1CF8091B00080628093B0002A
:100AC000C093B400C9CF809190008068809390005B
:100AD000D0939900C0939800BFCF8091900080621E
:100AE00080939000D0939B00C0939A00B5CF8091E3
:100AF0009000886080939000D0939D00C0939C00EC
:100B0000ABCF8091A00080688093A0008091A0006E
:100B10008F7B8093A000D093A900C093A8009CCFA6
:100B20008091A00080628093A000D093AB00C0931E
:100B3000AA0092CF8091A00088608093A000D093FB
:100B4000AD00C093AC0088CF809120018068809375
:100B50002001D0932901C09328017ECF80912001EC
:100B6000806280932001D0932B01C0932A0174CF1F
:100B700080912001886080932001D0932D01C09343
:100B80002C016ACFC038D1050CF03ECF33CF86336D
:100B900008F0865320917B00982F9870277F922B26
:100BA00090937B008770806480937C0080917A00B2
:100BB000806480937A0080917A0086FDFCCF8091DA
:100BC00078009091790008953FB7F8948091570488
:100BD00090915804A0915904B0915A0426B5A89B4D
:100BE00005C02F3F19F00196A11DB11D3FBFBA2FBF
:100BF000A92F982F8827BC01CD01620F711D811D7F
:100C0000911D42E0660F771F881F991F4A95D1F703
:100C100008958F929F92AF92BF92CF92DF92EF9200
:100C2000FF924B015C010E94E4056B017C010E9474
:100C3000E4056C197D098E099F09683E73408105A2
:100C40009105A8F321E0821A9108A108B10888EE65
:100C5000C80E83E0D81EE11CF11C81149104A1048C
:100C6000B10429F7FF90EF90DF90CF90BF90AF9045
:100C70009F908F9008950895AF92BF92CF92DF9288
:100C8000EF92FF920F931F93CF93DF936B017A0143
:100C9000EC01CE5ADB4F28813CE0389F8001399F20
:100CA000100D1124A0900506B12C27FF1FC0FB01D9
:100CB0001182108288818F5F888388819801280F34
:100CC000311D87FD3A95F6012A153B051CF48881F4
:100CD0008C30C4F180819181049680349C4908F461
:100CE00073C0F60180819181049670C0888198015B
:100CF000280F311D87FD3A952A153B05DCF68881C2
:100D0000A801480F511D87FD5A95FA01EE0FFF1FEC
:100D1000E40FF51FEB58FA4F808186FFCBCF888117
:100D2000F801E80FF11D87FDFA95CF01EE0FFF1FC7
:100D3000E80FF91FEB58FA4F808160E08F730E9433
:100D40002804B8CF808191812881A801420F511DCC
:100D500027FD5A959A01FA01EE0FFF1FE20FF31FCC
:100D6000EB58FA4F21813281820F931FF701918353
:100D7000808388819801280F311D87FD3A95F901FC
:100D8000EE0FFF1FE20FF31FEB58FA4F808186FF33
:100D900022C08881080F111D87FD1A95F801EE0FFA
:100DA000FF1FE00FF11FEB58FA4F808161E08F7356
:100DB000DF91CF911F910F91FF90EF90DF90CF9037
:100DC000BF90AF900C94280480E49CE9F7019183D4
:100DD00080838FEF8883DF91CF911F910F91FF90D8
:100DE000EF90DF90CF90BF90AF9008950895089551
:100DF00020912F04260F3327331F21323105ECF4C5
:100E00002091AE04FC0190E080E0243069F082E0A3
:100E10000895A0912F042191AC01415F5B4FA40F75
:100E2000B52FB11D2C930196861798F380912F044E
:100E3000680F60932F0480E0089581E00895109278
:100E4000AE0481E08093AD041092880461E084E1F7
:100E50000E94280461E085E10E942804E9EBF0E0AB
:100E600080818E7F808380818D7F808388E48093E2
:100E7000B80085E48093BC00089510926704109236
:100E800066041092B5041092D7040E941F0782EFE7
:100E900091E0909365048093640483EF91E09093D4
:100EA0006304809362040895CF93DF9391E090935D
:100EB0000E048823B9F0C091B800D091BA00809197
:100EC000BC008A7B8093BC0060E084E10E9428041F
:100ED00060E085E10E9428040E941F07D093BA00B9
:100EE000C093B800DF91CF9108958F929F92AF92F7
:100EF000BF92CF92DF92EF92FF920F931F93CF9307
:100F0000DF93D091D704D13208F0D7C0182FC09109
:100F1000D6040E94E4056B017C018091AE0481112E
:100F20006BC082E08093AE041093AD048FEF80938A
:100F3000AC041092AB04D093AA04A6EBB4E0EAE8A8
:100F4000F4E080E0D81391C0109289048091890464
:100F5000CC0FC82BC093890480918804813009F09C
:100F600088C0109288040E94E4056B017C01809186
:100F700089048093BB008091B0049091B104A0914A
:100F8000B204B091B304892B8A2B8B2BA1F00E9461
:100F9000E4050091B0041091B1042091B2043091A5
:100FA000B3046C197D098E099F09061717072807D6
:100FB000390708F442C08091BC0083FDD8CF85EC8E
:100FC0008093BC000E94E4056B017C018091AE041B
:100FD000823009F450C08091AC048F3F09F46FC097
:100FE0008091AC04803209F46CC08091AC048033F1
:100FF00009F469C084E026C08091B0049091B104E6
:10100000A091B204B091B304892B8A2B8B2B09F4E5
:1010100084CF0E94E4058090B0049090B104A09029
:10102000B204B090B3046C197D098E099F0986162D
:101030009706A806B90608F070CF8091AF040E9409
:10104000540785E01092B5041092D7041092B404AE
:10105000DF91CF911F910F91FF90EF90DF90CF9094
:10106000BF90AF909F908F9008959D9191938F5FC7
:1010700069CF85EEA5CF8091B0049091B104A09185
:10108000B204B091B304892B8A2B8B2B09F49ECF29
:101090000E94E4050091B0041091B1042091B204C3
:1010A0003091B3046C197D098E099F090617170743
:1010B0002807390708F08ACFC0CF81E0C3CF80E08E
:1010C000C1CF82E0BFCF83E0BDCF8F929F92AF921E
:1010D000BF92CF92DF92EF92FF920F931F93CF9325
:1010E000DF936A014801E70191E09093B404809393
:1010F000D6041092B5041092D704E881F9810190CA
:10110000F081E02DC70119958C0C9D1CC814D904E1
:1011100059F0E881F9810190F081E02DD6016D91BF
:101120006D01CE011995F2CF81E00E94750790E024
:1011300080E0DF91CF911F910F91FF90EF90DF90B2
:10114000CF90BF90AF909F908F900895EF92FF92B5
:101150000F931F93CF93DF931F921F92CDB7DEB7EC
:10116000FC01EF5BFE4F70813496E080F1804A8392
:10117000598302E010E020E030E0AE014F5F5F4FA6
:10118000872F0E946508892B51F08CEE0F900F90ED
:10119000DF91CF911F910F91FF90EF90089580E024
:1011A000F5CFEF92FF920F931F93CF93DF931F9290
:1011B000CDB7DEB7FC01EF5BFE4F70813496E08067
:1011C000F180498301E010E020E030E0AE014F5FA4
:1011D0005F4F872F0E946508892B49F08CEE0F9096
:1011E000DF91CF911F910F91FF90EF90089580E0D4
:1011F000F6CFEF92FF920F931F93AB01FC01EB5BD5
:10120000FE4FE080F1808F5B9E4F06E010E020E013
:1012100030E060EBFC0180810E946508892B31F091
:101220008CEE1F910F91FF90EF90089580E0F9CF21
:101230008F929F92AF92BF92CF92DF92EF92FF92E6
:101240000F931F93CF93DF93D82FC62F142F6132A4
:1012500008F09CC00E94E4056B017C018091AE0403
:1012600081116FC081E08093AE041093AD049FEFB5
:101270009093AC041092AB049C0F9093AA048093BB
:10128000890480918904DD0FD82BD0938904809143
:101290008804813009F07CC0109288040E94E40523
:1012A0006B017C01809189048093BB008091B00424
:1012B0009091B104A091B204B091B304892B8A2B10
:1012C0008B2BA1F00E94E4050091B0041091B104B1
:1012D0002091B2043091B3046C197D098E099F09E5
:1012E000061717072807390708F44CC08091BC007F
:1012F00083FDD8CF85EC8093BC000E94E4056B0190
:101300007C018091AE04813009F444C08091AB042B
:101310008C1710F4C091AB04EAE8F4E0A8E6B4E05E
:1013200080E08C1359C08C2FDF91CF911F910F91CA
:10133000FF90EF90DF90CF90BF90AF909F908F90F5
:1013400008958091B0049091B104A091B204B0913D
:10135000B304892B8A2B8B2B09F480CF0E94E405E0
:101360008090B0049090B104A090B204B090B30407
:101370006C197D098E099F0986169706A806B9067D
:1013800008F06CCF8091AF040E945407C0E0CBCF2F
:1013900085EEB1CF8091B0049091B104A091B204D8
:1013A000B091B304892B8A2B8B2B09F4AACF0E940E
:1013B000E4050091B0041091B1042091B204309181
:1013C000B3046C197D098E099F09061717072807B2
:1013D000390708F096CFD6CF91919D938F5FA1CF1B
:1013E0000895E091670480916604E81730F4F0E016
:1013F000E859FB4F808190E008958FEF9FEF0895AB
:1014000090916704809166042FEF3FEF981748F49E
:10141000E92FF0E0E859FB4F208130E09F5F909387
:101420006704C90108958091660490916704891B3F
:10143000990B0895CF92DF92EF92FF920F931F9333
:10144000CF93DF937C01CB018A012091B404222346
:1014500089F0EB016B01C40ED51ECC15DD0569F0DA
:101460006991D701ED91FC910190F081E02DC701C8
:101470001995F3CF642F0E94F806C801DF91CF9130
:101480001F910F91FF90EF90DF90CF900895CF9331
:10149000DF931F92CDB7DEB769832091B404222376
:1014A000F9F02091D704203258F021E030E0FC011F
:1014B0003383228390E080E00F90DF91CF910895F5
:1014C0008091B504E82FF0E0EA54FB4F99819083B6
:1014D0008F5F8093B5048093D70481E090E0ECCFD8
:1014E00061E0CE0101960E94F806F7CF90E080E01F
:1014F0000895CF93DF93EC018B818823A1F088813D
:1015000091E09093B4048093D6041092B5041092A5
:10151000D70481E00E94750791E0811190E0892F46
:10152000DF91CF9108950E943D0781E08B83CE012A
:101530000E94790A982F8111E2CFF1CFCF92DF92EA
:10154000EF92FF921F93CF93DF93EC016A017B012F
:1015500068817981072E000C880B990B0E940C374B
:10156000A70196010E946B376B017C011A8120E074
:1015700030E0A9010E94ED391816DCF520E030E0DA
:101580004FE753E4C701B6010E94ED39181634F451
:10159000C12CD12C9FE7E92E93E4F92EC701B601A7
:1015A0000E9478396B018E819F81892B99F061E0CF
:1015B000812F0E94280460E08C810E942804B601DB
:1015C0008E81DF91CF911F91FF90EF90DF90CF90B0
:1015D0000C94F004B601812F0E94F00460E08C812D
:1015E000DF91CF911F91FF90EF90DF90CF900C94FF
:1015F000280420E030E0A901C701B6010E940537A8
:1016000087FF26C020E030E04FE753ECC701B6016A
:101610000E94053787FF06C0C12CD12C8FE7E82E2A
:1016200083ECF82EC701B60190580E9478396B01FF
:101630008E819F8160E0892B29F0812F0E942804F0
:1016400061E0BACF812F0E942804B6018C81B9CF06
:101650006885812F0E9428046885C1CFCF93DF93CE
:10166000C7E4DAE040E050E0BA018C899D890E942D
:101670009E0A40E050E0BA018E899F890E949E0A2E
:1016800040E050E0BA018A8D9B8D0E949E0A40E0A6
:1016900050E0BA01888D998DDF91CF910C949E0A0C
:1016A000FC0101900020E9F73197AF01481B590B6D
:1016B000BC0188ED94E00C94F4020F931F93CF9338
:1016C000DF938C01D0E0C0E0F801EC0FFD1F6491C6
:1016D000662341F088ED94E00E948A03892B11F083
:1016E0002196F2CF8BE493E00E94500B8C0F9D1F4C
:1016F000DF91CF911F910F910895CF93DF93D0E0A9
:10170000C0E0009719F00E94500BEC018BE493E0CD
:101710000E94500B8C0F9D1FDF91CF9108951F9356
:10172000CF93DF93DC011496ED91FC91E417F5075C
:1017300010F490E01FC0122FEA01FC018181928118
:10174000208131E03093B4042093D6041092B50484
:101750001092D704DC01ED91FC910280F381E02D21
:101760001995C817D90729F7812F0E94750791E0AD
:101770008111DFCF892FDF91CF911F910895CF93F2
:10178000DF931F921F92CDB7DEB789836A8321E072
:1017900042E050E0BE016F5F7F4F8091C1099091A0
:1017A000C2090E948F0B0F900F90DF91CF91089587
:1017B000CF93DF931F921F92CDB7DEB76068698326
:1017C0004A8321E042E050E0BE016F5F7F4FFC01A1
:1017D000808191810E948F0B0F900F90DF91CF91AC
:1017E00008958F929F92AF92BF92DF92EF92FF92F5
:1017F0000F931F93CF93DF93D82EEA01480181E026
:101800008093B404D092D6041092B5041092D704F9
:10181000D701ED91FC910190F081E02DC701199560
:1018200081E00E94750741E0602F8D2D0E9418090C
:1018300010926704809366048C0E9D1EC815D9050E
:1018400051F0D701ED91FC910284F385E02DC701A1
:1018500019958993F3CF90E080E0DF91CF911F91AC
:101860000F91FF90EF90DF90BF90AF909F908F907F
:1018700008952F923F924F925F926F927F928F9234
:101880009F92AF92BF92CF92DF92EF92FF920F930F
:101890001F93CF93DF93CDB7DEB72F970FB6F89492
:1018A000DEBF0FBECDBF9C878B876D875F874E875E
:1018B0003901170128012F82388649865A8610E09F
:1018C00000E0EE24E394F12C0A151B0509F461C035
:1018D0009E01295F3F4FB201A1018E859F850E9425
:1018E00073024F81588569857A854F3F2FEF5207E4
:1018F0006207720709F49CC0DB01CA018C549F4F38
:10190000AF4FBF4FE6E0B695A79597958795EA95B7
:10191000D1F7880F991F880F991F875F9C4F21E08F
:10192000FC0180819181A281B381892B8A2B8B2B31
:1019300009F420E0FD85F2137BC01A012B0133E08E
:1019400056944794379427943A95D1F7DB01CA010E
:1019500087709927AA27BB2726E022163104410465
:10196000510468F4F301E20DF31D970102C0220F48
:10197000331F8A95E2F7C9019081892B80831A0170
:101980002B013FEF231A330A430A530A0F5F1F4FFD
:101990009BCFB12CF4012082318242825382B1105C
:1019A0002DC0B3018B859C850E94F908B82E81114A
:1019B00025C0EB85FC85EB5BFE4FE080F180EB857D
:1019C000FC85EF5BFE4F06E010E020E030E0AE016A
:1019D0004F5F5F4F60EB80810E94F10B892B11F00C
:1019E0009CEEB92EF301DE011196C30106963191EA
:1019F0002D91321320C0E817F907C9F78B2D2F96C8
:101A00000FB6F894DEBF0FBECDBFDF91CF911F910F
:101A10000F91FF90EF90DF90CF90BF90AF909F908D
:101A20008F907F906F905F904F903F902F90089590
:101A30002EECB22EAFCF8EECB82EE0CFCF92DF924D
:101A4000EF92FF920F931F93CF93DF9300D01F92DB
:101A5000CDB7DEB76A01FC01EB5BFE4FE080F180A1
:101A60008F5B9E4F04E010E020E030E0AE014F5F5E
:101A70005F4FFC0180810E94F10B49815A815427FC
:101A80004527542770E060E0762F652F542F4427B8
:101A90002B81422B762F652F542F44272C81422BEC
:101AA000F6014083518362837383892B71F480E054
:101AB0000F900F900F900F90DF91CF911F910F918A
:101AC000FF90EF90DF90CF9008958CEEF1CFCF9202
:101AD000DF92EF92FF920F931F93CF93DF931F92AA
:101AE0001F92CDB7DEB76A01FC01EB5BFE4FE080D1
:101AF000F1808F5B9E4F02E010E020E030E0AE010D
:101B00004F5F5F4FFC0180810E94F10B29813A8178
:101B1000322723273227F60131832083892B61F472
:101B200080E00F900F90DF91CF911F910F91FF9068
:101B3000EF90DF90CF9008958CEEF3CFEF92FF926D
:101B40000F931F93CF93DF931F921F92CDB7DEB7F2
:101B50008C017A016330710509F449C090F4613059
:101B6000710509F162307105E1F1F80181A992A9CD
:101B7000A3A9B4A9F70180839183A283B38380E0F2
:101B800049C06630710588F7AE014F5F5F4F64E66C
:101B90000E94670D81113EC0298180E0922F990F2C
:101BA000B0E0A0E0E7CFAE014F5F5F4F64E40E947A
:101BB000670D81112FC0998120E0392F330FA901C2
:101BC00070E060E0232BD1F0F70140835183628302
:101BD0007383F80145AB56AB67AB70AF91E096A34A
:101BE00019C0FC0181AD92ADA3ADB4ADC3CFFC0172
:101BF000FD9680819181A281B381BCCFF80145A976
:101C000056A967A970ADF70140835183628373833E
:101C1000F80116A20F900F90DF91CF911F910F91B5
:101C2000FF90EF9008958F929F92AF92BF92CF92C4
:101C3000DF92EF92FF920F931F93CF93DF931F9248
:101C40001F92CDB7DEB7962ED42E822EFC01EF5B0D
:101C5000FE4FC0805C012BEBA21A2EEFB20AF501F9
:101C6000E080F18001E010E020E030E0AE014E5F66
:101C70005F4F8C2D0E94F10B892BA9F42A812D2115
:101C800028292A83F501E080F180298301E010E012
:101C900020E030E0AE014F5F5F4F692D8C2D0E9438
:101CA0006508892B81F08CEE0F900F90DF91CF911A
:101CB0001F910F91FF90EF90DF90CF90BF90AF906A
:101CC0009F908F90089580E0EFCFEF92FF920F9357
:101CD0001F93FC01EB5BFE4FE080F1808F5B9E4F1A
:101CE00001E010E020E030E0FC0180810E94F10B77
:101CF000892B31F08CEE1F910F91FF90EF9008959A
:101D000080E0F9CFEF92FF920F931F93CF93DF9371
:101D10001F92CDB7DEB77C0100E041E06BE0C70168
:101D20000E94D108182F40E06BE0C7010E94D10843
:101D3000182BAE014F5F5F4F63E1C7010E94650E34
:101D4000812B0F5F9981977061F0033061F08823D8
:101D500021F30F90DF91CF911F910F91FF90EF90A2
:101D600008950330B1F784EFF4CF0F931F93CF930F
:101D7000DF931F92CDB7DEB78A01AE014F5F5F4F91
:101D8000613081F060E50E94650E811105C0998186
:101D90009F5F990FF80190830F90DF91CF911F9172
:101DA0000F91089560E7EFCFCF92DF92EF92FF920D
:101DB0001F93CF93DF931F92CDB7DEB77C0140E036
:101DC00063E80E94D108182F811117C0D12CC12CB3
:101DD000AE014F5F5F4F63E8C7010E94650E182F89
:101DE000898181110AC0111108C08FEFC81AD80A61
:101DF00088ECC816D10461F719EF41E063E8C70128
:101E00000E94D108812B0F90DF91CF911F91FF90FD
:101E1000EF90DF90CF900895CF92DF92EF92FF92F4
:101E20000F931F93CF93DF931F92CDB7DEB77C0143
:101E300010E000E06C018EECC80ED11CF601808130
:101E4000AE014F5F5F4F8430A9F463E1C7010E9488
:101E5000650E9981292F2770987111F58823D9F083
:101E60000F90DF91CF911F910F91FF90EF90DF9036
:101E7000CF90089564E1C7010E94650E8111F0CFF3
:101E8000998190FDEDCF0F5F1F4F083C110531F098
:101E90000E944B02D3CF2430B1F7E2CF89EFE0CFDD
:101EA0008AEFDECFCF93DF93EC01462F416060E0F5
:101EB0000E94D108811111C0CE010E940C0F811126
:101EC0000CC0CE010E94820E811107C040E060E08C
:101ED000CE01DF91CF910C94D108DF91CF9108957D
:101EE0000F931F93CF93DF931F92CDB7DEB78B0174
:101EF0001982AE014F5F5F4F61E00E94650E811154
:101F000016C0998194FB332730F9F801308393FB95
:101F1000332730F9328392FB332730F9318396FB34
:101F2000222720F92383991F9927991F94830F90C3
:101F3000DF91CF911F910F9108952F923F924F9271
:101F40005F926F927F928F929F92AF92BF92CF9249
:101F5000DF92EF92FF921F93CF93DF9300D000D0D8
:101F600000D01F921F92CDB7DEB76C011A011B86FD
:101F70001F821E82623009F06EC0AE01465F5F4F65
:101F800060E00E94B50E182F811108C0AE01455FB8
:101F90005F4F66E4C6010E94650E182FAA85B0E067
:101FA00020E03FE24AE350E00E947A382B013C01F6
:101FB00024EF420E21E0521E611C711CCB84D12CF7
:101FC000F12CE12C8FEFC81AD80AE80AF80A98EE2B
:101FD000892E93E0992EA12CB12CC301B201A50149
:101FE00094010E943938CA01B901A70196010E94E3
:101FF00029386B017C01C301B20120ED37E040E0DC
:1020000050E00E943938C701B601620F731F841F68
:10201000951FA50194010E943938F1012083318375
:1020200042835383812F2B960FB6F894DEBF0FBEE9
:10203000CDBFDF91CF911F91FF90EF90DF90CF90B8
:10204000BF90AF909F908F907F906F905F904F90D8
:102050003F902F900895633009F043C0AE01465F72
:102060005F4F60E00E94B50E182F20E030E0A9011C
:102070008111D3CFAE01465F5F4F60E0C6010E9481
:10208000B50E182F811108C0AE014A5F5F4F61E5A0
:10209000C6010E94670D182FEE81FF81AA85B0E06E
:1020A00020E03FE24AE350E00E947A382B013C01F5
:1020B00024EF420E21E0521E611C711C6F01DD24D1
:1020C000F12CE12C04C0CC0CDD1CEE1CFF1CFA959D
:1020D000D2F78FEFC81AD80AE80AF80AEE24FF24CC
:1020E00076CFBE016F5F7F4F0E94700F8C81882377
:1020F00051F1AE01465F5F4F60E0C6010E94B50E30
:10210000182FF12CE12C81111BC0AE014A5F5F4FEB
:1021100061E5C6010E94670D182F2E813F81C9011C
:102120009927B0E0A0E004C0880F991FAA1FBB1F29
:102130003A95D2F70196A11DB11D7C01112329F01A
:10214000D12CC12C25C0F12CE12CAE01465F5F4F94
:1021500061E0C6010E94B50E182F8111F1CFAE01CA
:10216000485F5F4F61E7C6010E94670D182F288501
:102170003985C9019927B0E0A0E004C0880F991FF4
:10218000AA1FBB1F3A95D2F70196A11DB11D6C0184
:10219000AA85B0E020E03FE24AE350E00E947A38AE
:1021A0002B013C01E4EF4E0EE1E05E1E611C711C50
:1021B00088EE882E83E0982EA12CB12CC301B201A9
:1021C000A50194010E943938D601AE19BF090E94B9
:1021D0007A380FCF4F925F926F927F92BF92CF92D9
:1021E000DF92EF92FF920F931F93CF93DF9300D074
:1021F0001F92CDB7DEB78A01AE014F5F5F4F0E94DD
:102200009D0FB82E81112AC069817A818B819C81B2
:1022100028EE422E23E0522E612C712CA301920154
:102220000E94393869017A019B01AC01AFEFBFEF21
:102230000E947A386C507E4F8F4F9F4FA3019201BE
:102240000E9439387601DD24CC24C20ED31EE41E50
:10225000F51EF801C082D182E282F3828B2D0F90AD
:102260000F900F900F90DF91CF911F910F91FF90E2
:10227000EF90DF90CF90BF907F906F905F904F90E6
:1022800008955F926F927F928F929F92AF92BF92CA
:10229000CF92DF92EF92FF920F931F93CF93DF9332
:1022A000CDB7DEB761970FB6F894DEBF0FBECDBFD6
:1022B0007C018B01FC018089FB018083AE014A5FB8
:1022C0005F4F68EFC7010E94670D582E81113AC118
:1022D000AE014F5F5F4F64E0C7010E941E0D582E94
:1022E000811130C12E813F812115310569F050E007
:1022F00040E069817A818B819C810E943938F801A4
:102300002683378340875187F80186819781A0858E
:10231000B185F701868B978BA08FB18FF80112865C
:10232000AE014F5F5F4F60E2C7010E94670D582EFC
:10233000811108C189819A81009709F01AC1F701BA
:10234000858D968DA78DB0A1F80185879687A78783
:10235000B08BF701128EAE014F5F5F4F68E2C7018D
:102360000E94670D582E8111EDC089819A819F705E
:102370008115F8E09F0708F090514AEF489F9001BF
:10238000499F300D1124C901330FAA0BBB0BF80173
:10239000818B928BA38BB48B5801F1E2AF0EB11CF1
:1023A000470125E2820E911C380185E1680E711CFF
:1023B000D12CC12CA501B601C7010E949E0D582E3B
:1023C0008111C0C0F40181914F01F30181933F015C
:1023D000FFEFCF1ADF0A24E0A20EB11C86E0C81678
:1023E000D10441F7AE014F5F5F4F61E0C7010E942A
:1023F000650E582E8111A6C08981F701E35EFE4F5C
:10240000808387FFCAC081E0F80181AFF80181AD08
:10241000F701E75BFF4F808380ED97E0A0E0B0E03D
:102420008A879B87AC87BD871E821F821886198684
:1024300086E39BE0A0E0B0E0F80182839383A4836D
:10244000B583BE016F5F7F4FC7010E94700F582E8A
:10245000811178C08981811107C08A81811104C0EE
:102460008B81882309F43EC0AE01465F5F4F62E076
:10247000C7010E949D0F8111C1C089818823A9F0E5
:102480008A859B85AC85BD85825B9D4FAF4FBF4FD5
:10249000F8014281538164817581840F951FA61FC5
:1024A000B71F82839383A483B5838B81882309F428
:1024B00077C08A859B85AC85BD858E549D4FAF4F77
:1024C000BF4F880F991FAA1FBB1FF801428153817C
:1024D00064817581840F951FA61FB71F8283938324
:1024E000A483B5838C81811168C08D81882301F11B
:1024F000AE01425F5F4F64E0C7010E949D0F8E8472
:102500009F84A888B988F6E28F0EF2E09F1EA11C76
:10251000B11CF8014281538164817581480D591DB8
:102520006A1D7B1D4283538364837583811166C05A
:10253000F80182819381A481B581F701828B938B0D
:10254000A48BB58B852D61960FB6F894DEBF0FBEB8
:10255000CDBFDF91CF911F910F91FF90EF90DF9052
:10256000CF90BF90AF909F908F907F906F905F9033
:10257000089533E0880F991F3A95E1F7B0E0A0E0A5
:10258000F80185879687A787B08BF701858F968F8F
:10259000A78FB0A381E0828FDECEF80111AE36CFD7
:1025A0008A81882309F49ECF8A859B85AC85BD8569
:1025B0008C569D4FAF4FBF4F88CFAE014A5F5F4FE4
:1025C00063E0C7010E949D0F8E809F80A884B9841C
:1025D000F4E98F0EF2E09F1EA11CB11CF8014281AC
:1025E000538164817581480D591D6A1D7B1D42838D
:1025F000538364837583882309F477CF582EA2CF41
:102600005F926F927F928F929F92AF92BF92CF9282
:10261000DF92EF92FF920F931F93CF93DF937C0192
:102620003A01690120E041E050E00E948F0B582EF2
:10263000882309F444C010E000E00C151D0508F0E3
:102640003FC0D70114968D919C91E601C01BD10B20
:102650008C179D0708F4EC0141E0C6018C1B9D0B13
:102660000817190708F440E06C2FC13208F060E247
:10267000F70180810E941809109267048093660414
:102680008C171D06E1F44301800E911E5401C50113
:10269000881999098C179D0778F4D70111968D91A7
:1026A0009C91DC01ED91FC910284F385E02D19955C
:1026B000F50181935F01EBCF0C0F1D1FBECF512C95
:1026C000852DDF91CF911F910F91FF90EF90DF90BB
:1026D000CF90BF90AF909F908F907F906F905F90C2
:1026E0000895CF93DF931F92CDB7DEB7198221E013
:1026F00030E0AE014F5F5F4FBA018091C109909108
:10270000C2090E94001389810F90DF91CF91089533
:10271000CF93DF931F921F92CDB7DEB71A82198233
:102720006068698322E030E0AE014F5F5F4FBA011D
:10273000FC01808191810E94001389819A810F9010
:102740000F90DF91CF910895FC012FB7F8948091FD
:102750005E0490915F04A0916004B09161042FBF6A
:1027600082839383A483B58380818130B9F020F084
:10277000833031F1862F089581810E94C705BC0105
:102780006B5071098CE198E00E94633A633010F459
:1027900063E0F0CF603270F36FE1ECCF81810E9493
:1027A000C705BC016451710980EC92E10E94633A53
:1027B000693010F469E0DECF6235E0F261E5DACF2E
:1027C00081810E94C705BC01990F880B990B0E945B
:1027D0000C3729E23CE547E851E40E9494389B011C
:1027E000AC0160E078ED83E196E40E9406390E9436
:1027F0007F39633110F463E1BDCF683908F4BACF93
:1028000067E9B8CFCF93DF9310920C0A10920B0AAE
:1028100010920E0A10920D0AD0E0C0E02091FD093E
:102820003091FE09C217D3070CF075C080910F0AD2
:102830009091100A009721F58091F9099091FA0979
:102840000E94A41320910B0A30910C0A820F932F3F
:10285000911D90930C0A80930B0A8091FB09909133
:10286000FC090E94A41320910D0A30910E0A820FD8
:10287000932F911D90930E0A80930D0A2196CECF2F
:102880008A359105B1F48091EF099091F0090E9489
:10289000A41320910B0A30910C0A820F932F911DE3
:1028A00090930C0A80930B0A8091ED099091EE09A8
:1028B000D8CF843B9105B1F48091F3099091F4094C
:1028C0000E94A41320910B0A30910C0A820F932FBF
:1028D000911D90930C0A80930B0A8091F1099091BD
:1028E000F209BFCF8E30914049F68091F509909161
:1028F000F6090E94A41320910B0A30910C0A820F52
:10290000932F911D90930C0A80930B0A8091F709E5
:102910009091F809A6CF80910B0A90910C0AB90109
:102920000E94633A70930C0A60930B0A80910D0A1F
:1029300090910E0AB9010E94633A70930E0A609357
:102940000D0ADF91CF910895CF93DF931092040A7F
:102950001092030A1092060A1092050AD0E0C0E015
:102960002091FD093091FE09C217D3070CF075C004
:1029700080910F0A9091100A009721F58091F1093A
:102980009091F2090E94A4132091030A3091040A45
:10299000820F932F911D9093040A8093030A8091D4
:1029A000F3099091F4090E94A4132091050A309133
:1029B000060A820F932F911D9093060A8093050AB1
:1029C0002196CECF8A359105B1F48091F709909187
:1029D000F8090E94A4132091030A3091040A820F7F
:1029E000932F911D9093040A8093030A8091F50917
:1029F0009091F609D8CF843B9105B1F48091FB0901
:102A00009091FC090E94A4132091030A3091040ABA
:102A1000820F932F911D9093040A8093030A809153
:102A2000F9099091FA09BFCF8E30914049F6809113
:102A3000ED099091EE090E94A4132091030A3091B0
:102A4000040A820F932F911D9093040A8093030A26
:102A50008091EF099091F009A6CF8091030A90919F
:102A6000040AB9010E94633A7093040A6093030A4E
:102A70008091050A9091060AB9010E94633A709309
:102A8000060A6093050ADF91CF9108959F92AF9255
:102A9000BF92CF92DF92EF92FF920F931F93CF934B
:102AA000DF931F92CDB7DEB77C015B016A01922EE6
:102AB000198241E06FEF0E94D108182F40E060E0DA
:102AC000C7010E94D108182B40E06FEFC7010E9498
:102AD000D108182B992031F0A5016BECC7010E9499
:102AE000650E182B002341F0AE014F5F5F4F6EEE75
:102AF000C7010E94650E182B41E06FEFC7010E94CD
:102B0000D108182B41E060E0C7010E94D108182BC2
:102B100040E06FEFC7010E94D10899819F7EF601C6
:102B20009083812B0F90DF91CF911F910F91FF9098
:102B3000EF90DF90CF90BF90AF909F9008952F922D
:102B40003F924F925F926F927F928F929F92AF923D
:102B5000BF92CF92DF92EF92FF920F931F93CF938A
:102B6000DF93CDB7DEB769970FB6F894DEBF0FBE1F
:102B7000CDBF00ED17E020E030E00B871C872D87EC
:102B80003E871F86188A198A1A8A40322EE4520715
:102B900061057105E0F45CEFB52E8B2D69960FB6DB
:102BA000F894DEBF0FBECDBFDF91CF911F910F9183
:102BB000FF90EF90DF90CF90BF90AF909F908F905D
:102BC0007F906F905F904F903F902F9008954E8B25
:102BD0005F8B688F798F8C01BE016A5F7F4F0E9487
:102BE000700FB82E8111D9CFCE88DF88E88CF98C90
:102BF00088EEC81A88E0D80AE108F1088E818111B0
:102C000006C08F81811103C088858823C1F1AE0180
:102C1000455F5F4F62E0C8010E949D0F81110AC1AC
:102C20008E81882391F08B859C85AD85BE85825BE6
:102C30009D4FAF4FBF4F8C159D05AE05BF0508F0EA
:102C4000AACFC81AD90AEA0AFB0A8885882309F498
:102C500071C08B859C85AD85BE858E549D4FAF4FD1
:102C6000BF4F880F991FAA1FBB1F8C159D05AE056E
:102C7000BF0508F090CFC81AD90AEA0AFB0A89856D
:102C80008823D9F0AE01415F5F4F63E0C8010E9425
:102C90009D0F4F85588969897A894C565D4F6F4FD2
:102CA0007F4F4C155D056E057F0508F074CF8111CF
:102CB000C1C0C41AD50AE60AF70A8A85882309F42E
:102CC0006CCFBE016F5F7F4FC8010E94700F8C8177
:102CD0008823E9F1AE014B5E5F4F60E0C8010E94BE
:102CE000B50EB82E81111CC0AE014D5E5F4F61E57F
:102CF000C8010E94670DB82E8B899C891C01332462
:102D0000512C412C04C0220C331C441C551C9A9598
:102D1000D2F79FEF291A390A490A590ABB20C9F08C
:102D20008E899F89A88DB98DF801828B938BA48B96
:102D3000B58B33CF8F81882309F4A1CF8B859C85F8
:102D4000AD85BE858C569D4FAF4FBF4F8ECF312C7A
:102D5000212CAE014B5E5F4F61E0C8010E94B50EB1
:102D6000B82E8111DDCFA6E2CA1AA2E0DA0AE10884
:102D7000F108AD89B0E020E03FE24AE350E00E9474
:102D80007A384B015C01B4EF8B0EB1E09B1EA11CA5
:102D9000B11CA8EEB3E0A70196010E947A382B017E
:102DA0003C01C501B40120ED37E040E050E00E9455
:102DB0003938420E531E641E751EC501B40128EE3B
:102DC00033E040E050E00E943938C301B2010E9474
:102DD0003938220E331E21143104E1F04101B12CA7
:102DE000A12CE1E08E1A9108A108B10890E080E0E2
:102DF000B501A4014427452B462B472B31F0B6944F
:102E0000A794979487940196F3CF982F88271C0155
:102E1000280C391CA10161E7C8010E94A608B82E40
:102E200081117ECFF801E153FF4FC082D182E2824F
:102E3000F38276CFB82EB1CE7F928F929F92AF92CF
:102E4000BF92CF92DF92EF92FF920F931F93CF9397
:102E5000DF931F92CDB7DEB77C015B016A01722E52
:102E60004C0183EE881A8EEF980AF40110811982C2
:102E700041E061E0C7010E94D10881114AC060E4CD
:102E8000C7010E94520F811144C0F1E07F121AC0A5
:102E900000E021E0AE014F5F5F4FB501C7010E9426
:102EA0004615882389F00F90DF91CF911F910F91E4
:102EB000FF90EF90DF90CF90BF90AF909F908F905A
:102EC0007F900895F501108242E061E0C7010E9401
:102ED000D108811124C060E0C7010E94520F811106
:102EE0001EC0F1E07F1218C001E020E0A601BE0183
:102EF0006F5F7F4FC7010E9446158111D4CF412FCC
:102F000061E0C7010E94D1088111CDCFF401108387
:102F1000CACFF5011082C7CFF6011082F0CFF601BB
:102F2000F9CF2F923F924F925F926F927F928F9242
:102F30009F92AF92BF92CF92DF92EF92FF920F9348
:102F40001F93CF93DF93CDB7DEB7C354D1090FB62C
:102F5000F894DEBF0FBECDBF6C0124967FAF6EAF7D
:102F60002497FC01E35EFE4F40804AAE40EC61E0F6
:102F70000E94D108811145C0F601108A41E060E845
:102F8000C6010E94D10841E06FEFC6010E94D1083E
:102F900040E060E0C6010E94D108F601E95DFE4F05
:102FA000408161E9C6010E94D10841E060E0C601AC
:102FB0000E94D10840E06FEFC6010E94D10840E0B6
:102FC00060E8C6010E94D10841E060E0C6010E94AD
:102FD000D108811116C091E09983812C912C540164
:102FE000FFEF8F1A9F0AAF0ABF0A998190FF2BC08B
:102FF000811187C228EC82169104A104B104D9F48E
:1030000089EFCD5BDF4F0FB6F894DEBF0FBECDBFAB
:10301000DF91CF911F910F91FF90EF90DF90CF90B4
:10302000BF90AF909F908F907F906F905F904F90E8
:103030003F902F900895AE014F5F5F4F60E0C60153
:103040000E94650ECDCF38EC83169104A104B10423
:10305000B9F28111D6CFC6010E940C0F8111D1CFD8
:1030600083E0F601E15EFE4F8083B696E080F1805A
:103070000CE010E020E030E0AE01465E5F4F64E11E
:10308000349780810E94F10B892B11F08CEEB9CF1F
:103090006CA170E0762F66278DA0680D711D29A0A8
:1030A000312C322C2224330C4101B12CA12C8BA1C8
:1030B00090E0982F8827990F2C01712C612C229673
:1030C0004CAE5DAE6EAE7FAE22978C8D90E0982FA9
:1030D00088272D8D7C01E20EF11CF601E75CFE4F86
:1030E000208131817B971081283E43E03407C1F174
:1030F000629FC001639F900D729F900D11248C50B0
:103100009E4F68EE73E00E944F3AF601858D968DD2
:10311000A78DB0A1228D222319F1E89EA001E99E7E
:10312000500DF89E500D1124452F552724163506B5
:1031300041F460EE7AE8112309F49AC168EB72E277
:1031400012C09101DB010E94853821013501441A2A
:10315000550A61087108A30192010E943938B9012A
:10316000112309F485C13B017694679476946794A2
:103170007DAE6CAE762E7294770C770CF0EC7F22DD
:103180007BAE8A8D1FA61EA690E02C0173E055949D
:1031900047947A95E1F759AE48AE28AD2F7028AB29
:1031A000222309F469C188AD8D70853009F467C1A7
:1031B00031E03EAB822F8C50843008F01EAA41E0F3
:1031C0006FEFC6010E94D108811107C0AE01425DB8
:1031D0005F4F66EBC6010E94670D9EA520E0392F68
:1031E000330F2901712C612C49AA5AAA6BAA7CAA17
:1031F000811105C040E06FEFC6010E94D108F601C1
:10320000EE5CFE4F49A85AA86BA87CA84082518268
:1032100062827382811162C1F601F5A1FDABFF23C9
:1032200009F43CC1F601258D368D478D50A1828D64
:10323000882309F427C1D7010E947A389B01AC0189
:1032400020583F4F4F4F5F4F232F342F452F552787
:10325000280D391D4A1D5B1DA8EEB3E00E947A3887
:1032600070588F4F9F4FBC0188279927F601E65D64
:10327000FE4F672B682B692B09F008C18EEA97E88F
:10328000AFE8B2E080839183A283B3833EEA432E0A
:1032900037E8532E3FE8632E32E0732EAE01465DD1
:1032A0005F4F70E060E0C6010E949E0D4AA55BA5DD
:1032B0006CA57DA5411551056105710531F001E051
:1032C000441555056605770508F000E081110DC12C
:1032D000F601F7A1FFABFF2309F4E2C0AE014A5D9E
:1032E0005F4F62E070E0C6010E949E0D4EA15FA19B
:1032F00068A579A5411551056105710551F011E0E9
:1033000049A85AA86BA87CA84415550566057705F9
:1033100008F010E08111ECC0F601F0A5F9ABFF2335
:1033200009F4C0C0412C512C3201E114F10471F0B8
:10333000B10190E080E0982F872F762F66279701C4
:1033400050E040E00E94393829013A01AE014F5F58
:103350005F4F63E070E0C6010E949E0D49815A8173
:103360006B817C81411551056105710531F091E05A
:10337000441655066606770608F090E0882309F49F
:1033800092C080E04DA8411001C001E0F60136A1D5
:1033900003A7F8A9F43009F4D3C021E0311120E0EB
:1033A000F60124A74FA8411001C011E0F60115A7AE
:1033B00049A8411001C091E0F60196A799E1960154
:1033C000265B3F4FF901DE01119601900D929A950F
:1033D000E1F71D821E821F8218864CAC5DAC5A86B6
:1033E00049861C861B868D869E86AF86B88A229665
:1033F0004CAC5DAC6EAC7FAC2297498A5A8A6B8A22
:103400007C8AFE8AED8A5BAC588E898F89E1FE0149
:103410003196D90101900D928A95E1F7C6010E947B
:10342000820E8111EECD41E06FEFC6010E94D108FE
:103430008111E7CD24964EAD5FAD249766EBC601B2
:103440000E94670D8111DDCD40E06FEFC6010E9443
:10345000D1088111D6CD4AAD61E0C6010E94D108E4
:103460008111CFCDF601E35EFE4F6AAC6082C9CD1B
:103470007DAF6CAF1BAE85CE41E04EABA0CE51E030
:103480005EAB9DCE20E030E0A901E2CE1082118239
:1034900012821382412C512C320100CF00E018CF50
:1034A00010E03ACF90E02EA9213029F188A981506F
:1034B000833018F138A9363061F1393051F188ADD7
:1034C0008D708830E1F01130D1F0343081F19130DD
:1034D00049F1013049F1902F102F53CF1FAA1DAA97
:1034E00019AA00E090E010E04CCF1FAA19AAFACF69
:1034F00019AA90E046CF8FEF45CF85E043CF83E018
:1035000041CF28EC82169104A104B10409F079CDD1
:1035100077CD84E04DA8411039CFF60136A121E0E6
:1035200023A73BCF82E0F6CF192F81E0F3CF4DA840
:1035300082E041102BCF81E0F60183A710E082E00A
:1035400021E02ECF2F923F924F925F926F927F9207
:103550008F929F92AF92BF92CF92DF92EF92FF92A3
:103560000F931F93CF93DF93CDB7DEB7AC970FB612
:10357000F894DEBF0FBECDBF1C017FA36EA359A779
:1035800048A71F82188619861A861B861C861D86E8
:103590001E86198A1A8AFC01E85DFE4F208131815E
:1035A000398F288FAC014F5E5E4F5B8F4A8FDA01F7
:1035B0001C922C01BEEE4B1ABEEF5B0AF201108288
:1035C0003C01FDEE6F1AFEEF7F0AD3011C92FC0155
:1035D000EC5EFE4F1082319610823196108241E0EF
:1035E0006FEF0E94D1088B8B81111DC140E06FE409
:1035F000C1010E94D1088B8B811115C14CE26EE490
:10360000C1010E94D1088B8B81110DC140E06FEF89
:10361000C1010E94D1088B8B811105C144EB66EB7F
:10362000C1010E94D1088B8B8111FDC040E060E890
:10363000C1010E94D1088B8B8111F5C020E0AE0141
:103640004E5E5F4FBE016F5E7F4FC1010E941C172F
:103650008B8B8111E8C01F82188619861A86F101AA
:10366000E95EFE4FFD8FEC8F9E01295F3F4F4901C0
:10367000A3E0AA2EB12CC12CD12CE12CF12C870176
:103680002A8D3B8DAF0160E0C1010E94390C8B8B0C
:103690008111C9C04F81588569857A854C8B5D8BB6
:1036A0006E8B7F8BBE01615F7F4FC1010E949117BE
:1036B0008B8B8111B8C08F859889688D798D68173B
:1036C000790708F0D3C0AA8DBB8D1C92F20110823D
:1036D000D3011C923296108231961082319610825C
:1036E0008C899D89AE89BF898C549F4FAF4FBF4F46
:1036F000E6E0B695A79597958795EA95D1F7880F57
:10370000991F880F991F875F9C4FFC0180819181D1
:10371000A281B381892B8A2B8B2B91F42C893D8933
:103720004E895F892C3231054105510548F42F5FE0
:103730003F4F4F4F5F4F2C8B3D8B4E8B5F8BD0CFCE
:10374000AE01495F5F4F4A0173E0A72EB12CC12C37
:10375000D12CEC88FD880E891F892A8D3B8D4C8DDC
:103760005D8D61E0C1010E94390C811159C16F81E9
:10377000788589859A856C8B7D8B8E8B9F8BBE011E
:10378000615F7F4FC1010E949117811149C18F85EF
:103790009889A88DB98D11E063E0462E512C612CDB
:1037A000712CA817B90720F010E0412C512C3201E0
:1037B000C12CD12C7601C39460C0D501C4010196FF
:1037C000A11DB11D8C8B9D8BAE8BBF8B86E0EAA5B6
:1037D000FBA5ACA5B02F01900D928A95E1F74E8C18
:1037E0005F8C68A079A04AA35BA36CA37DA36FC084
:1037F0004E8C5F8C68A079A0AEA1BFA14D925D9266
:103800006D927C921397E8A5F9A51083F101EC5F06
:10381000FE4F81E0808332978C918083A8A5B9A563
:103820008C91319680838B89AC960FB6F894DEBF6D
:103830000FBECDBFDF91CF911F910F91FF90EF9001
:10384000DF90CF90BF90AF909F908F907F906F90C0
:103850005F904F903F902F900895BEECBB8BE3CFCD
:10386000EEECEB8BE0CFFEECFB8BDDCF10E0412CE0
:10387000512C3201C12CD12C76018F859889288D4D
:10388000398D8217930708F0B7CF46E0EA8DFB8D9C
:103890009E012F5F3F4FD90101900D924A95E1F7AC
:1038A000E88DF98D8E1B9F0BAC0170E060E04AA3A0
:1038B0005BA36CA37DA353E0452E512C612C712C8E
:1038C000B1016F5E7E4F7BA76AA72CA7032F9E01D5
:1038D000255F3F4F4C895D896E897F898C8D9D8DD9
:1038E0000E9473028B849C84AD84BE847FEF871614
:1038F0009706A706B70609F4B0CFD301C201019617
:10390000A11DB11D8E8F9F8FA8A3B9A3D501C4019E
:103910008C549F4FAF4FBF4F36E0B695A795979504
:1039200087953A95D1F7880F991F880F991F875F60
:103930009C4F11E0FC0180819181A281B381892B90
:103940008A2B8B2B09F410E0812F90E0B0E0A0E0EF
:103950008C159D05AE05BF0509F082CFD501C401C8
:1039600023E0B695A795979587952A95D1F7B50148
:10397000A401477055276627772786309105A10552
:10398000B10508F070CFEA8DFB8DE80FF91F21E03B
:1039900030E001C0220F4A95EAF78081822B8083B4
:1039A0006A8D7B8DC1010E94F908811139C0BE0169
:1039B000615F7F4FC1010E949117811131C08F85D6
:1039C0009889288D398DAC01421B530B82179307C0
:1039D00011F450E040E070E060E0A88DB98DA817C8
:1039E000B90708F0EACE8AA19BA1ACA1BDA18417BA
:1039F0009507A607B70708F0FBCEBE016F5F7F4FA4
:103A0000C1010E94F90896E0FE013196D101AF5E36
:103A1000BE4F01900D929A95E1F7882309F4ECCE00
:103A20008B8B01CF4F925F926F927F928F929F927A
:103A3000AF92BF92CF92DF92EF92FF92CF93DF933C
:103A4000CDB7DEB72C970FB6F894DEBF0FBECDBF53
:103A500029013A019B01AC0160E070E084EB93E442
:103A60000E94943860934F0A7093500A8093510AD1
:103A70009093520A4092530A5092540A6092550A07
:103A80007092560AC12CD12C2FE7E22E23E4F22E9D
:103A9000C092570AD092580AE092590AF0925A0AF4
:103AA0004092930A5092940A6092950A7092960AF4
:103AB00025E33AEF4EE85CE30E946B374B015C0173
:103AC0000E9401396B017C01C092970AD092980A3A
:103AD000E092990AF0929A0AC501B4010E94F23963
:103AE00069837A838B839C8360939B0A70939C0A7F
:103AF00080939D0A90939E0A20916F0A3091700ADC
:103B00004091710A5091720AC301B2010E946B3751
:103B10004B015C012091730A3091740A4091750A3F
:103B20005091760AC701B6010E946B379B01AC0128
:103B3000C501B4010E9495384B015C012091770AC0
:103B40003091780A4091790A50917A0A69817A8194
:103B50008B819C810E946B379B01AC01C501B40134
:103B60000E94953820E030E04FE753E40E946B3725
:103B70006D837E838F83988720917B0A30917C0AA6
:103B800040917D0A50917E0AC301B2010E946B37B9
:103B90004B015C0120917F0A3091800A4091810A9B
:103BA0005091820AC701B6010E946B379B01AC019C
:103BB000C501B4010E9495384B015C012091830A34
:103BC0003091840A4091850A5091860A69817A81F0
:103BD0008B819C810E946B379B01AC01C501B401B4
:103BE0000E94953820E030E04FE753E40E946B37A5
:103BF00069877A878B879C872091870A3091880A0A
:103C00004091890A50918A0AC301B2010E946B3720
:103C10004B015C0120918B0A30918C0A40918D0AF6
:103C200050918E0AC701B6010E946B379B01AC010F
:103C3000C501B4010E9495384B015C0120918F0AA7
:103C40003091900A4091910A5091920A69817A814B
:103C50008B819C810E946B379B01AC01C501B40133
:103C60000E94953820E030E04FE753E40E946B3724
:103C70004B015C012091630A3091640A4091650A0E
:103C80005091660AC301B2010E946B372B013C01BF
:103C90002091670A3091680A4091690A50916A0A36
:103CA000C701B6010E946B379B01AC01C301B20191
:103CB0000E9495386B017C0120916B0A30916C0A4F
:103CC00040916D0A50916E0A69817A818B819C8145
:103CD0000E946B379B01AC01C701B6010E94953869
:103CE00020E030E04FE753E40E946B37AB01BC01AA
:103CF00080915B0A90915C0A0E949E0A4D815E81D0
:103D00006F81788580915D0A90915E0A0E949E0A7B
:103D1000B501A4018091610A9091620A0E949E0AF5
:103D200049855A856B857C8580915F0A9091600AF0
:103D30002C960FB6F894DEBF0FBECDBFDF91CF91AA
:103D4000FF90EF90DF90CF90BF90AF909F908F90BB
:103D50007F906F905F904F900C949E0A0C941B3B49
:103D6000DF92EF92FF920F931F93CF93DF931F92F7
:103D7000CDB7DEB78C01FC0180819181009711F0F5
:103D80000E941B3B86E090E00E947F3A7C0189E222
:103D9000F701808386E096E092838183138280E23C
:103DA00090E095838483F801F182E0820E943D07D0
:103DB00081E0F7018383C7010E94790AF82E8111FF
:103DC0000BC0F12C8F2D0F90DF91CF911F910F9190
:103DD000FF90EF90DF90089582E9898321E030E041
:103DE000AE014F5F5F4FBA01F801808191810E945F
:103DF000001389818D3421F0843411F0803109F76A
:103E000081E0F8018283E5804E2D61E0C8010E94C7
:103E1000D80BF801E582E380D4808281811103C050
:103E2000C8010E94B01E4E2D6FE0C8010E94D80B41
:103E3000F801E382D48241E060E0C8010E94D80B1F
:103E400063E070E080E090E00E94090643E060E0FB
:103E5000C8010E94D80BF801858120E031E0281BC1
:103E600031094CE0429FC001439F900D112465E051
:103E700070E00E94633A6F5F7F4F072E000C880B43
:103E8000990B0E9409069ECF9F92AF92BF92CF924C
:103E9000DF92EF92FF920F931F93CF93DF93CDB7F3
:103EA000DEB7A0970FB6F894DEBF0FBECDBF6C0192
:103EB0002FEDC20ED11CF601A080F7E0F12CAF1659
:103EC00009F4EEC0B62E8C0141E060E80E94D108F2
:103ED000F82E41E06FEFC8010E94D108F82A40E0B7
:103EE00060E0C8010E94D108F82A46E06FEFC801DF
:103EF0000E94D108F82AAE01425E5F4F63E8C80114
:103F00000E94650EF82A4E8D446063E8C8010E9445
:103F1000D108F82A47E06FEFC8010E94D108F82ABB
:103F200041E061E8C8010E94D108F82A0E944B02D2
:103F3000F82A41E060E8C8010E94D108F82A21E08F
:103F4000B212C1C0A0FC02C24BE664E9C8010E94E3
:103F5000D108E82EC8010E94D40E8E29F82AAE019D
:103F6000465E5F4F60E9C8010E941E0DF82A8A8DE7
:103F70009B8DAC8DBD8D992EE89497F897FBEE2420
:103F8000E0F844E264E9C8010E94D108F82AC801B7
:103F90000E94D40EF82AAE01465E5F4F60E9C80168
:103FA0000E941E0DF82A8A8D9B8D2C8D3D8D3C8B99
:103FB0002D8B9E8B8F8B45E264E9C8010E94D1084E
:103FC000F82AC8010E94D40EF82AAE01465E5F4F5F
:103FD00060E9C8010E941E0DF82A8C8D9D8D988F76
:103FE000898F40E061E8C8010E94D108F82A46E0C4
:103FF0006FEFC8010E94D108F82AAE01425E5F4F00
:1040000063E8C8010E94650EF82A4E8D4B7F63E875
:10401000C8010E94D108F82A41E06FEFC8010E9450
:10402000D108F82A41E060E0C8010E94D108F82ACE
:1040300040E06FEFC8010E94D108F82A40E060E834
:10404000C8010E94D108F82A59F5F1E0BF1699F08D
:10405000A1FC23C0F801E052FF4F8F8D8083319681
:1040600088A18083BE016F5F7F4FC8018E519F4F33
:104070000E94A43B12C0A0FC10C0F801EE5FFE4FEE
:1040800090823196E082DE0154967496035E1E4F54
:104090008D9181930E171F07D9F7BA28F601B082C8
:1040A0008F2DA0960FB6F894DEBF0FBECDBFDF9167
:1040B000CF911F910F91FF90EF90DF90CF90BF9025
:1040C000AF909F900895A1FC41C142E064E9C8010E
:1040D0000E94D108E82EC8010E94D40E8E29F82A29
:1040E000AE01415E5F4F60E9C8010E94650EF82A8B
:1040F0004BE764E9C8010E94D108F82AC8010E9470
:10410000D40EF82AAE01405E5F4F60E9C8010E94FC
:10411000650EF82A47E764E9C8010E94D108F82A29
:10412000C8010E94D40EF82AAE01465E5F4F60E9D6
:10413000C8010E941E0DF82A4A8D5B8D6C8D7D8D05
:10414000DB01CA0129E1B695A795979587952A9530
:10415000D1F78983DB01CA0132E1B695A79597951E
:1041600087953A95D1F78F778A83DB01CA01EBE017
:10417000B695A79597958795EA95D1F78F778B8315
:10418000DB01CA01F4E0B695A79597958795FA9556
:10419000D1F78F778C83440F440F440F48774E8FAD
:1041A00048E764E9C8010E94D108F82AC8010E94C2
:1041B000D40EF82AAE01465E5F4F60E9C8010E9446
:1041C0001E0DF82A8A8D9B8DAC8DBD8DAC01BD0175
:1041D0002DE176956795579547952A95D1F72E8DC0
:1041E000240F2D83AC01BD0136E176956795579577
:1041F00047953A95D1F74F774E83AC01BD01EFE07B
:104200007695679557954795EA95D1F74F774F8300
:10421000292F2F772887AC01BD0176956795579593
:1042200047954F774987982F9295990F990F9074DA
:104230009E8F49E764E9C8010E94D108F82AC801A5
:104240000E94D40EF82AAE01465E5F4F60E9C801B5
:104250000E941E0DF82A8A8D9B8DAC8DBD8DAC0100
:10426000BD012AE176956795579547952A95D1F72F
:104270002E8D240F2A87AC01BD0133E17695679519
:10428000579547953A95D1F74F774B87AC01BD01CC
:10429000ECE07695679557954795EA95D1F74F7776
:1042A0004C87AC01BD01F5E076956795579547952C
:1042B000FA95D1F74F774D87982F990F990F9C77E3
:1042C0009E8F4AE764E9C8010E94D108F82AC80114
:1042D0000E94D40EF82AAE01465E5F4F60E9C80125
:1042E0000E941E0DF82A8A8D9B8DAC8DBD8DAC0170
:1042F000BD012EE176956795579547952A95D1F79B
:104300002E8D240F2E87AC01BD0137E17695679580
:10431000579547953A95D1F74F774F872A2F2F77A3
:10432000288BAC01BD01E9E07695679557954795D7
:10433000EA95D1F74F77498BF2E0B695A795979517
:104340008795FA95D1F78F778A8B1B8AE12C912C70
:1043500048CE2F923F924F925F926F927F928F92B0
:104360009F92AF92BF92CF92DF92EF92FF920F9304
:104370001F93CF93DF93CDB7DEB7C755D1090FB6E3
:10438000F894DEBF0FBECDBF3C01C62EAC01485B2A
:104390005E4F60965FAF4EAF6097DA01ED91FC9192
:1043A0001197EF5BFE4F89E28083ED91FC911197AD
:1043B000EE5BFE4F81E08083ED91FC911197ED5B08
:1043C000FE4F80E991E091838083ED91FC91EB5B5E
:1043D000FE4F86E096E0918380830E943D07230193
:1043E000BFEF4B1A5B0A21E04EEF69E8C2010E9461
:1043F000130E811105C040E068E8C2010E94D10897
:10440000FE01FB962A96FFAFEEAF2A97AF0160EC54
:10441000C2010E94650EF301E052FF4F108288EE48
:1044200093E0E65AFF4F9183808380E991E03296D2
:104430009183808385E89BE6A1E0B0E0329680839B
:104440009183A283B38384EA90E7A9E0B0E0E557C3
:10445000F10980839183A283B383D3015E961D9279
:104460001D921D921C929197FE0131962C96FFAFE2
:10447000EEAF2C97BF01C2010E944111082F81119C
:104480000BC019821A828AE3FE013196D30151963C
:1044900001900D928A95E1F784E690E0F301EE5DDC
:1044A000FE4F9183808384E893E0329691838083EA
:1044B00084EF91E032969183808380E09AE0339696
:1044C0009183808381E07096808341E060E8C2013F
:1044D0000E94D108182F41E06FEFC2010E94D1085D
:1044E000182B102B40E060E0C2010E94D108182B6D
:1044F000AE01415C5F4F61E9C2010E94650E182B5D
:104500008FADF301E85DFE4F808341E060E0C201C2
:104510000E94D108182B40E06FEFC2010E94D10821
:10452000182B40E060E8C2010E94D108912F982B1F
:10453000130110E000E0DD24D3947301F4E0EF0EEA
:10454000F11C9111B5C10330110509F491C07CF43F
:1045500001301105D1F00230110509F485C0D301F5
:104560009696DC92D1019696DC9280E020C00430D1
:10457000110509F480C020E04FEE0530110579F7F0
:1045800060E6C2010E94130E10C0F70142A953A9B0
:1045900064A975A9B9E07695679557954795BA9539
:1045A000D1F764E4C2010E94A6088823D9F20F5F04
:1045B0001F4FBFEF2B1A3B0A982F0630110509F049
:1045C000C0CF811169C0F30110A611A622E04EEF01
:1045D00060E6C2010E94130E81115EC0D3019A965B
:1045E0001C9220E14FEE60E6C2010E94130E811181
:1045F00053C0F30113A686A1811140C080E090E072
:10460000A2E1B0E082AB93ABA4ABB5ABD30197967C
:104610008C91811138C080E090E4A0E0B0E0F3011B
:1046200086AB97ABA0AFB1AF80E090E0A3E2B0E083
:1046300082AF93AFA4AFB5AFFE9610821182128203
:1046400013828FEFE052FF4F80834FEF61E0C20192
:104650000E94D10891E0F301E05EFE4F908381114A
:104660001BC07B97108218C0D3019896DC927ACF3A
:10467000F301D1A677CF20E04EEF82CF80E090E02B
:10468000A2E1B0E0BFCF40E250E064E4C2010E948A
:10469000A608882309F4BFCFD3018C934C2D6AE878
:1046A0006096EEADFFAD6097808191810E94D10848
:1046B000D3018C936AE070E080E090E00E940906EC
:1046C000F30180818111A8C16096AEADBFAD609746
:1046D000ED91FC91EF5BFE4FC08262E0C2010E944F
:1046E000441F811135C08301065B1E4FC3018657ED
:1046F0009E4FF301EF51FF4F20812111DBC06DE48C
:1047000073E00E94A43B6EE473E0C8010E94A43BE6
:1047100067E873E0C80180960E94A43BA301465558
:104720005E4F60ECC2010E94650E811111C0AE01A6
:104730004F5F5F4F62ECC2010E94650E91E0F30192
:10474000E555FE4F90833196998192959F709083A5
:10475000D3018C9381110DC0F301E555FE4F80818B
:10476000813021F431968081813019F08BEFF30193
:104770008083D3018C918111D1C06096EEADFFADE5
:104780006097408051808AE32C96AEADBFAD2C97E8
:104790001D928A95E9F725961FAE1EAE259728969D
:1047A0001FAE289727961FAE279723961CAE1DAEE7
:1047B0001EAE1FAE239761E0C2010E94441FF201AA
:1047C000ED5FFE4F3080B1E0B31508F498C031972B
:1047D0002080A22CB12CD12CC12C3B1289C0E1E24B
:1047E000AE16B104C104D10408F089C041E06FEFF6
:1047F000C2010E94D10881111AC040E06FE4C201D9
:104800000E94D108811113C04CE26EE4C2010E94E3
:10481000D10881110CC040E06FEFC2010E94D108A5
:10482000811105C044EB66EBC2010E94D1089201E0
:104830002F5E3E4FD9011C92F201EE5EFE4F1082B8
:104840003196108231961082319610823196108204
:10485000E12CF12C8701332009F4F9C0D801C701FC
:104860008C549F4FAF4FBF4FF6E0B695A7959795E5
:104870008795FA95D1F7880F991F880F991F875F41
:104880009C4FFC0180819181A281B381892B8A2B6D
:104890008B2B09F0DCC0FCE2EF16F10401051105D9
:1048A00009F4D5C04FEFE41AF40A0F4F1F4FD6CFCB
:1048B000892FF2CEF301EE51FF4FF080B3016D511D
:1048C0007F4F0E94A43BFF2009F41DCFB2E2BF1529
:1048D00040F0E0E26AE573E0FE1217CF66E673E0AF
:1048E00014CFF6E262E773E0FF1508F40ECFF6CFBF
:1048F000FDE0AF16B104C104D10408F477CFAE01D6
:104900004A5B5F4FBE01615C7F4FC2010E94A21AE9
:10491000B82EBB2009F4B1C0F301B082D3018C9151
:10492000811110C0AE014D5B5F4FBE016F5F7F4FC5
:104930006096EEADFFAD6097808191810E94A21AD2
:10494000D3018C93F3018081811111C021E0AE016C
:10495000455C5F4FBE01615C7F4F6096AEADBFAD01
:1049600060978D919C910E941C17F3018083D30165
:104970008C91811109C06096AEADBFAD6097ED918D
:10498000FC91108AF3011082D3018C91811140C0F7
:104990006096AEADBFAD6097ED91FC911197FF248D
:1049A000F394F5A2F30110820D911C91D801D596D4
:1049B0004D915D916D917C91D89799E07695679531
:1049C000579547959A95D1F764E4C8010E94A608C7
:1049D000811102C0F801F6A2D3018C93811118C095
:1049E0006096AEADBFAD6097ED91FC91119781E0FF
:1049F00080A7F3011082ED91FC91FD9684ED98E083
:104A0000A0E0B0E080839183A283B383D3011C92A2
:104A100081E0F3019081911180E0C95ADF4F0FB618
:104A2000F894DEBF0FBECDBFDF91CF911F910F91E4
:104A3000FF90EF90DF90CF90BF90AF909F908F90BE
:104A40007F906F905F904F903F902F900895CE0190
:104A5000CB964C01A201495E5E4F632DC2010E94BC
:104A6000390CB82E811155CF81E0F201EC5FFE4F79
:104A700080833297208231963082F201E85CFE4FCB
:104A800080818111DFC13297C080D18030E020E089
:104A90004201FBEB8F1AFEEF9F0AA2014F5B5E4FB4
:104AA0002E965FAF4EAF2E97C2018D5D9E4F6296E0
:104AB0009FAF8EAF6297D201AF5DBE4F6496BFAF1E
:104AC000AEAF6497F201EB5DFE4F6696FFAFEEAFBF
:104AD00066974951510968965FAF4EAF689703C01A
:104AE000ECEFBE2E9101F601E20FF31F00810023CF
:104AF00009F48DC0B11010CF19019FEF291A390A9E
:104B0000D601A20DB31D6C910F3F09F04FC01901E2
:104B1000A2E02A0E311CD601A20DB31D8C9161308A
:104B200029F198F0623099F16330D1F6190144E02F
:104B3000240E311C238190E0982F8827820F911D2D
:104B40006896AEADBFAD68971FC01901B4E02B0EDB
:104B5000311C238190E0982F8827820F911D649645
:104B6000EEADFFAD649791838083BCCF190144E023
:104B7000240E311C238190E0982F8827820F911DED
:104B80006296AEADBFAD62978D939C93ABCF19018A
:104B9000B4E02B0E311C238190E0982F8827820FE0
:104BA000911D6696EEADFFAD6697DDCF053008F03E
:104BB00097CF2E5F3F4FD601A20FB31FFE01FB968A
:104BC000202E312CCF012A964EAD5FAD2A97841B43
:104BD000950B821593051CF48D918193F3CF220ED2
:104BE000331ED401ED90FC9010E030E020E0AE01E7
:104BF000455C5F4F2E96EEADFFAD2E9780810E94F3
:104C00006508892B09F46ECF7CEEB72E6BCFB110FF
:104C100083CE44E06AE0C2010E94D108B82E81111F
:104C20007BCE20E04FEE64E8C2010E94130EB82E46
:104C3000811172CE84E0F201E253FF4F8083C20102
:104C40000E94820EB82E811167CE41E06FEFC20143
:104C50000E94D108B82EAE014D5B5F4F64E8C201DF
:104C60000E94670DB82A40E06FEFC2010E94D10890
:104C7000B82A09F051CEF201E853FF4F25968EADC8
:104C80009FAD259724E0880F991F2A95E1F7B0E0A2
:104C9000A0E080839183A283B383BE016F5F7F4FC7
:104CA000C2010E944111B82E811136CEAE01495B7E
:104CB0005F4F69E0C2010E94650EB82E81112CCEB3
:104CC00028968FAD2897817028968FAF2897F2018C
:104CD000E25EFE4F80838AE3FE013196D201509658
:104CE00001900D928A95E1F7AE01495B5F4F61E05B
:104CF000C2010E94650EB82E81110ECE8201035EA4
:104D00001E4F28968FAD2897D8018C931BAEAE010D
:104D1000455C5F4F61E0C2010E94650EB82E8111B3
:104D2000FBCD8BADF82EE894F4F884FF14C04F2D22
:104D300061E0C2010E94D108B82E8111EDCDF801C9
:104D4000F082D20152964D915D916D917C91559773
:104D5000C2010E949F151BAEAE01455C5F4F61E032
:104D6000C2010E94650EB82E8111D6CD8BADF82EF2
:104D7000E894F2F882FF14C04F2D61E0C2010E9456
:104D8000D108B82E8111C8CDF801F082D201529617
:104D90004D915D916D917C915597C2010E949F1537
:104DA00083E0F201E15EFE4F8083AE014B5B5F4F1B
:104DB00060E0C2010E94B50EB82E8111ADCD2696DD
:104DC0008FAD2697F201E852FF4F8083AE014B5B17
:104DD0005F4F61E0C2010E94B50EB82E81119CCDDB
:104DE00026968FAD2697F201ED52FF4F8083AE01DC
:104DF000455C5F4F63E0C2010E94EA10B82E81114A
:104E00008BCD8BAD9CADADADBEADF201EC52FF4F85
:104E100080839183A283B383AE01455C5F4F64E0DE
:104E2000C2010E94EA10B82E811176CDF201E15341
:104E3000FF4F8BAD9CADADADBEAD80839183A283A2
:104E4000B3836ACD80E0C82E82E0D82E1FCE8F9229
:104E50009F92AF92BF92CF92DF92EF92FF920F9309
:104E60001F93CF93DF93CDB7DEB763970FB6F89458
:104E7000DEBF0FBECDBF8B01FB01349620E2DF0108
:104E80001D922A95E9F744E250E060E070E0F801F5
:104E90004083518362837383DC0115964D915D914C
:104EA0006D917C911897448355836683778343E0A3
:104EB00050E060E070E040875187628773872FB7CA
:104EC000F89440915E0450915F0460916004709189
:104ED00061042FBF408B518B628B738B2CE0FE01E2
:104EE0003196DF011D922A95E9F7AE01435F5F4FCE
:104EF00026E0FA0111922A95E9F72AE12B8B26E0A8
:104F000030E0BE016D5E7F4FDC0113968D919C9168
:104F10000E9400136D857E85072E000C880B990B6F
:104F20000E940C3720E030E040E85DE30E946B37E0
:104F30004B015C016F857889072E000C880B990B5B
:104F40000E940C3720E030E040E85DE30E946B37C0
:104F50006B017C0169897A89072E000C880B990BFB
:104F60000E940C3720E030E040E85DE30E946B37A0
:104F7000F801848A958AA68AB78AC08ED18EE28E7D
:104F8000F38E648F758F868F978F81E063960FB64F
:104F9000F894DEBF0FBECDBFDF91CF911F910F916F
:104FA000FF90EF90DF90CF90BF90AF909F908F9049
:104FB00008950F931F93CF93DF938C01EB0188E249
:104FC000FB0111928A95E9F74BE050E06FE873E03E
:104FD000CE010E94AB3B1B8681E090E0A0E0B0E0F8
:104FE0008C879D87AE87BF87F80185819681A781D1
:104FF000B085888B998BAA8BBB8B83E090E0A0E077
:10500000B0E08C8B9D8BAE8BBF8B1CA21DA21EA211
:105010001FA2188E198E1A8E1B8E1C8E1D8E1E8E30
:105020001F8E8AE097EDA3E2BCE388A399A3AAA30D
:10503000BBA3DF91CF911F910F91089585ED8093D0
:10504000BC008091B0049091B104A091B204B091E1
:10505000B3040796A11DB11D23E0B695A7959795BA
:1050600087952A95D1F72091BC0024FD03C01092AA
:10507000AE0408954091B0045091B1046091B2041F
:105080007091B304452B462B472B69F30097A1057C
:10509000B10541F025E32A95F1F700000197A10938
:1050A000B109E1CF8091AF040C9454071F920F9285
:1050B0000FB60F9211240BB60F922F933F934F937D
:1050C0005F936F937F938F939F93AF93BF93EF9370
:1050D000FF9388ED94E00E946803FF91EF91BF91E8
:1050E000AF919F918F917F916F915F914F913F9180
:1050F0002F910F900BBE0F900FBE0F901F90189521
:105100001F920F920FB60F9211240BB60F922F938E
:105110008F939F93EF93FF93E091E804F091E9045C
:105120008081E091EE04F091EF0482FD1DC090813A
:105130008091F1048F5F8F732091F204821741F008
:10514000E091F104F0E0E852FB4F958F8093F10479
:10515000FF91EF919F918F912F910F900BBE0F9028
:105160000FBE0F901F9018958081F2CF1F920F9263
:105170000FB60F9211242F933F938F939F93AF936A
:10518000BF9380915E0490915F04A0916004B09100
:1051900061043091560423E0230F2D3758F5019612
:1051A000A11DB11D2093560480935E0490935F046B
:1051B000A0936004B09361048091570490915804C7
:1051C000A0915904B0915A040196A11DB11D80937C
:1051D000570490935804A0935904B0935A04BF9174
:1051E000AF919F918F913F912F910F900FBE0F9094
:1051F0001F90189526E8230F0296A11DB11DD2CF4E
:105200001F920F920FB60F9211240BB60F922F938D
:105210003F934F935F936F937F938F939F93AF933E
:10522000BF93EF93FF93E0910103F091020319956F
:10523000FF91EF91BF91AF919F918F917F916F916E
:105240005F914F913F912F910F900BBE0F900FBE2A
:105250000F901F9018951F920F920FB60F92112466
:105260000BB60F922F933F934F935F936F937F9360
:105270008F939F93AF93BF93EF93FF93E091FF02C0
:10528000F09100031995FF91EF91BF91AF919F911C
:105290008F917F916F915F914F913F912F910F90DF
:1052A0000BBE0F900FBE0F901F9018951F920F927C
:1052B0000FB60F9211240BB60F922F933F934F937B
:1052C0005F936F937F938F939F93AF93BF93EF936E
:1052D000FF93E091F502F091F6021995FF91EF919D
:1052E000BF91AF919F918F917F916F915F914F91FE
:1052F0003F912F910F900BBE0F900FBE0F901F90FC
:1053000018951F920F920FB60F9211240BB60F92A1
:105310002F933F934F935F936F937F938F939F93BD
:10532000AF93BF93EF93FF93E091F302F091F402F8
:105330001995FF91EF91BF91AF919F918F917F91BF
:105340006F915F914F913F912F910F900BBE0F90F6
:105350000FBE0F901F9018951F920F920FB60F92CD
:1053600011240BB60F922F933F934F935F936F933C
:105370007F938F939F93AF93BF93EF93FF93E091AE
:10538000FD02F091FE021995FF91EF91BF91AF914F
:105390009F918F917F916F915F914F913F912F914D
:1053A0000F900BBE0F900FBE0F901F9018951F927D
:1053B0000F920FB60F9211240BB60F922F933F93BB
:1053C0004F935F936F937F938F939F93AF93BF930D
:1053D000EF93FF93E091FB02F091FC021995FF918E
:1053E000EF91BF91AF919F918F917F916F915F915D
:1053F0004F913F912F910F900BBE0F900FBE0F90CA
:105400001F9018951F920F920FB60F9211240BB692
:105410000F922F933F934F935F936F937F938F934D
:105420009F93AF93BF93EF93FF93E091F902F091B5
:10543000FA021995FF91EF91BF91AF919F918F91D2
:105440007F916F915F914F913F912F910F900BBE84
:105450000F900FBE0F901F9018951F920F920FB6CE
:105460000F9211240BB60F922F933F934F935F939C
:105470006F937F938F939F93AF93BF93EF93FF931C
:10548000E091F702F091F8021995FF91EF91BF9129
:10549000AF919F918F917F916F915F914F913F91CC
:1054A0002F910F900BBE0F900FBE0F901F9018956D
:1054B0001F920F920FB60F9211240BB60F922F93DB
:1054C0003F934F935F936F937F938F939F93AF938C
:1054D000BF93EF93FF9348E251E064E271E090E004
:1054E00080E00E943C06FF91EF91BF91AF919F91A8
:1054F0008F917F916F915F914F913F912F910F907D
:105500000BBE0F900FBE0F901F9018951F920F9219
:105510000FB60F9211240BB60F922F933F934F9318
:105520005F936F937F938F939F93AF93BF93EF930B
:10553000FF9348EA50E064EA70E083E090E00E9464
:105540003C06FF91EF91BF91AF919F918F917F9119
:105550006F915F914F913F912F910F900BBE0F90E4
:105560000FBE0F901F9018951F920F920FB60F92BB
:1055700011240BB60F922F933F934F935F936F932A
:105580007F938F939F93AF93BF93EF93FF9348E9DC
:1055900050E064E970E082E090E00E943C06FF91F8
:1055A000EF91BF91AF919F918F917F916F915F919B
:1055B0004F913F912F910F900BBE0F900FBE0F9008
:1055C0001F9018951F920F920FB60F9211240BB6D1
:1055D0000F922F933F934F935F936F937F938F938C
:1055E0009F93AF93BF93EF93FF9348E850E064E835
:1055F00070E081E090E00E943C06FF91EF91BF9146
:10560000AF919F918F917F916F915F914F913F915A
:105610002F910F900BBE0F900FBE0F901F901895FB
:105620001F920F920FB60F9211240BB60F922F9369
:105630003F934F935F936F937F938F939F93AF931A
:10564000BF93EF93FF938091B900887F803609F470
:105650004DC008F040C0883209F4A9C028F5803157
:1056600009F49DC0C8F4882309F4FBC0883009F40C
:1056700096C0FF91EF91BF91AF919F918F917F91D4
:105680006F915F914F913F912F910F900BBE0F90B3
:105690000FBE0F901F901895883109F488C0803292
:1056A00041F78093AC0414C0803409F49DC040F4E9
:1056B0008033B9F38833E9F68093AC0485ECB0C04D
:1056C000803509F485C0883509F496C0883489F698
:1056D0000E941E28CECF883909F48CC038F588374F
:1056E00029F050F4883611F0803719F683E0809362
:1056F000AE041092510457C0883809F47BC0803939
:1057000019F0803809F0B5CF80915104803208F04B
:1057100071C0E091510481E08E0F8093510480911B
:10572000BB00F0E0EF5CFB4F80833DC0803B39F075
:10573000E0F4803A09F479C0883A09F09ACF84E01D
:105740008093AE041092300410922F04E091640410
:10575000F0916504199580912F0481110FC081E0AB
:1057600080932F0410920F0409C0803C09F4A6CF47
:10577000883C09F4A3CF883B09F07BCFE09130044B
:1057800081E08E0F80933004F0E0E15FFB4F808179
:105790008093BB009091300480912F0429C08091A8
:1057A00089048093BB0085EC8093BC0062CF90910C
:1057B000AB048091AA04981758F5E091AB0481E0FE
:1057C0008E0F8093AB04F0E0E657FB4F8081E9CF6A
:1057D000E091AB0481E08E0F8093AB048091BB001D
:1057E000F0E0E657FB4F80839091AB048091AA04D0
:1057F0009817C8F285E8D8CFE091AB0481E08E0F0E
:105800008093AB048091BB00F0E0E657FB4F8083B0
:105810008091AD0481115CCF81E08093880484EA9B
:105820008093BC001092AE0424CF85EC8093BC0022
:105830001092AE0480915104803230F4E091510412
:10584000F0E0EF5CFB4F10826091510470E0E0915A
:105850006204F091630481E394E01995109251047D
:1058600008CF1092AC0434CFCF93DF93EC01862F96
:105870006A837B835D834C833F832E8391E098878B
:105880002FEF3FEF3983288361E00E94B40461E089
:105890008C810E94B40461E08E81DF91CF910C94E1
:1058A000B4041092DB041092DA0488EE93E0A0E0D6
:1058B000B0E08093DC049093DD04A093DE04B09309
:1058C000DF042DE133E03093D9042093D80425EC94
:1058D00030E03093E5042093E40424EC30E030938E
:1058E000E7042093E60420EC30E03093E9042093B1
:1058F000E80421EC30E03093EB042093EA0422EC3E
:1059000030E03093ED042093EC0426EC30E030934B
:10591000EF042093EE041092F1041092F20410921E
:10592000F3041092F4041092090610920806809372
:105930000A0690930B06A0930C06B0930D068FE217
:1059400093E0909307068093060622E030E049E159
:1059500050E066E170E08AEB9AE00E94342C24E08B
:1059600030E04DE150E06AE170E081EB9AE00E94A6
:10597000342C25E030E04CE150E06BE170E088EA47
:105980009AE00E94342C23E030E048E150E067E1E7
:1059900070E08FE99AE00E94342C10924F0A109226
:1059A000500A1092510A1092520A1092530A109201
:1059B000540A1092550A1092560A1092570A1092E1
:1059C000580A1092590A10925A0A80E090E0A0E812
:1059D000BFE38093670A9093680AA093690AB09323
:1059E0006A0A40E050E060E87FEB40936B0A509316
:1059F0006C0A60936D0A70936E0A8093730A909399
:105A0000740AA093750AB093760A8093770A9093EC
:105A1000780AA093790AB0937A0A80937F0A9093C8
:105A2000800AA093810AB093820A4093830A50931C
:105A3000840A6093850A7093860A80938B0A9093F8
:105A40008C0AA0938D0AB0938E0A80938F0A90934C
:105A5000900AA093910AB093920A1092930A10921E
:105A6000940A1092950A1092960A1092970A109230
:105A7000980A1092990A10929A0A10929B0A109210
:105A80009C0A10929D0A10929E0A8DEC9CECACE44C
:105A9000BEE38093470A9093480AA093490AB093C3
:105AA0004A0A80934B0A90934C0AA0934D0AB093F4
:105AB0004E0A8AEB9AE090935C0A80935B0A81EB32
:105AC0009AE090935E0A80935D0A88EA9AE0909348
:105AD000600A80935F0A8FE99AE09093620A80934C
