:100000000C9459010C948A010C948A010C948A0175
:100010000C948A010C948A010C948A010C948A0134
:100020000C948A010C948A010C948A010C948A0124
:100030000C948A010C948A010C948A010C948A0114
:100040000C948A010C948A010C948A010C948A0104
:100050000C948A010C948A010C948A010C94500926
:100060000C948A010C941A090C94F0080C948A01DF
:100070000C948A010C948A010C948A010C948A01D4
:100080000C948A010C948A010C948A010C948A01C4
:100090000C948A010C948A010C948A010C949A099C
:1000A0000C948A010C948A010C948A010C948A01A4
:1000B0000C948A010C948A010C948A010C948A0194
:1000C0000C948A010C948A010C948A010C948A0184
:1000D0000C948A010C948A010C948A010C948A0174
:1000E0000C948A0105A84CCDB2D44EB93836A90279
:1000F0000C50B9918688083CA6AAAA2ABE00000026
:10010000803F0C94C9030C9442040C9459030C9442
:10011000EF030C9455030C9429030C94C5010C9423
:1001200015040C940B040C94E7030C94BA0A0C9479
:100130007B030C9440030C9448030C9471030C94BF
:100140006D030C9401020C9456040C94F2010C946F
:100150005B020C944C040C94DD030C944C030C9443
:1001600015020C9424040C9475030C9401040C9453
:1001700038040C9467030C942E030C94F7030C942E
:1001800044030C94D3030C9463030C947F030C94EA
:100190005F030C942E040C9423020C94C4030C945F
:1001A0004F030C94A8020C94BC0300000A0B020934
:1001B0000C0D0E0807030401000000000000000001
:1001C000000000000000000000000000000000002F
:1001D00000000000000012111000000000000000EC
:1001E000000000000000000000000000000000000F
:1001F00000002200250028002B002E0031003400D2
:1002000002010000050108010B010000210024008B
:1002100027002A002D0030003300010100000401F6
:1002200007010A0105050505070508080808020277
:1002300002020A0A08080404040401010101010180
:1002400001010303030303030303040707070C0C63
:100250000C0C0C0C0C0C020202020606060606062A
:1002600006060B0B0B0B0B0B0B0B010210202008CF
:100270000810204010204080020102010804020101
:100280000102040810204080804020100804020170
:1002900080040201804020100804020108040201C9
:1002A0000102040810204080010204081020408050
:1002B000BA0A11241FBECFEFD1E2DEBFCDBF00E0EE
:1002C0000CBF12E0A0E0B2E0E0EDFEE100E00BBF09
:1002D00002C007900D92A234B107D9F723E0A2E43F
:1002E000B2E001C01D92A53DB207E1F711E0C9E5FA
:1002F000D1E000E006C021970109802FFE010E9495
:100300005E0FC835D10780E00807A9F70E949D0B52
:100310000C94660F0C94000090E0FC01E659FD4F30
:1003200024918C5D9D4FFC018491882399F090E08D
:10033000880F991FFC01E65FFD4FA591B491FC0168
:10034000E051FE4F859194918FB7F894EC91E22B98
:10035000EC938FBF0895CF93DF93EC01862F6A83D0
:100360007B835D834C833F832E8391E098872FEFBF
:100370003FEF398328830E948C018C810E948C017D
:100380008E81DF91CF910C948C01AF92BF92CF926E
:10039000DF92EF92FF920F931F93CF93DF936C0145
:1003A0007B018B01040F151FEB015E01AE18BF0826
:1003B000C017D10759F06991D601ED91FC910190D8
:1003C000F081E02DC6011995892B79F7C501DF91E0
:1003D000CF911F910F91FF90EF90DF90CF90BF9042
:1003E000AF900895FC01538D448D252F30E0842F6C
:1003F00090E0821B930B541710F0CF96089501974D
:100400000895FC01918D828D981761F0A28DAE0F39
:10041000BF2FB11D5D968C91928D9F5F9F73928FC0
:1004200090E008958FEF9FEF0895FC01918D828DEC
:10043000981731F0828DE80FF11D858D90E00895B9
:100440008FEF9FEF0895FC01918D228D892F90E011
:10045000805C9F4F821B91098F73992708958CEBC5
:1004600092E00E94230221E0892B09F420E0822FF0
:100470000895FC01A48DA80FB92FB11DA35ABF4F39
:100480002C91848D90E001968F739927848FA68993
:10049000B7892C93A089B1898C91837080648C93E7
:1004A000938D848D981306C00288F389E02D808196
:1004B0008F7D80830895EF92FF920F931F93CF93C8
:1004C000DF93EC0181E0888F9B8D8C8D98131AC08F
:1004D000E889F989808185FF15C09FB7F894EE8976
:1004E000FF896083E889F9898081837080648083D3
:1004F0009FBF81E090E0DF91CF911F910F91FF901E
:10050000EF900895F62E0B8D10E00F5F1F4F0F73C5
:100510001127E02E8C8D8E110CC00FB607FCFACF80
:10052000E889F989808185FFF5CFCE010E943902E3
:10053000F1CFEB8DEC0FFD2FF11DE35AFF4FF08251
:100540009FB7F8940B8FEA89FB8980818062CFCFB7
:10055000CF93DF93EC01888D8823B9F0AA89BB89FA
:10056000E889F9898C9185FD03C0808186FD0DC0E5
:100570000FB607FCF7CF8C9185FFF2CF808185FF06
:10058000EDCFCE010E943902E9CFDF91CF910895DE
:1005900080E090E0892B29F00E942F0281110E94B7
:1005A000000080E090E0892B49F080E090E0892B0A
:1005B00029F00E94000081110E94000080E090E07C
:1005C000892B49F080E090E0892B29F00E940000FF
:1005D00081110E94000080E090E0892B49F080E0CA
:1005E00090E0892B29F00E94000081110C940000FA
:1005F0000895282F30E0F901E655FE4F9491F90156
:10060000E659FD4F44912C5D3D4FF9012491222381
:1006100009F435C0992311F191509231F8F4E92F82
:10062000F0E08827E95EFC4F8F4F0C945E0F480383
:100630004C032903400344032E034F03550359037E
:100640005F03630367036D0371032E0375037B036D
:100650007F03809180008F7780938000E22FF0E00D
:10066000EE0FFF1FE051FE4FA591B4918FB7F894A4
:10067000EC91611148C040954E234C938FBF089573
:10068000809180008F7DE8CF80918000877FE4CFCC
:1006900084B58F7784BDE2CF84B58F7DFBCF809109
:1006A000B0008F778093B000D9CF8091B0008F7D5C
:1006B000F9CF809190008F7780939000CFCF809179
:1006C00090008F7DF9CF80919000877FF5CF80914A
:1006D000A0008F778093A000C1CF8091A0008F7D74
:1006E000F9CF8091A000877FF5CF809120018F778F
:1006F00080932001B3CF809120018F7DF9CF80912D
:100700002001877FF5CF4E2BB8CF1F93CF93DF9378
:10071000182FEB010E948C01209739F460E0812FA3
:10072000DF91CF911F910C94F902CF3FD10511F4C5
:1007300061E0F5CFE12FF0E0E655FE4FE491E150A6
:10074000E23108F0B3C0F0E08827E655FC4F8F4F48
:100750000C945E0FBC03C403C903D303DD0356042A
:10076000E703EF03F70301040B04150424042E042C
:100770005604380442044C0484B5806884BDC7BD67
:10078000DF91CF911F91089584B5806284BDC8BD6B
:10079000F7CF80918000806880938000D09389009B
:1007A000C0938800EDCF80918000806280938000AC
:1007B000D0938B00C0938A00E3CF80918000886043
:1007C00080938000D0938D00C0938C00D9CF80910E
:1007D000B00080688093B000C093B300D1CF809107
:1007E000B00080628093B000C093B400C9CF809104
:1007F0009000806880939000D0939900C0939800F7
:10080000BFCF80919000806280939000D0939B0036
:10081000C0939A00B5CF809190008860809390003B
:10082000D0939D00C0939C00ABCF8091A0008068C6
:100830008093A0008091A0008F7B8093A000D09334
:10084000A900C093A8009CCF8091A00080628093F3
:10085000A000D093AB00C093AA0092CF8091A000DB
:1008600088608093A000D093AD00C093AC0088CF87
:1008700080912001806880932001D0932901C0934A
:1008800028017ECF80912001806280932001D09347
:100890002B01C0932A0174CF80912001886080933E
:1008A0002001D0932D01C0932C016ACFC038D1050F
:1008B0000CF03ECF33CF3FB7F8948091B8029091BF
:1008C000B902A091BA02B091BB0226B5A89B05C09F
:1008D0002F3F19F00196A11DB11D3FBFBA2FA92FBF
:1008E000982F8827BC01CD01620F711D811D911DBC
:1008F00042E0660F771F881F991F4A95D1F7089528
:100900008F929F92AF92BF92CF92DF92EF92FF921F
:100910000E945B044B015C0188EEC82E83E0D82E58
:10092000E12CF12C0E945B04681979098A099B0962
:10093000683E734081059105A8F321E0C21AD108F1
:10094000E108F10888EE880E83E0981EA11CB11C16
:10095000C114D104E104F10429F7FF90EF90DF9076
:10096000CF90BF90AF909F908F9008952091690293
:10097000260F3327331F21323105ECF420918D02ED
:10098000FC0190E080E0243069F082E00895A091BD
:1009900069022191AC01475B5D4FA40FB52FB11DDA
:1009A0002C930196861798F380916902680F6093E3
:1009B000690280E0089581E0089508958FEF9FEF28
:1009C00008958FEF9FEF08958091420290E09195F6
:1009D000819591090895CF93DF93CB01EA01642FAC
:1009E0000E94B604CE01DF91CF910895CF93DF939B
:1009F0001F92CDB7DEB7698361E0CE0101960E94F8
:100A0000B60481E090E00F90DF91CF91089590E0DF
:100A100080E00895CF92DF92EF92FF921F93CF93E1
:100A2000DF93EC016A017B0168817981072E000C5C
:100A3000880B990B0E94850DA70196010E94790EE3
:100A40006B017C011A8120E030E0A9010E94740E44
:100A5000181634F520E030E04FE753E4C701B60143
:100A60000E94740E181634F4C12CD12C9FE7E92E85
:100A700093E4F92E61E0812F0E94F90260E08C81FD
:100A80000E94F902C701B6010E944D0D8E81DF91CF
:100A9000CF911F91FF90EF90DF90CF900C94850342
:100AA00020E030E0A901C701B6010E94D10C87FF08
:100AB0001CC020E030E04FE753ECC701B6010E94B4
:100AC000D10C87FF06C0C12CD12C8FE7E82E83EC18
:100AD000F82E60E0812F0E94F90261E08C810E9473
:100AE000F902C701B6019058CFCF6885812F0E94C7
:100AF000F90268858C81DF91CF911F91FF90EF9073
:100B0000DF90CF900C94F902FC0101900020E9F7EE
:100B10003197AF01481B590BBC018CEB92E00C9450
:100B2000C5018F929F92AF92BF920F931F93CF9365
:100B3000DF93CDB7DEB7A1970FB6F894DEBF0FBE37
:100B4000CDBF19A2423008F44AE08E010F5D1F4F5D
:100B5000842E912CB12CA12CA50194010E943C0F54
:100B6000E62FB901CA01EA30F4F4E05DD801EE9352
:100B70008D01232B242B252B79F790E080E0109713
:100B800019F0CD010E948405A1960FB6F894DEBF3E
:100B90000FBECDBFDF91CF911F910F91BF90AF904E
:100BA0009F908F900895E95CE1CF4F925F926F9292
:100BB0007F928F929F92AF92BF92CF92DF92EF92ED
:100BC000FF920F931F93CF936B017C01742EAC01A6
:100BD0009B010E94EE0E882399F082E192E0CF9172
:100BE0001F910F91FF90EF90DF90CF90BF90AF904B
:100BF0009F908F907F906F905F904F900C948405A2
:100C000046015701E894B7F82FEF3FEF4FE75FE752
:100C1000C501B4010E94EE0E81110DC02FEF3FEF10
:100C20004FE75FE7C501B4010E94D10C18161CF410
:100C300086E192E0D4CF2FEF3FEF4FE75FE4C701AB
:100C4000B6010E94740E18161CF48AE192E0C7CF18
:100C50002FEF3FEF4FE75FECC701B6010E94D10CC9
:100C600087FDF3CF20E030E0A901C701B6010E9463
:100C7000D10C10E000E087FF0AC06DE28CEB92E03F
:100C80000E945B028C01F7FAF094F7F8F094C0E050
:100C900060E070E080E09FE37C1641F020E030E00F
:100CA00040E251E40E94DB0CCF5FF6CFA701960132
:100CB0000E94650C2B013C010E94540D4B015C010C
:100CC0004AE00E9491057C01E00EF11ECC23C1F1A7
:100CD000C501B4010E94830D9B01AC01C301B201A7
:100CE0000E94640C4B015C016EE28CEB92E00E946E
:100CF0005B02E80EF91EC15018F120E030E040E23E
:100D000051E4C501B4010E94790E2B013C010E94FF
:100D1000540D4B01B12CA12C4AE0C501B4010E9435
:100D20009105E80EF91EC501B4010E94830D9B01D7
:100D3000AC01C301B2010E94640C4B015C01DBCF2A
:100D4000C701CF911F910F91FF90EF90DF90CF904F
:100D5000BF90AF909F908F907F906F905F904F90DB
:100D600008954F925F926F927F928F929F92AF926F
:100D7000BF92CF92DF92EF92FF92CF93DF93CDB7E6
:100D8000DEB72C970FB6F894DEBF0FBECDBF6093D1
:100D900061037093620380936303909364031092E2
:100DA0006503109266031092670310926803C12CCA
:100DB000D12C2FE7E22E23E4F22EC0926903D092C9
:100DC0006A03E0926B03F0926C031092A5031092F9
:100DD000A6031092A7031092A80325E33AEF4EE86A
:100DE0005CE30E94790E6B017C010E94D60C4B01E2
:100DF0005C018092A9039092AA03A092AB03B092E7
:100E0000AC03C701B6010E94E60E6B017C01C092E3
:100E1000AD03D092AE03E092AF03F092B00320E0B6
:100E200030E0A9016091750370917603809177039A
:100E3000909178030E94790E2B013C012091790357
:100E400030917A0340917B0350917C03C501B4013A
:100E50000E94790E9B01AC01C301B2010E94650C96
:100E60002B013C0120917D0330917E0340917F0353
:100E700050918003C701B6010E94790E9B01AC011D
:100E8000C301B2010E94650C20E030E04FE753E45B
:100E90000E94790E69837A838B839C8320E030E003
:100EA000A9016091810370918203809183039091E5
:100EB00084030E94790E2B013C012091850330911F
:100EC00086034091870350918803C501B4010E94B5
:100ED000790E9B01AC01C301B2010E94650C2B018C
:100EE0003C012091890330918A0340918B035091FA
:100EF0008C03C701B6010E94790E9B01AC01C301AE
:100F0000B2010E94650C20E030E04FE753E40E94FC
:100F1000790E6D837E838F83988720E030E0A9016E
:100F200060918D0370918E0380918F039091900357
:100F30000E94790E2B013C01209191033091920384
:100F40004091930350919403C501B4010E94790E1E
:100F50009B01AC01C301B2010E94650C2B013C0155
:100F600020919503309196034091970350919803F7
:100F7000C701B6010E94790E9B01AC01C301B20109
:100F80000E94650C20E030E04FE753E40E94790EA8
:100F90002B013C0120E030E0A901609199037091A0
:100FA0009A0380919B0390919C030E94790E69871C
:100FB0007A878B879C8720919D0330919E03409177
:100FC0009F035091A003C501B4010E94790E9B01BB
:100FD000AC0169857A858B859C850E94650C4B01E7
:100FE0005C012091A1033091A2034091A303509191
:100FF000A403C701B6010E94790E9B01AC01C50193
:10100000B4010E94650C20E030E04FE753E40E94F9
:10101000790E6B017C018EE192E00E94840542E032
:1010200069817A818B819C810E94D50586E292E05C
:101030000E94840542E06D817E818F8198850E94A7
:10104000D5058CE292E00E94840581E392E00E9443
:10105000840584E392E00E94840542E0C701B60162
:101060000E94D50586E292E00E94840542E0C30119
:10107000B2010E94D5058CE392E00E94840581E3D1
:1010800092E00E94840549815A816B817C81809124
:101090006D0390916E030E940A054D815E816F8100
:1010A000788580916F03909170030E940A05B701C3
:1010B000A60180917303909174030E940A05B30105
:1010C000A20180917103909172032C960FB6F8944F
:1010D000DEBF0FBECDBFDF91CF91FF90EF90DF90CD
:1010E000CF90BF90AF909F908F907F906F905F90C8
:1010F0004F900C940A051F93CF93DF9385ED809357
:10110000BC008091450290914602A0914702B091A7
:1011100048020796A11DB11D23E0B695A7959795A6
:1011200087952A95D1F72091BC0024FD03C0109229
:101130008D0252C040914502509146026091470293
:1011400070914802452B462B472B69F30097A10568
:10115000B10541F025E32A95F1F700000197A109B7
:10116000B109E1CF80914402C1E0C09343028823DA
:1011700099F1D091B8001091BA008091BC008A7B9F
:101180008093BC0060E084E10E94F90260E085E1A8
:101190000E94F90210928D02C0938F0210928E026B
:1011A00061E084E10E94F90261E085E10E94F902B8
:1011B0008091B9008E7F8093B9008091B9008D7FB6
:1011C0008093B90088E48093B80085E48093BC00E4
:1011D0001093BA00D093B800DF91CF911F9108957A
:1011E0001F920F920FB60F9211240BB60F922F93EE
:1011F0003F934F935F936F937F938F939F93AF939F
:10120000BF93EF93FF938CEB92E00E943902FF9122
:10121000EF91BF91AF919F918F917F916F915F916E
:101220004F913F912F910F900BBE0F900FBE0F90DB
:101230001F9018951F920F920FB60F9211240BB6A4
:101240000F922F938F939F93EF93FF93E091CC0294
:10125000F091CD028081E091D202F091D30282FD23
:101260001DC090818091D5028F5F8F732091D6022F
:10127000821741F0E091D502F0E0E454FD4F958FE4
:101280008093D502FF91EF919F918F912F910F90B5
:101290000BBE0F900FBE0F901F9018958081F2CF5C
:1012A0001F920F920FB60F9211242F933F938F939B
:1012B0009F93AF93BF938091B4029091B502A09198
:1012C000B602B091B7023091B30223E0230F2D375D
:1012D00058F50196A11DB11D2093B3028093B4026D
:1012E0009093B502A093B602B093B7028091B80272
:1012F0009091B902A091BA02B091BB020196A11DD2
:10130000B11D8093B8029093B902A093BA02B09332
:10131000BB02BF91AF919F918F913F912F910F9001
:101320000FBE0F901F90189526E8230F0296A11D5F
:10133000B11DD2CF1F920F920FB60F9211240BB690
:101340000F922F933F934F935F936F937F938F935E
:101350009F93AF93BF93EF93FF938091B900887FE2
:10136000803609F44DC008F040C0883209F4A7C0A7
:1013700028F5803109F49BC0C8F4882309F4F7C02C
:10138000883009F494C0FF91EF91BF91AF919F9184
:101390008F917F916F915F914F913F912F910F901E
:1013A0000BBE0F900FBE0F901F901895883109F457
:1013B00086C0803241F780938C0214C0803409F4D7
:1013C0009BC040F48033B9F38833E9F680938C02F4
:1013D00085ECAEC0803509F483C0883509F494C02B
:1013E000883489F60E947B08CECF883909F48AC0F8
:1013F00038F5883729F050F4883611F0803719F61F
:1014000083E080938D0210928B0255C0883809F4D6
:1014100079C0803919F0803809F0B5CF80918B02FE
:10142000803208F06FC0E0918B0281E08E0F8093D4
:101430008B028091BB00F0E0E559FD4F80833BC0FB
:10144000803B39F0D0F4803A09F477C0883A09F04B
:101450009ACF84E080938D0210926A021092690202
:10146000F0E0E0E019958091690281110FC081E000
:10147000809369021092490209C0803C09F4A8CF08
:10148000883C09F4A5CF883B09F07DCFE0916A0242
:1014900081E08E0F80936A02F0E0E75BFD4F808170
:1014A0008093BB0090916A028091690229C080916B
:1014B000B2028093BB0085EC8093BC0064CF909116
:1014C000B1028091B002981758F5E091B10281E025
:1014D0008E0F8093B102F0E0E057FD4F8081E9CF9D
:1014E000E091B10281E08E0F8093B1028091BB0048
:1014F000F0E0E057FD4F80839091B1028091B002FF
:101500009817C8F285E8D8CFE091B10281E08E0F3C
:101510008093B1028091BB00F0E0E057FD4F8083E3
:1015200080918F0281115ECF81E080938E0284EAE8
:101530008093BC0010928D0226CF85EC8093BC0076
:1015400010928D0280918B02803230F4E0918B02F8
:10155000F0E0E559FD4F108260918B0270E08BE660
:1015600092E0F0E0E0E0199510928B020CCF10921F
:101570008C0238CF0F931F93ECEBF2E013821282B0
:1015800088EE93E0A0E0B0E084839583A683B783E0
:1015900084E092E09183808385EC90E09587848756
:1015A00084EC90E09787868780EC90E0918B808B2D
:1015B00081EC90E0938B828B82EC90E0958B848B16
:1015C00086EC90E0978B868B118E128E138E148E84
:1015D00022E030E049E150E066E170E08CEC93E01D
:1015E0000E94AB0124E030E04DE150E06AE170E0A0
:1015F00083EC93E00E94AB0125E030E04CE150E049
:101600006BE170E08AEB93E00E94AB0123E030E0F5
:1016100048E150E067E170E081EB93E00E94AB01AC
:10162000E9E5F3E010861186128613861486158686
:1016300016861786108A118A128A138A40E050E0B3
:1016400060E070E8448F558F668F778F80E090E080
:10165000A0E8BFE380A391A3A2A3B3A300E010E09E
:1016600020E83FEB04A315A326A337A310A611A6D9
:1016700012A613A684A795A7A6A7B7A780AB91AB80
:10168000A2ABB3AB14AA15AA16AA17AA80AF91AF42
:10169000A2AFB3AF04AF15AF26AF37AF40939903F6
:1016A00050939A0360939B0370939C0380939D03D4
:1016B00090939E03A0939F03B093A0038093A103F4
:1016C0009093A203A093A303B093A4031092A50345
:1016D0001092A6031092A7031092A8031092A903D8
:1016E0001092AA031092AB031092AC031092AD03B8
:1016F0001092AE031092AF031092B0038DEC9CECED
:10170000ACE4BEE380839183A283B3838483958317
:10171000A683B7838CEC93E0958B848B83EC93E06A
:10172000978B868B8AEB93E0918F808F81EB93E090
:10173000938F828F1F910F910895789484B5826062
:1017400084BD84B5816084BD85B5826085BD85B565
:10175000816085BD80916E00816080936E001092E3
:10176000810080918100826080938100809181005E
:1017700081608093810080918000816080938000EF
:101780008091B10084608093B1008091B00081604D
:101790008093B0008091910082608093910080914D
:1017A000910081608093910080919000816080938E
:1017B00090008091A10082608093A1008091A1009F
:1017C00081608093A1008091A00081608093A0003F
:1017D00080912101826080932101809121018160AB
:1017E000809321018091200181608093200180916C
:1017F0007A00846080937A0080917A00826080937E
:101800007A0080917A00816080937A0080917A00DA
:10181000806880937A001092C100E091CC02F09130
:10182000CD0282E08083E091C802F091C90210826B
:10183000E091CA02F091CB0280E180831092D40241
:10184000E091D002F091D10286E08083E091CE0257
:10185000F091CF02808180618083E091CE02F0918F
:10186000CF02808188608083E091CE02F091CF0228
:10187000808180688083E091CE02F091CF028081E8
:101880008F7D808360E070E0CB010E94B1060E94F2
:10189000800460E070E084EB92E40E94B1060E9454
:1018A000800460E070E084E393E40E94B1060E944B
:1018B000800460E070E087E893E40E94B1060E9433
:1018C00080040E94C802DECF5058BB27AA270E947E
:1018D0007C0C0C94260E0E94ED0D38F00E94F40D45
:1018E00020F039F49F3F19F426F40C94EA0D0EF41D
:1018F000E095E7FB0C94E40DE92F0E944B0E58F3A2
:10190000BA17620773078407950720F079F4A6F5E4
:101910000C946D0E0EF4E0950B2EBA2FA02D0B013A
:10192000B90190010C01CA01A0011124FF27591B24
:1019300099F0593F50F4503E68F11A16F040A22F2A
:10194000232F342F4427585FF3CF4695379527959B
:10195000A795F0405395C9F77EF41F16BA0B620B9A
:10196000730B840BBAF09150A1F0FF0FBB1F661FE1
:10197000771F881FC2F70EC0BA0F621F731F841F24
:1019800048F4879577956795B795F7959E3F08F04A
:10199000B0CF9395880F08F09927EE0F979587950C
:1019A00008950E94C00D08F481E008950E94FD0D85
:1019B000E3950C94370E0E94EF0C0C94260E0E94B7
:1019C000F40D58F00E94ED0D40F029F45F3F29F02E
:1019D0000C94E40D51110C946E0E0C94EA0D0E94BF
:1019E0004B0E68F39923B1F3552391F3951B550BD7
:1019F000BB27AA2762177307840738F09F5F5F4FE2
:101A0000220F331F441FAA1FA9F335D00E2E3AF020
:101A1000E0E832D091505040E695001CCAF72BD038
:101A2000FE2F29D0660F771F881FBB1F2617370789
:101A30004807AB07B0E809F0BB0B802DBF01FF27BB
:101A400093585F4F3AF09E3F510578F00C94E40DA7
:101A50000C946E0E5F3FE4F3983ED4F38695779531
:101A60006795B795F7959F5FC9F7880F911D969574
:101A7000879597F90895E1E0660F771F881FBB1FD0
:101A8000621773078407BA0720F0621B730B840B7D
:101A9000BA0BEE1F88F7E09508950E94540D6894E4
:101AA000B1110C946E0E08950E94530E88F09F574A
:101AB00098F0B92F9927B751B0F0E1F0660F771F72
:101AC000881F991F1AF0BA95C9F714C0B13091F068
:101AD0000E946D0EB1E008950C946D0E672F782F63
:101AE0008827B85F39F0B93FCCF38695779567952D
:101AF000B395D9F73EF490958095709561957F4F99
:101B00008F4F9F4F0895E89409C097FB3EF490953E
:101B10008095709561957F4F8F4F9F4F9923A9F0C6
:101B2000F92F96E9BB279395F69587957795679555
:101B3000B795F111F8CFFAF4BB0F11F460FF1BC099
:101B40006F5F7F4F8F4F9F4F16C0882311F096E92C
:101B500011C0772321F09EE8872F762F05C06623DA
:101B600071F096E8862F70E060E02AF09A95660F93
:101B7000771F881FDAF7880F9695879597F908954C
:101B8000990F0008550FAA0BE0E8FEEF161617068E
:101B9000E807F907C0F012161306E407F50798F0F6
:101BA000621B730B840B950B39F40A2661F0232B0F
:101BB000242B252B21F408950A2609F4A140A6958B
:101BC0008FEF811D811D089597F99F6780E870E070
:101BD00060E008959FEF80EC089500240A941616A3
:101BE000170618060906089500240A94121613060B
:101BF0001406050608950C94EA0D0E94530ED8F3BE
:101C0000E894E0E0BB279F57F0F02AED3FE049EC75
:101C100006C0EE0FBB0F661F771F881F28F0B23A71
:101C200062077307840728F0B25A620B730B840BA8
:101C3000E3959A9572F7803830F49A95BB0F661F3A
:101C4000771F881FD2F790480C94F50E092E039445
:101C5000000C11F4882352F0BB0F40F4BF2B11F499
:101C600060FF04C06F5F7F4F8F4F9F4F0895EF93CA
:101C7000E0FF07C0A2EA2AED3FE049EC5FEB0E94DB
:101C80007C0C0E94260E0F90039401FC9058E4EE09
:101C9000F0E00C94010F57FD9058440F551F59F078
:101CA0005F3F71F04795880F97FB991F61F09F3F49
:101CB00079F087950895121613061406551FF2CF72
:101CC0004695F1DF08C0161617061806991FF1CFC2
:101CD00086957105610508940895E894BB276627E9
:101CE0007727CB0197F908950E94C00D08F48FEF74
:101CF00008950E948C0E0C94260E0E94ED0D38F073
:101D00000E94F40D20F0952311F00C94E40D0C9436
:101D1000EA0D11240C946E0E0E944B0E70F3959FE9
:101D2000C1F3950F50E0551F629FF001729FBB27D2
:101D3000F00DB11D639FAA27F00DB11DAA1F649F6E
:101D40006627B00DA11D661F829F2227B00DA11D21
:101D5000621F739FB00DA11D621F839FA00D611DA7
:101D6000221F749F3327A00D611D231F849F600DC8
:101D7000211D822F762F6A2F11249F5750409AF0F1
:101D8000F1F088234AF0EE0FFF1FBB1F661F771F7D
:101D9000881F91505040A9F79E3F510580F00C9448
:101DA000E40D0C946E0E5F3FE4F3983ED4F38695F9
:101DB00077956795B795F795E7959F5FC1F7FE2BE8
:101DC000880F911D9695879597F908959F930E9486
:101DD000FD0D0F9007FCEE5F0C94370E0E94C00DB6
:101DE000880B990B08959F3F31F0915020F487950F
:101DF00077956795B795880F911D9695879597F973
:101E000008959F938F937F936F93FF93EF939B011D
:101E1000AC010E94790EEF91FF910E94150F2F9156
:101E20003F914F915F910C94790EDF93CF931F9365
:101E30000F93FF92EF92DF927B018C01689406C0B2
:101E4000DA2EEF010E948C0EFE01E894A5912591F7
:101E5000359145915591A6F3EF010E947C0CFE014E
:101E60009701A801DA9469F7DF90EF90FF900F9146
:101E70001F91CF91DF910895A1E21A2EAA1BBB1BDF
:101E8000FD010DC0AA1FBB1FEE1FFF1FA217B30746
:101E9000E407F50720F0A21BB30BE40BF50B661F5C
:101EA000771F881F991F1A9469F760957095809520
:101EB00090959B01AC01BD01CF010895EE0FFF1F6E
:101EC000881F8BBF0790F691E02D1994F894FFCFEF
:101ED000000000005B02C501F201A802230201021A
:101EE00015026E616E00696E66006F7666004D3198
:101EF000207C202020002020202020007C204D322B
:101F0000000D0A004D34207C202020007C204D3321
:021F10000000CF
:00000001FF
