:100000000C944A010C947B010C947B010C947B01B1
:100010000C947B010C947B010C947B010C947B0170
:100020000C947B010C947B010C947B010C947B0160
:100030000C947B010C947B010C947B010C947B0150
:100040000C947B010C947B010C947B010C947B0140
:100050000C947B010C947B010C947B010C94560650
:100060000C947B010C9420060C94F6050C947B01F7
:100070000C947B010C947B010C947B010C947B0110
:100080000C947B010C947B010C947B010C947B0100
:100090000C947B010C947B010C947B010C94A006C6
:1000A0000C947B010C947B010C947B010C947B01E0
:1000B0000C947B010C947B010C947B010C947B01D0
:1000C0000C947B010C947B010C947B010C947B01C0
:1000D0000C947B010C947B010C947B010C947B01B0
:1000E0000C947B010C9433040C944A030C94A302EB
:1000F0000C9406040C94FC030C94D8030C94240375
:100100000C946C030C9468030C9410020C9462031E
:100110000C945E030C9447040C9451040C943D041D
:100120000C94CE030C945A030C947A030C9456024C
:100130000C9443030C94F2030C943F030C941E02A2
:100140000C94C0010C9429040C9429030C943B03D7
:100150000C94ED010C94BF030C94C4030C94C007E1
:100160000C9476030C9447030C94EA030C94FC0162
:100170000C9454030C9470030C9410040C94B70367
:100180000C9450030C941F040C94E20300000A0B1F
:1001900002090C0D0E080703040100000000000016
:1001A000000000000000000000000000000000004F
:1001B000000000000000000012111000000000000C
:1001C000000000000000000000000000000000002F
:1001D000000000002200250028002B002E00310026
:1001E000340002010000050108010B01000021009C
:1001F000240027002A002D003000330001010000F8
:10020000040107010A010505050507050808080896
:10021000020202020A0A080804040404010101019E
:100220000101010103030303030303030407070799
:100230000C0C0C0C0C0C0C0C02020202060606063E
:10024000060606060B0B0B0B0B0B0B0B010210200B
:1002500020080810204010204080020102010804FC
:100260000201010204081020408080402010080490
:1002700002018004020180402010080402010804E9
:10028000020101020408102040800102040810202D
:100290004080C00711241FBECFEFD1E2DEBFCDBF2B
:1002A00000E00CBF12E0A0E0B2E0E4E9F5E100E01C
:1002B0000BBF02C007900D92A231B107D9F723E01E
:1002C000A2E1B2E001C01D92A53AB207E1F711E048
:1002D000CAE4D1E000E006C021970109802FFE01A9
:1002E0000E94C00AC934D10780E00807A9F70E941C
:1002F000A9080C94C80A0C94000090E0FC01E45B8F
:10030000FD4F24918A5F9D4FFC018491882399F0D1
:1003100090E0880F991FFC01E451FE4FA591B49124
:10032000FC01EE52FE4F859194918FB7F894EC91B9
:10033000E22BEC938FBF08950F931F93CF93DF931E
:10034000EC01862F6A837B835D834C833F832E83FE
:1003500091E098870F3F100781F021E030E039836A
:1003600028830E947D018C810E947D018E81DF9116
:10037000CF911F910F910C947D0119830883F1CFC8
:10038000AF92BF92CF92DF92EF92FF920F931F93A3
:10039000CF93DF936C017B018B01040F151FEB01E1
:1003A0005E01AE18BF08C017D10759F06991D60198
:1003B000ED91FC910190F081E02DC6011995892BFA
:1003C00079F7C501DF91CF911F910F91FF90EF90C9
:1003D000DF90CF90BF90AF900895FC01538D448D76
:1003E000252F30E0842F90E0821B930B541710F0E0
:1003F000CF96089501970895FC01918D828D9817ED
:1004000061F0A28DAE0FBF2FB11D5D968C91928DC4
:100410009F5F9F73928F90E008958FEF9FEF0895F5
:10042000FC01918D828D981731F0828DE80FF11DBE
:10043000858D90E008958FEF9FEF0895FC01918DD9
:10044000228D892F90E0805C9F4F821B91098F73D2
:10045000992708958CE892E00E941E0221E0892BE2
:1004600009F420E0822F0895FC01A48DA80FB92F74
:10047000B11DA35ABF4F2C91848D90E001968F73CC
:100480009927848FA689B7892C93A089B1898C91EB
:10049000837080648C93938D848D981306C002883A
:1004A000F389E02D80818F7D80830895EF92FF9204
:1004B0000F931F93CF93DF93EC0181E0888F9B8D87
:1004C0008C8D98131AC0E889F989808185FF15C041
:1004D0009FB7F894EE89FF896083E889F989808164
:1004E0008370806480839FBF81E090E0DF91CF9133
:1004F0001F910F91FF90EF900895F62E0B8D10E055
:100500000F5F1F4F0F731127E02E8C8D8E110CC0C3
:100510000FB607FCFACFE889F989808185FFF5CF0E
:10052000CE010E943402F1CFEB8DEC0FFD2FF11DB7
:10053000E35AFF4FF0829FB7F8940B8FEA89FB894B
:1005400080818062CFCFCF93DF93EC01888D8823A9
:10055000B9F0AA89BB89E889F9898C9185FD03C026
:10056000808186FD0DC00FB607FCF7CF8C9185FF0B
:10057000F2CF808185FFEDCFCE010E943402E9CF1A
:10058000DF91CF91089580E090E0892B29F00E94BF
:100590002A0281110E94000080E090E0892B49F03E
:1005A00080E090E0892B29F00E94000081110E94D8
:1005B000000080E090E0892B49F080E090E0892BFA
:1005C00029F00E94000081110E94000080E090E06C
:1005D000892B49F080E090E0892B29F00E940000EF
:1005E00081110C9400000895282F30E0F901E457A0
:1005F000FE4F9491F901E45BFD4F44912A5F3D4F1A
:10060000F9012491222309F435C0992311F1915065
:100610009231F8F4E92FF0E08827EE5EFC4F8F4F1F
:100620000C94C00A4303470324033B033F032903FD
:100630004A03500354035A035E03620368036C03C6
:100640002903700376037A03809180008F7780936B
:100650008000E22FF0E0EE0FFF1FEE52FE4FA5915B
:10066000B4918FB7F894EC91611148C040954E2336
:100670004C938FBF0895809180008F7DE8CF80914B
:100680008000877FE4CF84B58F7784BDE2CF84B5C7
:100690008F7DFBCF8091B0008F778093B000D9CF52
:1006A0008091B0008F7DF9CF809190008F778093FB
:1006B0009000CFCF809190008F7DF9CF80919000F6
:1006C000877FF5CF8091A0008F778093A000C1CF66
:1006D0008091A0008F7DF9CF8091A000877FF5CF1A
:1006E000809120018F7780932001B3CF80912001EA
:1006F0008F7DF9CF80912001877FF5CF4E2BB8CF2A
:100700001F93CF93DF93182FEB010E947D01209759
:1007100039F460E0812FDF91CF911F910C94F402A6
:10072000CF3FD10511F461E0F5CFE12FF0E0E457C0
:10073000FE4FE491E150E23108F0B3C0F0E08827C9
:10074000EB55FC4F8F4F0C94C00AB703BF03C40393
:10075000CE03D8035104E203EA03F203FC030604C8
:1007600010041F042904510433043D04470484B5D4
:10077000806884BDC7BDDF91CF911F91089584B576
:10078000806284BDC8BDF7CF80918000806880936F
:100790008000D0938900C0938800EDCF80918000C5
:1007A000806280938000D0938B00C0938A00E3CF57
:1007B00080918000886080938000D0938D00C093EA
:1007C0008C00D9CF8091B00080688093B000C09336
:1007D000B300D1CF8091B00080628093B000C0930D
:1007E000B400C9CF80919000806880939000D0932E
:1007F0009900C0939800BFCF809190008062809351
:100800009000D0939B00C0939A00B5CF8091900048
:10081000886080939000D0939D00C0939C00ABCFE4
:100820008091A00080688093A0008091A0008F7BC1
:100830008093A000D093A900C093A8009CCF809182
:10084000A00080628093A000D093AB00C093AA0068
:1008500092CF8091A00088608093A000D093AD00DB
:10086000C093AC0088CF80912001806880932001E4
:10087000D0932901C09328017ECF8091200180620E
:1008800080932001D0932B01C0932A0174CF8091D3
:100890002001886080932001D0932D01C0932C010A
:1008A0006ACFC038D1050CF03ECF33CFCF92DF9264
:1008B000EF92FF92CF936B017C0160919303709153
:1008C0009403072E000C880B990B0E949E09A70128
:1008D00096010E942B0A6B017C01C091950320E0D8
:1008E00030E0A9010E94260A181634F520E030E015
:1008F0004FE753E4C701B6010E94260A181634F4E4
:10090000C12CD12C9FE7E92E93E4F92E61E08C2FC6
:100910000E94F40260E0809197030E94F402C701F4
:10092000B6010E94660980919903CF91FF90EF90E4
:10093000DF90CF900C94800320E030E0A901C70144
:10094000B6010E94610987FF1DC020E030E04FE73B
:1009500053ECC701B6010E94610987FF06C0C12C94
:10096000D12C8FE7E82E83ECF82E60E08C2F0E94CC
:10097000F40261E0809197030E94F402C701B6017E
:100980009058CFCF60919B038C2F0E94F40260910E
:100990009B0380919703CF91FF90EF90DF90CF90D2
:1009A0000C94F4023FB7F8948091880290918902E8
:1009B000A0918A02B0918B0226B5A89B05C02F3F5B
:1009C00019F00196A11DB11D3FBFBA2FA92F982F75
:1009D0008827BC01CD01620F711D811D911D42E070
:1009E000660F771F881F991F4A95D1F708958F9238
:1009F0009F92AF92BF92CF92DF92EF92FF920E94AE
:100A0000D2044B015C0188EEC82E83E0D82EE12C85
:100A1000F12C0E94D204681979098A099B09683E61
:100A2000734081059105A8F321E0C21AD108E108BD
:100A3000F10888EE880E83E0981EA11CB11CC11439
:100A4000D104E104F10429F7FF90EF90DF90CF90FB
:100A5000BF90AF909F908F90089520913902260FFC
:100A60003327331F21323105ECF420915D02FC0164
:100A700090E080E0243069F082E00895A09139028E
:100A80002191AC01475E5D4FA40FB52FB11D2C9392
:100A90000196861798F380913902680F60933902A6
:100AA00080E0089581E0089508958FEF9FEF089505
:100AB0008FEF9FEF08958091120290E091958195BC
:100AC00091090895CF93DF93CB01EA01642F0E942F
:100AD0002D05CE01DF91CF910895CF93DF931F9223
:100AE000CDB7DEB7698361E0CE0101960E942D0586
:100AF00081E090E00F90DF91CF91089590E080E049
:100B000008951F93CF93DF9385ED8093BC00809170
:100B1000150290911602A0911702B0911802079643
:100B2000A11DB11D23E0B695A795979587952A95A8
:100B3000D1F72091BC0024FD03C010925D0252C089
:100B4000409115025091160260911702709118029F
:100B5000452B462B472B69F30097A105B10541F0C2
:100B600025E32A95F1F700000197A109B109E1CF2A
:100B700080911402C1E0C0931302882399F1D091AF
:100B8000B8001091BA008091BC008A7B8093BC00B1
:100B900060E084E10E94F40260E085E10E94F402DA
:100BA00010925D02C0935F0210925E0261E084E1E8
:100BB0000E94F40261E085E10E94F4028091B90094
:100BC0008E7F8093B9008091B9008D7F8093B900AA
:100BD00088E48093B80085E48093BC001093BA0049
:100BE000D093B800DF91CF911F9108951F920F927B
:100BF0000FB60F9211240BB60F922F933F934F9382
:100C00005F936F937F938F939F93AF93BF93EF9374
:100C1000FF938CE892E00E943402FF91EF91BF9124
:100C2000AF919F918F917F916F915F914F913F9184
:100C30002F910F900BBE0F900FBE0F901F90189525
:100C40001F920F920FB60F9211240BB60F922F9393
:100C50008F939F93EF93FF93E0919C02F0919D02FD
:100C60008081E091A202F091A30282FD1DC09081DB
:100C70008091A5028F5F8F732091A602821741F0A9
:100C8000E091A502F0E0E457FD4F958F8093A50217
:100C9000FF91EF919F918F912F910F900BBE0F902D
:100CA0000FBE0F901F9018958081F2CF1F920F9268
:100CB0000FB60F9211242F933F938F939F93AF936F
:100CC000BF938091840290918502A0918602B09199
:100CD00087023091830223E0230F2D3758F50196C8
:100CE000A11DB11D209383028093840290938502FD
:100CF000A0938602B0938702809188029091890226
:100D0000A0918A02B0918B020196A11DB11D809322
:100D1000880290938902A0938A02B0938B02BF91BC
:100D2000AF919F918F913F912F910F900FBE0F9098
:100D30001F90189526E8230F0296A11DB11DD2CF52
:100D40001F920F920FB60F9211240BB60F922F9392
:100D50003F934F935F936F937F938F939F93AF9343
:100D6000BF93EF93FF938091B900887F803609F499
:100D70004DC008F040C0883209F4A7C028F5803182
:100D800009F49BC0C8F4882309F4F7C0883009F43B
:100D900094C0FF91EF91BF91AF919F918F917F91FF
:100DA0006F915F914F913F912F910F900BBE0F90DC
:100DB0000FBE0F901F901895883109F486C08032BD
:100DC00041F780935C0214C0803409F49BC040F466
:100DD0008033B9F38833E9F680935C0285ECAEC0CA
:100DE000803509F483C0883509F494C0883489F6C5
:100DF0000E948105CECF883909F48AC038F588373A
:100E000029F050F4883611F0803719F683E080938A
:100E10005D0210925B0255C0883809F479C08039B0
:100E200019F0803809F0B5CF80915B02803208F06C
:100E30006FC0E0915B0281E08E0F80935B02809136
:100E4000BB00F0E0E55CFD4F80833BC0803B39F0A8
:100E5000D0F4803A09F477C0883A09F09ACF84E058
:100E600080935D0210923A0210923902F0E0E0E0C5
:100E700019958091390281110FC081E08093390268
:100E80001092190209C0803C09F4A8CF883C09F4EB
:100E9000A5CF883B09F07DCFE0913A0281E08E0F2B
:100EA00080933A02F0E0E75EFD4F80818093BB00C3
:100EB00090913A028091390229C0809182028093F8
:100EC000BB0085EC8093BC0064CF9091810280913F
:100ED0008002981758F5E091810281E08E0F80938F
:100EE0008102F0E0E05AFD4F8081E9CFE09181027C
:100EF00081E08E0F809381028091BB00F0E0E05A88
:100F0000FD4F808390918102809180029817C8F2F2
:100F100085E8D8CFE091810281E08E0F8093810235
:100F20008091BB00F0E0E05AFD4F808380915F022A
:100F300081115ECF81E080935E0284EA8093BC00E1
:100F400010925D0226CF85EC8093BC0010925D026A
:100F500080915B02803230F4E0915B02F0E0E55C6E
:100F6000FD4F108260915B0270E08BE392E0F0E055
:100F7000E0E0199510925B020CCF10925C0238CF22
:100F80000F931F93ECE8F2E01382128288EE93E055
:100F9000A0E0B0E084839583A683B78384E092E0E9
:100FA0009183808385EC90E09587848784EC90E042
:100FB0009787868780EC90E0918B808B81EC90E026
:100FC000938B828B82EC90E0958B848B86EC90E007
:100FD000978B868B118E128E138E148E0FEF1FEF50
:100FE00022E030E049E150E066E170E08CE993E016
:100FF0000E949C0101E010E024E030E04EE150E06E
:101000006AE170E083E993E00E949C0125E030E012
:101010004CE150E06BE170E08AE893E00E949C01B3
:101020000FEF1FEF23E030E048E150E067E170E0B0
:1010300081E893E00E949C01E9E2F3E010861186CA
:10104000128613861486158616861786108A118ACC
:10105000128A138A40E050E060E070E8448F558FB8
:10106000668F778F80E090E0A0E8BFE380A391A334
:10107000A2A3B3A300E010E020E83FEB04A315A374
:1010800026A337A310A611A612A613A684A795A778
:10109000A6A7B7A780AB91ABA2ABB3AB14AA15AA16
:1010A00016AA17AA80AF91AFA2AFB3AF04AF15AF26
:1010B00026AF37AF4093690350936A0360936B0385
:1010C00070936C0380936D0390936E03A0936F03F2
:1010D000B09370038093710390937203A093730392
:1010E000B0937403109275031092760310927703F5
:1010F000109278031092790310927A0310927B0376
:1011000010927C0310927D0310927E0310927F0355
:10111000109280038DEC9CECACE4BEE38083918361
:10112000A283B38384839583A683B78383E993E003
:10113000958B848B8CE993E0978B868B8AE893E080
:10114000918F808F81E893E0938F828F1F910F9111
:101150000895789484B5826084BD84B5816084BD2F
:1011600085B5826085BD85B5816085BD80916E0045
:10117000816080936E001092810080918100826076
:1011800080938100809181008160809381008091B3
:1011900080008160809380008091B10084608093A2
:1011A000B1008091B00081608093B0008091910087
:1011B0008260809391008091910081608093910082
:1011C000809190008160809390008091A100826066
:1011D0008093A1008091A10081608093A100809103
:1011E000A00081608093A0008091210182608093A3
:1011F0002101809121018160809321018091200152
:1012000081608093200180917A00846080937A00CD
:1012100080917A00826080937A0080917A00816068
:1012200080937A0080917A00806880937A0010928F
:10123000C100E0919C02F0919D0282E08083E091E8
:101240009802F09199021082E0919A02F0919B022B
:1012500080E180831092A402E091A002F091A102AB
:1012600086E08083E0919E02F0919F028081806100
:101270008083E0919E02F0919F028081886080834C
:10128000E0919E02F0919F02808180688083E091CE
:101290009E02F0919F0280818F7D808360E070E0EC
:1012A0008FE793EC0E9456040E94F70460E070E020
:1012B0008FE793E40E9456040E94F7040E94C30241
:1012C000EDCF0E94D90908F481E008950E946D09CC
:1012D0006894B1110C94200A08950E94050A88F0C0
:1012E0009F5798F0B92F9927B751B0F0E1F0660FEA
:1012F000771F881F991F1AF0BA95C9F714C0B1302B
:1013000091F00E941F0AB1E008950C941F0A672F04
:10131000782F8827B85F39F0B93FCCF38695779559
:101320006795B395D9F73EF4909580957095619542
:101330007F4F8F4F9F4F0895E89409C097FB3EF46D
:1013400090958095709561957F4F8F4F9F4F992312
:10135000A9F0F92F96E9BB279395F6958795779590
:101360006795B795F111F8CFFAF4BB0F11F460FF50
:101370001BC06F5F7F4F8F4F9F4F16C0882311F0A8
:1013800096E911C0772321F09EE8872F762F05C0BC
:10139000662371F096E8862F70E060E02AF09A9557
:1013A000660F771F881FDAF7880F9695879597F94C
:1013B0000895990F0008550FAA0BE0E8FEEF1616E6
:1013C0001706E807F907C0F012161306E407F50739
:1013D00098F0621B730B840B950B39F40A2661F0AD
:1013E000232B242B252B21F408950A2609F4A14050
:1013F000A6958FEF811D811D089557FD9058440FCC
:10140000551F59F05F3F71F04795880F97FB991F63
:1014100061F09F3F79F08795089512161306140620
:10142000551FF2CF4695F1DF08C0161617061806AD
:10143000991FF1CF86957105610508940895E89488
:10144000BB2766277727CB0197F908950E94D90912
:1014500008F48FEF08950E943E0A0C94AF0A0E9490
:10146000A10A38F00E94A80A20F0952311F00C94EC
:10147000980A0C949E0A11240C94200A0E94FD09DB
:1014800070F3959FC1F3950F50E0551F629FF001D7
:10149000729FBB27F00DB11D639FAA27F00DB11DF0
:1014A000AA1F649F6627B00DA11D661F829F222779
:1014B000B00DA11D621F739FB00DA11D621F839F00
:1014C000A00D611D221F749F3327A00D611D231FD6
:1014D000849F600D211D822F762F6A2F11249F5724
:1014E00050409AF0F1F088234AF0EE0FFF1FBB1F27
:1014F000661F771F881F91505040A9F79E3F5105E6
:1015000080F00C94980A0C94200A5F3FE4F3983E14
:10151000D4F3869577956795B795F795E7959F5F8F
:10152000C1F7FE2B880F911D9695879597F9089521
:1015300097F99F6780E870E060E008959FEF80EC86
:10154000089500240A941616170618060906089529
:1015500000240A9412161306140605060895092E8F
:101560000394000C11F4882352F0BB0F40F4BF2BFE
:1015700011F460FF04C06F5F7F4F8F4F9F4F08953E
:10158000EE0FFF1F881F8BBF0790F691E02D199477
:04159000F894FFCFFD
:10159400000000005602C001ED01A3021E02FC017E
:0215A400100233
:00000001FF
