:100000000C94BB010C941A2F0C94EF2E0C94C42E5C
:100010000C94992E0C946E2E0C94432E0C94182E46
:100020000C94ED2D0C94EC010C94EC010C94EC016F
:100030000C94EC010C94EC010C94EC010C94EC018C
:100040000C94EC010C94CF2F0C94EC010C94EC016B
:100050000C94EC010C94EC010C94EC010C94A32D89
:100060000C94EC010C946D2D0C94432D0C94EC012C
:100070000C94EC010C94EC010C94EC010C94EC014C
:100080000C94A12F0C94EC010C94EC010C94EC0159
:100090000C94EC010C94EC010C94EC010C94FD2FED
:1000A0000C94EC010C94EC010C94732F0C94EC0167
:1000B0000C94EC010C94EC010C94EC010C94452F85
:1000C0000C94EC010C94EC010C94EC010C94EC01FC
:1000D0000C94EC010C94EC010C94EC010C94EC01EC
:1000E0000C94EC0105A84CCDB2D44EB93836A90217
:1000F0000C50B9918688083CA6AAAA2ABE00000026
:10010000803F0C943E310C942B060C94E9050C9422
:10011000A1070C942E050C940E210C949C0A0C94AF
:1001200021060C9444060C9458050C94DA030C94A4
:10013000F3050C943A060C9462060C9402050C9498
:10014000FC030C94A2070C94210B0C94AB0A0C94A6
:10015000CB030C94BE0A0C94F2010C94C62C0C94A4
:10016000EE010C9434040C9421050C9446050C9477
:100170000D060C949E030C9407050C9458060C94E1
:100180003C050C944A050C944E060C94F3010C9417
:1001900054050C94C50A0C9417060C944E050C9447
:1001A0001D050C944D240C949B0A0C94FD050C9495
:1001B000D2050C9440050C9432050C9425050C9442
:1001C000EE030C9405060C94E6060C94DF050C94E3
:1001D0006C060C9419050C94F20A0C9438050C94D6
:1001E00081040C9428050C94DA05000021002400F9
:1001F00027002A002D003000330001010000040117
:1002000007010A0100002200250028002B002E0013
:100210003100340002010000050108010B01050551
:100220000505070508080808020202020A0A08086C
:10023000040404040101010101010101030303039A
:1002400003030303040707070C0C0C0C0C0C0C0C29
:100250000202020206060606060606060B0B0B0B3A
:100260000B0B0B0B0102102020080810204010205F
:10027000408002010201080402010102040810206A
:100280004080804020100804020180040201804068
:1002900020100804020108040201010204081020D1
:1002A0004080010204081020408000000A0B02096F
:1002B0000C0D0E0807030401000000000000000000
:1002C000000000000000000000000000000000002E
:1002D00000000000000012111000000000000000EB
:1002E000000000000000000000000000000000000E
:1002F0004661696C656420746F20626F6F7420734F
:1003000065636F6E6420564C35334C30580046613F
:10031000696C656420746F20626F6F742066697207
:10032000737420564C35334C3058005374617274DA
:10033000696E672E2E2E00426F746820696E2072DF
:1003400065736574206D6F64652E2E2E2870696E3E
:100350007320617265206C6F77290053687574642F
:100360006F776E2070696E7320696E697465642E94
:100370002E2E00003E3111241FBECFEFD1E2DEBF92
:10038000CDBF00E00CBF14E0A0E0B2E0E8EEF2E880
:1003900000E00BBF02C007900D92A031B107D9F762
:1003A0002AE0A0E1B4E001C01D92A73DB207E1F749
:1003B00011E0CBEBD1E000E006C021970109802FCE
:1003C000FE010E942F40CA3BD10780E00807A9F731
:1003D0000E947B340C9472410C94000081E0809365
:1003E00061040895089508952091FB093091FC0956
:1003F000820F931F883621E092073CF08856914087
:100400009093FC098093FB09089597FFF9CF8859D1
:100410009E4FF6CFCF92DF92EF92FF92DC01A03297
:1004200082E0B807D4F5A53BB10514F0A4EBB0E029
:100430004091210628E830E0241B310947FD33951F
:10044000220F331F220F331F6901330FEE08FF08FD
:100450004091220628E532E0241B310947FD3395FF
:10046000220F331F220F331F032E000C440B550B9A
:100470002C193D094E095F09B7FF02C0B0E0A0E0AA
:100480000E94353E24EB30E040E050E00E940B3EFD
:10049000C20ED31EE41EF51ED601E0912006E03305
:1004A00080F52091210688E890E0821B910927FDC4
:1004B0009395880F991F880F991FA817B90784F083
:1004C0002091220688E592E0821B910927FD9395F1
:1004D000880F991F880F991FA817B9070CF4CD0131
:1004E0000297880F991F4FB7F8942E2F30E0F9012B
:1004F000EE0FFF1FE20FF31FED57FA4F9283818338
:100500004FBFFF90EF90DF90CF90089580911F0A2A
:100510009091200A9C01265A3F4F283641E034072B
:100520003CF08E5091409093260A8093250A0895BE
:1005300037FD05C03093260A2093250A08958E536F
:100540009E4FF1CF80911F0A9091200A9C012A555D
:100550003109283641E034073CF0825C91409093A9
:10056000240A8093230A089537FD05C03093240A96
:100570002093230A0895825F9E4FF1CF80911F0A36
:100580009091200A9C012C543F4F283641E03407BB
:100590003CF0845B91099093220A8093210A08958C
:1005A00037FD05C03093220A2093210A0895845E06
:1005B0009D4FF1CFCF93DF9300D01F92CDB7DEB721
:1005C00019821A821B821C8289819A81AB81BC812B
:1005D0008A3F9105A105B10568F4000089819A81DF
:1005E000AB81BC810196A11DB11D89839A83AB8328
:1005F000BC83EACF80E00F900F900F900F90DF91B7
:10060000CF9108954F925F926F927F928F929F92B7
:10061000AF92BF92CF92DF92EF92FF920F931F9310
:10062000CF93F9010FEF1FEF98010083118322830D
:1006300033834A015B01B3E0B694A79497948794FF
:10064000BA95D1F76A017B0127E0C222DD24EE24AE
:10065000FF2495018401C0E0063011052105310514
:1006600008F041C0C1113FC0DC01A00FB11F6C9167
:10067000412C512C320180169106A206B30649F492
:1006800070E00C2C02C0759567950A94E2F726017C
:100690003701462F50E060FF17C0B901A801A3E061
:1006A000440F551F661F771FAA95D1F7440E551E9C
:1006B000661E771E4082518262827382C1E00F5FA4
:1006C0001F4F2F4F3F4FC8CFBA01759567954FEF1A
:1006D000441A540A640A740A48E044165104610436
:1006E0007104B9F6ECCFCF911F910F91FF90EF906D
:1006F000DF90CF90BF90AF909F908F907F906F9042
:100700005F904F90089520911F0A3091200A820F28
:10071000931F883621E0920764F0885691409093A9
:10072000200A80931F0A0E94BE020E94A2020C941B
:10073000860297FFF4CF88599E4FF1CFAF92BF92B8
:10074000CF92DF92EF92FF920F931F93CF93DF939D
:100750006C017B018B01040F151FEB015E01AE18CC
:10076000BF08C017D10759F06991D601ED91FC91EE
:100770000190F081E02DC6011995892B79F7C5010B
:10078000DF91CF911F910F91FF90EF90DF90CF906D
:10079000BF90AF900895FC01538D448D252F30E01C
:1007A000842F90E0821B930B541710F0CF9608957E
:1007B00001970895FC01918D828D981761F0A28DAB
:1007C000AE0FBF2FB11D5D968C91928D9F5F9F7371
:1007D000928F90E008958FEF9FEF0895FC01918D27
:1007E000828D981731F0828DE80FF11D858D90E094
:1007F00008958FEF9FEF0895FC01918D228D892F31
:1008000090E0805C9F4F821B91098F739927089518
:1008100086EE94E00E94FC0321E0892B09F420E09D
:10082000822F0895FC01A48DA80FB92FB11DA35AE2
:10083000BF4F2C91848D90E001968F739927848F00
:10084000A689B7892C93A089B1898C918370806423
:100850008C93938D848D981306C00288F389E02DC4
:1008600080818F7D80830895EF92FF920F931F9375
:10087000CF93DF93EC0181E0888F9B8D8C8D981353
:100880001AC0E889F989808185FF15C09FB7F8945F
:10089000EE89FF896083E889F989808183708064AB
:1008A00080839FBF81E090E0DF91CF911F910F91F6
:1008B000FF90EF900895F62E0B8D10E00F5F1F4F05
:1008C0000F731127E02E8C8D8E110CC00FB607FC14
:1008D000FACFE889F989808185FFF5CFCE010E94A2
:1008E0001204F1CFEB8DEC0FFD2FF11DE35AFF4FFA
:1008F000F0829FB7F8940B8FEA89FB898081806230
:10090000CFCFCF93DF93EC01888D8823B9F0AA89EC
:10091000BB89E889F9898C9185FD03C0808186FDBA
:100920000DC00FB607FCF7CF8C9185FFF2CF808109
:1009300085FFEDCFCE010E941204E9CFDF91CF9168
:10094000089580E090E0892B29F00E94080481112D
:100950000E94000080E090E0892B49F080E090E068
:10096000892B29F00E94000081110E94000080E084
:1009700090E0892B49F080E090E0892B29F00E94DB
:10098000000081110E94000080E090E0892B49F076
:1009900080E090E0892B29F00E94000081110C94E6
:1009A00000000895282F30E0F901E655FD4F94919D
:1009B000F901EC59FD4F4491225E3D4FF90124911C
:1009C000222309F435C0992311F191509231F8F4A2
:1009D000E92FF0E08827E051FB4F8F4F0C942F4018
:1009E00021052505020519051D05070528052E0504
:1009F000320538053C05400546054A0507054E0504
:100A000054055805809180008F7780938000E22FF5
:100A1000F0E0EE0FFF1FEC5FFD4FA591B4918FB793
:100A2000F894EC91611148C040954E234C938FBFD0
:100A30000895809180008F7DE8CF80918000877F2E
:100A4000E4CF84B58F7784BDE2CF84B58F7DFBCFB3
:100A50008091B0008F778093B000D9CF8091B000A3
:100A60008F7DF9CF809190008F7780939000CFCFCA
:100A7000809190008F7DF9CF80919000877FF5CF96
:100A80008091A0008F778093A000C1CF8091A000BB
:100A90008F7DF9CF8091A000877FF5CF80912001D5
:100AA0008F7780932001B3CF809120018F7DF9CF84
:100AB00080912001877FF5CF4E2BB8CFCF93DF9366
:100AC00090E0FC01EC59FD4F2491825E9D4FFC01AA
:100AD00084918823C9F090E0880F991FFC01E651AA
:100AE000FE4FA591B491FC01EC5FFD4FC591D491EF
:100AF00061110DC09FB7F8948C91209582238C933F
:100B00008881282328839FBFDF91CF910895623089
:100B100051F49FB7F8943C91822F809583238C9356
:100B2000E8812E2BEFCF8FB7F894EC912E2B2C93DE
:100B30008FBFEACF1F93CF93DF93182FEB0161E0B4
:100B40000E945E05209739F460E0812FDF91CF91FC
:100B50001F910C94D204CF3FD10511F461E0F5CF81
:100B6000E12FF0E0E655FD4FE491E150E23108F06D
:100B7000B3C0F0E08827E054FA4F8F4F0C942F4019
:100B8000D205DA05DF05E905F3056C06FD05050666
:100B90000D06170621062B063A0644066C064E067D
:100BA0005806620684B5806884BDC7BDDF91CF91C9
:100BB0001F91089584B5806284BDC8BDF7CF809130
:100BC0008000806880938000D0938900C093880063
:100BD000EDCF80918000806280938000D0938B0065
:100BE000C0938A00E3CF809180008860809380006A
:100BF000D0938D00C0938C00D9CF8091B0008068D5
:100C00008093B000C093B300D1CF8091B0008062D8
:100C10008093B000C093B400C9CF809190008068E9
:100C200080939000D0939900C0939800BFCF80919B
:100C30009000806280939000D0939B00C0939A00B4
:100C4000B5CF80919000886080939000D0939D00F4
:100C5000C0939C00ABCF8091A00080688093A000DF
:100C60008091A0008F7B8093A000D093A900C093B7
:100C7000A8009CCF8091A00080628093A000D093B8
:100C8000AB00C093AA0092CF8091A00088608093AF
:100C9000A000D093AD00C093AC0088CF809120011C
:100CA000806880932001D0932901C09328017ECFD2
:100CB00080912001806280932001D0932B01C0930A
:100CC0002A0174CF80912001886080932001D09305
:100CD0002D01C0932C016ACFC038D1050CF03ECF56
:100CE00033CF863308F0865320917B00982F98707D
:100CF000277F922B90937B008770806480937C0089
:100D000080917A00806480937A0080917A0086FDD9
:100D1000FCCF809178009091790008953FB7F894C6
:100D200080915B0490915C04A0915D04B0915E049D
:100D300026B5A89B05C02F3F19F00196A11DB11D36
:100D40003FBFBA2FA92F982F8827BC01CD01620F72
:100D5000711D811D911D42E0660F771F881F991F2D
:100D60004A95D1F708958F929F92AF92BF92CF92FA
:100D7000DF92EF92FF926B017C010E948E064B0185
:100D80005C01C114D104E104F104B9F00E948E06A3
:100D9000681979098A099B09683E734081059105A4
:100DA00080F321E0C21AD108E108F10888EE880E2C
:100DB00083E0981EA11CB11CE4CFFF90EF90DF9060
:100DC000CF90BF90AF909F908F9008950895AF926D
:100DD000BF92CF92DF92EF92FF920F931F93CF9328
:100DE000DF936B017A01EC01CA5ADB4F28813CE0AA
:100DF000389F8001399F100D1124A0901306B12C4B
:100E000027FF1FC0FB011182108288818F5F8883BA
:100E100088819801280F311D87FD3A95F6012A1522
:100E20003B051CF488818C30C4F18081918104964B
:100E300080349C4908F473C0F60180819181049646
:100E400070C088819801280F311D87FD3A952A15B9
:100E50003B05DCF68881A801480F511D87FD5A9596
:100E6000FA01EE0FFF1FE40FF51FED57FA4F8081D7
:100E700086FFCBCF8881F801E80FF11D87FDFA9539
:100E8000CF01EE0FFF1FE80FF91FED57FA4F8081DA
:100E900060E08F730E94D204B8CF80819181288155
:100EA000A801420F511D27FD5A959A01FA01EE0F34
:100EB000FF1FE20FF31FED57FA4F21813281820F9E
:100EC000931FF7019183808388819801280F311D3A
:100ED00087FD3A95F901EE0FFF1FE20FF31FED5763
:100EE000FA4F808186FF22C08881080F111D87FD7F
:100EF0001A95F801EE0FFF1FE00FF11FED57FA4FA3
:100F0000808161E08F73DF91CF911F910F91FF90EE
:100F1000EF90DF90CF90BF90AF900C94D20480E41C
:100F20009CE9F701918380838FEF8883DF91CF91D4
:100F30001F910F91FF90EF90DF90CF90BF90AF90F7
:100F400008950895089520913304260F3327331F01
:100F500021323105ECF42091BC04FC0190E080E0EA
:100F6000243069F082E00895A09133042191AC010E
:100F70004D5E5B4FA40FB52FB11D2C9301968617C4
:100F800098F380913304680F6093330480E00895F0
:100F900081E008951092BC0481E08093BB0410921C
:100FA000960461E084E10E94D20461E085E10E9440
:100FB000D204E9EBF0E080818E7F808380818D7F99
:100FC000808388E48093B80085E48093BC00089512
:100FD00010927504109274041092C3041092E504E8
:100FE0000E94CA0782EF91E0909373048093720489
:100FF00083EF91E090937104809370040895CF93F0
:10100000DF9391E0909312048823B9F0C091B80067
:10101000D091BA008091BC008A7B8093BC0060E0D4
:1010200084E10E94D20460E085E10E94D2040E9423
:10103000CA07D093BA00C093B800DF91CF9108954A
:101040008F929F92AF92BF92CF92DF92EF92FF92D8
:101050000F931F93CF93DF93D091E504D13208F023
:10106000D7C0182FC091E4040E948E066B017C014A
:101070008091BC0481116BC082E08093BC0410930A
:10108000BB048FEF8093BA041092B904D093B804D4
:10109000A4ECB4E0E8E9F4E080E0D81391C0109249
:1010A000970480919704CC0FC82BC093970480912C
:1010B0009604813009F088C0109296040E948E0632
:1010C0006B017C01809197048093BB008091BE04EA
:1010D0009091BF04A091C004B091C104892B8A2BC8
:1010E0008B2BA1F00E948E060091BE041091BF04CC
:1010F0002091C0043091C1046C197D098E099F09AB
:10110000061717072807390708F442C08091BC006A
:1011100083FDD8CF85EC8093BC000E948E066B01C6
:101120007C018091BC04823009F450C08091BA04E3
:101130008F3F09F46FC08091BA04803209F46CC00B
:101140008091BA04803309F469C084E026C080919C
:10115000BE049091BF04A091C004B091C104892B3A
:101160008A2B8B2B09F484CF0E948E068090BE04BC
:101170009090BF04A090C004B090C1046C197D0988
:101180008E099F0986169706A806B90608F070CF43
:101190008091BD040E94FF0785E01092C304109265
:1011A000E5041092C204DF91CF911F910F91FF903F
:1011B000EF90DF90CF90BF90AF909F908F90089569
:1011C0009D9191938F5F69CF85EEA5CF8091BE04ED
:1011D0009091BF04A091C004B091C104892B8A2BC7
:1011E0008B2B09F49ECF0E948E060091BE041091B5
:1011F000BF042091C0043091C1046C197D098E098F
:101200009F09061717072807390708F08ACFC0CFAC
:1012100081E0C3CF80E0C1CF82E0BFCF83E0BDCF0C
:101220008F929F92AF92BF92CF92DF92EF92FF92F6
:101230000F931F93CF93DF936A014801E70191E079
:101240009093C2048093E4041092C3041092E504C6
:10125000E881F9810190F081E02DC70119958C0C8E
:101260009D1CC814D90459F0E881F9810190F081DE
:10127000E02DD6016D916D01CE011995F2CF81E07F
:101280000E94200890E080E0DF91CF911F910F91A4
:10129000FF90EF90DF90CF90BF90AF909F908F9096
:1012A0000895EF92FF920F931F93CF93DF931F92B6
:1012B0001F92CDB7DEB7FC01EF5BFE4F7081349615
:1012C000E080F1804A83598302E010E020E030E0C2
:1012D000AE014F5F5F4F872F0E941009892B51F09D
:1012E0008CEE0F900F90DF91CF911F910F91FF9097
:1012F000EF90089580E0F5CFEF92FF920F931F9348
:10130000CF93DF931F92CDB7DEB7FC01EF5BFE4FAB
:1013100070813496E080F180498301E010E020E0A4
:1013200030E0AE014F5F5F4F872F0E941009892B7D
:1013300049F08CEE0F90DF91CF911F910F91FF90AC
:10134000EF90089580E0F6CFEF92FF920F931F93F6
:10135000AB01FC01EB5BFE4FE080F1808F5B9E4FA9
:1013600006E010E020E030E060EBFC0180810E94AC
:101370001009892B31F08CEE1F910F91FF90EF90A7
:10138000089580E0F9CF8F929F92AF92BF92CF9253
:10139000DF92EF92FF920F931F93CF93DF93D82F9B
:1013A000C62F142F613208F09CC00E948E066B017C
:1013B0007C018091BC0481116FC081E08093BC04EA
:1013C0001093BB049FEF9093BA041092B9049C0F42
:1013D0009093B8048093970480919704DD0FD82BE5
:1013E000D093970480919604813009F07CC01092CC
:1013F00096040E948E066B017C0180919704809375
:10140000BB008091BE049091BF04A091C004B09134
:10141000C104892B8A2B8B2BA1F00E948E06009190
:10142000BE041091BF042091C0043091C1046C1916
:101430007D098E099F09061717072807390708F441
:101440004CC08091BC0083FDD8CF85EC8093BC005C
:101450000E948E066B017C018091BC04813009F4EE
:1014600044C08091B9048C1710F4C091B904E8E924
:10147000F4E0A6E7B4E080E08C1359C08C2FDF9134
:10148000CF911F910F91FF90EF90DF90CF90BF9081
:10149000AF909F908F9008958091BE049091BF046B
:1014A000A091C004B091C104892B8A2B8B2B09F425
:1014B00080CF0E948E068090BE049090BF04A090C2
:1014C000C004B090C1046C197D098E099F0986166D
:1014D0009706A806B90608F06CCF8091BD040E945B
:1014E000FF07C0E0CBCF85EEB1CF8091BE049091D5
:1014F000BF04A091C004B091C104892B8A2B8B2B0F
:1015000009F4AACF0E948E060091BE041091BF0478
:101510002091C0043091C1046C197D098E099F0986
:10152000061717072807390708F096CFD6CF9191ED
:101530009D938F5FA1CF0895E0917504809174040D
:10154000E81730F4F0E0EA58FB4F808190E008950E
:101550008FEF9FEF089590917504809174042FEFA1
:101560003FEF981748F4E92FF0E0EA58FB4F20814D
:1015700030E09F5F90937504C901089580917404D1
:1015800090917504891B990B0895CF92DF92EF9289
:10159000FF920F931F93CF93DF937C01CB018A01BE
:1015A0002091C204222389F0EB016B01C40ED51EE9
:1015B000CC15DD0569F06991D701ED91FC910190A1
:1015C000F081E02DC7011995F3CF642F0E94A30786
:1015D000C801DF91CF911F910F91FF90EF90DF90A5
:1015E000CF900895CF93DF931F92CDB7DEB7698375
:1015F0002091C2042223F9F02091E504203258F012
:1016000021E030E0FC013383228390E080E00F9002
:10161000DF91CF9108958091C304E82FF0E0EC535F
:10162000FB4F998190838F5F8093C3048093E5047F
:1016300081E090E0ECCF61E0CE0101960E94A3072B
:10164000F7CF90E080E00895CF93DF93EC018B819A
:101650008823A1F0888191E09093C2048093E404F0
:101660001092C3041092E50481E00E94200891E0EA
:10167000811190E0892FDF91CF9108950E94E807B2
:1016800081E08B83CE010E94240B982F8111E2CF41
:10169000F1CFCF92DF92EF92FF921F93CF93DF9320
:1016A000EC016A017B0168817981072E000C880BAF
:1016B000990B0E94BC3CA70196010E941B3D6B0147
:1016C0007C011A8120E030E0A9010E94A53F181694
:1016D000DCF520E030E04FE753E4C701B6010E949B
:1016E000A53F181634F4C12CD12C9FE7E92E93E4C2
:1016F000F92EC701B6010E94303F6B018E819F8198
:10170000892B99F061E0812F0E94D20460E08C81E6
:101710000E94D204B6018E81DF91CF911F91FF907C
:10172000EF90DF90CF900C949A05B601812F0E9424
:101730009A0560E08C81DF91CF911F91FF90EF902F
:10174000DF90CF900C94D20420E030E0A901C701D3
:10175000B6010E94B53C87FF26C020E030E04FE78D
:1017600053ECC701B6010E94B53C87FF06C0C12CEF
:10177000D12C8FE7E82E83ECF82EC701B6019058E4
:101780000E94303F6B018E819F8160E0892B29F0A0
:10179000812F0E94D20461E0BACF812F0E94D2042F
:1017A000B6018C81B9CF6885812F0E94D2046885EB
:1017B000C1CFCF93DF93C7E5DAE040E050E0BA0154
:1017C0008C899D890E94490B40E050E0BA018E89C6
:1017D0009F890E94490B40E050E0BA018A8D9B8DA1
:1017E0000E94490B40E050E0BA01888D998DDF914D
:1017F000CF910C94490B8F929F92AF92BF92CF9250
:10180000DF92EF92FF92CF93DF936B017C01C7E5EC
:10181000DAE0BC01A6018C899D890E94490B460132
:101820005701B7FAB094B7F8B094B501A4018E8906
:101830009F890E94490BB701A6018A8D9B8D0E944A
:10184000490BB501A401888D998DDF91CF91FF904F
:10185000EF90DF90CF90BF90AF909F908F900C94BF
:10186000490B8F929F92AF92BF92CF92DF92EF92ED
:10187000FF92CF93DF936B017C014B015C01B7FAC0
:10188000B094B7F8B094C7E5DAE0B501A4018C894B
:101890009D890E94490BB701A6018E899F890E94EC
:1018A000490BB501A4018A8D9B8D0E94490BB7019C
:1018B000A601888D998DDF91CF91FF90EF90DF90F9
:1018C000CF90BF90AF909F908F900C94490BFC01EC
:1018D00001900020E9F73197AF01481B590BBC017B
:1018E00086EE94E00C949E03CF93DF93D0E0C0E0AB
:1018F000009719F00E94670CEC018DE493E00E94C0
:10190000670C8C0F9D1FDF91CF9108950F931F934C
:10191000CF93DF938C01D0E0C0E0F801EC0FFD1F06
:101920006491662341F086EE94E00E943404892B92
:1019300011F02196F2CF8DE493E00E94670C8C0F9A
:101940009D1FDF91CF911F910F9108951F93CF930A
:10195000DF93DC011496ED91FC91E417F50710F488
:1019600090E01FC0122FEA01FC0181819281208149
:1019700031E03093C2042093E4041092C304109227
:10198000E504DC01ED91FC910280F381E02D1995D5
:10199000C817D90729F7812F0E94200891E08111EB
:1019A000DFCF892FDF91CF911F910895CF93DF93E0
:1019B0001F921F92CDB7DEB789836A8321E042E090
:1019C00050E0BE016F5F7F4F8091CF099091D009A9
:1019D0000E94A60C0F900F90DF91CF910895CF93A6
:1019E000DF931F921F92CDB7DEB7606869834A8389
:1019F00021E042E050E0BE016F5F7F4FFC0180813B
:101A000091810E94A60C0F900F90DF91CF910895C5
:101A10008F929F92AF92BF92DF92EF92FF920F93BD
:101A20001F93CF93DF93D82EEA01480181E0809382
:101A3000C204D092E4041092C3041092E504D701CA
:101A4000ED91FC910190F081E02DC701199581E0A5
:101A50000E94200841E0602F8D2D0E94C309109242
:101A60007504809374048C0E9D1EC815D90551F021
:101A7000D701ED91FC910284F385E02DC701199502
:101A80008993F3CF90E080E0DF91CF911F910F9188
:101A9000FF90EF90DF90BF90AF909F908F90089550
:101AA0002F923F924F925F926F927F928F929F926E
:101AB000AF92BF92CF92DF92EF92FF920F931F935C
:101AC000CF93DF93CDB7DEB72F970FB6F894DEBF75
:101AD0000FBECDBF9C878B876D875F874E8739018F
:101AE000170128012F82388649865A8610E000E0C7
:101AF000EE24E394F12C0A151B0509F461C09E0144
:101B0000295F3F4FB201A1018E859F850E9402038C
:101B10004F81588569857A854F3F2FEF52076207BD
:101B2000720709F49CC0DB01CA018C549F4FAF4F70
:101B3000BF4FE6E0B695A79597958795EA95D1F7BB
:101B4000880F991F880F991F855F9C4F21E0FC012A
:101B500080819181A281B381892B8A2B8B2B09F4FF
:101B600020E0FD85F2137BC01A012B0133E056946F
:101B70004794379427943A95D1F7DB01CA018770CF
:101B80009927AA27BB2726E02216310441045104D5
:101B900068F4F301E20DF31D970102C0220F331F19
:101BA0008A95E2F7C9019081892B80831A012B0164
:101BB0003FEF231A330A430A530A0F5F1F4F9BCF8D
:101BC000B12CF4012082318242825382B1102DC0A7
:101BD000B3018B859C850E94A409B82E811125C074
:101BE000EB85FC85EB5BFE4FE080F180EB85FC85AF
:101BF000EF5BFE4F06E010E020E030E0AE014F5F0B
:101C00005F4F60EB80810E94080D892B11F09CEEE4
:101C1000B92EF301DE011196C301069631912D9183
:101C2000321320C0E817F907C9F78B2D2F960FB68E
:101C3000F894DEBF0FBECDBFDF91CF911F910F9102
:101C4000FF90EF90DF90CF90BF90AF909F908F90DC
:101C50007F906F905F904F903F902F9008952EEC63
:101C6000B22EAFCF8EECB82EE0CFCF92DF92EF92B4
:101C7000FF920F931F93CF93DF9300D01F92CDB7A6
:101C8000DEB76A01FC01EB5BFE4FE080F1808F5B09
:101C90009E4F04E010E020E030E0AE014F5F5F4F68
:101CA000FC0180810E94080D49815A8154274527F3
:101CB000542770E060E0762F652F542F44272B8146
:101CC000422B762F652F542F44272C81422BF6016F
:101CD0004083518362837383892B71F480E00F907A
:101CE0000F900F900F90DF91CF911F910F91FF9068
:101CF000EF90DF90CF9008958CEEF1CFCF92DF92EE
:101D0000EF92FF920F931F93CF93DF931F921F9237
:101D1000CDB7DEB76A01FC01EB5BFE4FE080F180DE
:101D20008F5B9E4F02E010E020E030E0AE014F5F9D
:101D30005F4FFC0180810E94080D29813A81322782
:101D400023273227F60131832083892B61F480E039
:101D50000F900F90DF91CF911F910F91FF90EF9017
:101D6000DF90CF9008958CEEF3CFEF92FF920F9318
:101D70001F93CF93DF931F921F92CDB7DEB78C01D5
:101D80007A016330710509F449C090F4613071053E
:101D900009F162307105E1F1F80181A992A9A3A9C5
:101DA000B4A9F70180839183A283B38380E049C003
:101DB0006630710588F7AE014F5F5F4F64E60E94A1
:101DC0007E0E81113EC0298180E0922F990FB0E0F4
:101DD000A0E0E7CFAE014F5F5F4F64E40E947E0E4C
:101DE00081112FC0998120E0392F330FA90170E0B4
:101DF00060E0232BD1F0F70140835183628373832A
:101E0000F80145AB56AB67AB70AF91E096A319C034
:101E1000FC0181AD92ADA3ADB4ADC3CFFC01FD9685
:101E200080819181A281B381BCCFF80145A956A9D7
:101E300067A970ADF7014083518362837383F80112
:101E400016A20F900F90DF91CF911F910F91FF90ED
:101E5000EF9008958F929F92AF92BF92CF92DF92B0
:101E6000EF92FF920F931F93CF93DF931F921F92D6
:101E7000CDB7DEB7962ED42E822EFC01EF5BFE4F3F
:101E8000C0805C012BEBA21A2EEFB20AF501E080B4
:101E9000F18001E010E020E030E0AE014E5F5F4FE6
:101EA0008C2D0E94080D892BA9F42A812D21282927
:101EB0002A83F501E080F180298301E010E020E031
:101EC00030E0AE014F5F5F4F692D8C2D0E941009ED
:101ED000892B81F08CEE0F900F90DF91CF911F91A5
:101EE0000F91FF90EF90DF90CF90BF90AF909F90B9
:101EF0008F90089580E0EFCFEF92FF920F931F93A2
:101F0000FC01EB5BFE4FE080F1808F5B9E4F01E0B8
:101F100010E020E030E0FC0180810E94080D892B58
:101F200031F08CEE1F910F91FF90EF90089580E0BB
:101F3000F9CFEF92FF920F931F93CF93DF931F92EE
:101F4000CDB7DEB77C0100E041E06BE0C7010E9445
:101F50007C09182F40E06BE0C7010E947C09182B18
:101F6000AE014F5F5F4F63E1C7010E947C0F812B81
:101F70000F5F9981977061F0033061F0882321F33E
:101F80000F90DF91CF911F910F91FF90EF900895E7
:101F90000330B1F784EFF4CF0F931F93CF93DF9308
:101FA0001F92CDB7DEB78A01AE014F5F5F4F613040
:101FB00081F060E50E947C0F811105C099819F5FCF
:101FC000990FF80190830F90DF91CF911F910F919E
:101FD000089560E7EFCFCF92DF92EF92FF921F93C9
:101FE000CF93DF931F92CDB7DEB77C0140E063E86B
:101FF0000E947C09182F811117C0D12CC12CAE0171
:102000004F5F5F4F63E8C7010E947C0F182F8981E3
:1020100081110AC0111108C08FEFC81AD80A88ECC4
:10202000C816D10461F719EF41E063E8C7010E94C7
:102030007C09812B0F90DF91CF911F91FF90EF9042
:10204000DF90CF900895CF92DF92EF92FF920F939F
:102050001F93CF93DF931F92CDB7DEB77C0110E0C3
:1020600000E06C018EECC80ED11CF6018081AE013F
:102070004F5F5F4F8430A9F463E1C7010E947C0F7A
:102080009981292F2770987111F58823D9F00F9025
:10209000DF91CF911F910F91FF90EF90DF90CF9044
:1020A000089564E1C7010E947C0F8111F0CF9981EE
:1020B00090FDEDCF0F5F1F4F083C110531F00E94DE
:1020C000DA02D3CF2430B1F7E2CF89EFE0CF8AEF45
:1020D000DECFCF93DF93EC01462F416060E00E949A
:1020E0007C09811111C0CE010E94231081110CC006
:1020F000CE010E94990F811107C040E060E0CE013F
:10210000DF91CF910C947C09DF91CF9108950F93CB
:102110001F93CF93DF931F92CDB7DEB78B01198248
:10212000AE014F5F5F4F61E00E947C0F811116C0CE
:10213000998194FB332730F9F801308393FB3327DF
:1021400030F9328392FB332730F9318396FB222713
:1021500020F92383991F9927991F94830F90DF916A
:10216000CF911F910F9108952F923F924F925F92BE
:102170006F927F928F929F92AF92BF92CF92DF9297
:10218000EF92FF921F93CF93DF9300D000D000D047
:102190001F921F92CDB7DEB76C011A011B861F82FA
:1021A0001E82623009F06EC0AE01465F5F4F60E094
:1021B0000E94CC0F182F811108C0AE01455F5F4F00
:1021C00066E4C6010E947C0F182FAA85B0E020E0CB
:1021D0003FE24AE350E00E942A3E2B013C0124EFFB
:1021E000420E21E0521E611C711CCB84D12CF12CBB
:1021F000E12C8FEFC81AD80AE80AF80A98EE892E5F
:1022000093E0992EA12CB12CC301B201A501940138
:102210000E94E93DCA01B901A70196010E94D93D7A
:102220006B017C01C301B20120ED37E040E050E0DA
:102230000E94E93DC701B601620F731F841F951FFD
:10224000A50194010E94E93DF1012083318342837D
:102250005383812F2B960FB6F894DEBF0FBECDBFF0
:10226000DF91CF911F91FF90EF90DF90CF90BF90C3
:10227000AF909F908F907F906F905F904F903F9026
:102280002F900895633009F043C0AE01465F5F4F61
:1022900060E00E94CC0F182F20E030E0A9018111EE
:1022A000D3CFAE01465F5F4F60E0C6010E94CC0F06
:1022B000182F811108C0AE014A5F5F4F61E5C6016A
:1022C0000E947E0E182FEE81FF81AA85B0E020E0EB
:1022D0003FE24AE350E00E942A3E2B013C0124EFFA
:1022E000420E21E0521E611C711C6F01DD24F12C95
:1022F000E12C04C0CC0CDD1CEE1CFF1CFA95D2F7BF
:102300008FEFC81AD80AE80AF80AEE24FF2476CF1D
:10231000BE016F5F7F4F0E9487108C81882351F12F
:10232000AE01465F5F4F60E0C6010E94CC0F182FE0
:10233000F12CE12C81111BC0AE014A5F5F4F61E5BA
:10234000C6010E947E0E182F2E813F81C901992758
:10235000B0E0A0E004C0880F991FAA1FBB1F3A95E8
:10236000D2F70196A11DB11D7C01112329F0D12CBA
:10237000C12C25C0F12CE12CAE01465F5F4F61E01E
:10238000C6010E94CC0F182F8111F1CFAE01485F1A
:102390005F4F61E7C6010E947E0E182F28853985A0
:1023A000C9019927B0E0A0E004C0880F991FAA1FB7
:1023B000BB1F3A95D2F70196A11DB11D6C01AA85EC
:1023C000B0E020E03FE24AE350E00E942A3E2B01C9
:1023D0003C01E4EF4E0EE1E05E1E611C711C88EED4
:1023E000882E83E0982EA12CB12CC301B201A50147
:1023F00094010E94E93DD601AE19BF090E942A3E10
:102400000FCF4F925F926F927F92BF92CF92DF92E7
:10241000EF92FF920F931F93CF93DF9300D01F9201
:10242000CDB7DEB78A01AE014F5F5F4F0E94B41097
:10243000B82E81112AC069817A818B819C8128EE16
:10244000422E23E0522E612C712CA30192010E9496
:10245000E93D69017A019B01AC01AFEFBFEF0E943A
:102460002A3E6C507E4F8F4F9F4FA30192010E94D6
:10247000E93D7601DD24CC24C20ED31EE41EF51EF8
:10248000F801C082D182E282F3828B2D0F900F90EF
:102490000F900F90DF91CF911F910F91FF90EF90D0
:1024A000DF90CF90BF907F906F905F904F90089596
:1024B0005F926F927F928F929F92AF92BF92CF92D4
:1024C000DF92EF92FF920F931F93CF93DF93CDB7DD
:1024D000DEB761970FB6F894DEBF0FBECDBF7C01AB
:1024E0008B01FC018089FB018083AE014A5F5F4F55
:1024F00068EFC7010E947E0E582E81113AC1AE01CD
:102500004F5F5F4F64E0C7010E94350E582E811166
:1025100030C12E813F812115310569F050E040E046
:1025200069817A818B819C810E94E93DF801268333
:10253000378340875187F80186819781A085B185CF
:10254000F701868B978BA08FB18FF8011286AE01B1
:102550004F5F5F4F60E2C7010E947E0E582E8111CF
:1025600008C189819A81009709F01AC1F701858D08
:10257000968DA78DB0A1F80185879687A787B08B28
:10258000F701128EAE014F5F5F4F68E2C7010E94F4
:102590007E0E582E8111EDC089819A819F70811520
:1025A000F8E09F0708F090514AEF489F9001499F3B
:1025B000300D1124C901330FAA0BBB0BF801818B1D
:1025C000928BA38BB48B5801F1E2AF0EB11C470183
:1025D00025E2820E911C380185E1680E711CD12C18
:1025E000C12CA501B601C7010E94B50E582E81115C
:1025F000C0C0F40181914F01F30181933F01FFEFCE
:10260000CF1ADF0A24E0A20EB11C86E0C816D1045E
:1026100041F7AE014F5F5F4F61E0C7010E947C0F41
:10262000582E8111A6C08981F701E35EFE4F808399
:1026300087FFCAC081E0F80181AFF80181ADF701E1
:10264000E75BFF4F808380ED97E0A0E0B0E08A87F2
:102650009B87AC87BD871E821F821886198686E3FA
:102660009BE0A0E0B0E0F80182839383A483B5836C
:10267000BE016F5F7F4FC7010E948710582E8111E6
:1026800078C08981811107C08A81811104C08B8142
:10269000882309F43EC0AE01465F5F4F62E0C70188
:1026A0000E94B4108111C1C089818823A9F08A8554
:1026B0009B85AC85BD85825B9D4FAF4FBF4FF801B9
:1026C0004281538164817581840F951FA61FB71FB6
:1026D00082839383A483B5838B81882309F477C095
:1026E0008A859B85AC85BD858E549D4FAF4FBF4F6E
:1026F000880F991FAA1FBB1FF80142815381648173
:102700007581840F951FA61FB71F82839383A483AF
:10271000B5838C81811168C08D81882301F1AE0160
:10272000425F5F4F64E0C7010E94B4108E849F84B3
:10273000A888B988F6E28F0EF2E09F1EA11CB11C9A
:10274000F8014281538164817581480D591D6A1DCC
:102750007B1D4283538364837583811166C0F801B6
:1027600082819381A481B581F701828B938BA48BA5
:10277000B58B852D61960FB6F894DEBF0FBECDBF29
:10278000DF91CF911F910F91FF90EF90DF90CF904D
:10279000BF90AF909F908F907F906F905F900895C3
:1027A00033E0880F991F3A95E1F7B0E0A0E0F80117
:1027B00085879687A787B08BF701858F968FA78F20
:1027C000B0A381E0828FDECEF80111AE36CF8A81D0
:1027D000882309F49ECF8A859B85AC85BD858C5660
:1027E0009D4FAF4FBF4F88CFAE014A5F5F4F63E051
:1027F000C7010E94B4108E809F80A884B984F4E938
:102800008F0EF2E09F1EA11CB11CF8014281538182
:1028100064817581480D591D6A1D7B1D4283538358
:1028200064837583882309F477CF582EA2CF5F92F3
:102830006F927F928F929F92AF92BF92CF92DF92D0
:10284000EF92FF920F931F93CF93DF937C013A0196
:10285000690120E041E050E00E94A60C582E882338
:1028600009F444C010E000E00C151D0508F03FC05D
:10287000D70114968D919C91E601C01BD10B8C174A
:102880009D0708F4EC0141E0C6018C1B9D0B081765
:10289000190708F440E06C2FC13208F060E2F7013C
:1028A00080810E94C30910927504809374048C1770
:1028B0001D06E1F44301800E911E5401C5018819E3
:1028C00099098C179D0778F4D70111968D919C91E9
:1028D000DC01ED91FC910284F385E02D1995F50161
:1028E00081935F01EBCF0C0F1D1FBECF512C852DA7
:1028F000DF91CF911F910F91FF90EF90DF90CF90DC
:10290000BF90AF909F908F907F906F905F90089551
:10291000CF93DF931F92CDB7DEB7198221E030E06D
:10292000AE014F5F5F4FBA018091CF099091D009FE
:102930000E94171489810F90DF91CF910895CF9352
:10294000DF931F921F92CDB7DEB71A82198260689B
:10295000698322E030E0AE014F5F5F4FBA01FC01B6
:10296000808191810E94171489819A810F900F9024
:10297000DF91CF9108958F929F92AF92BF92CF92A5
:10298000DF92EF92FF920F931F93CF93DF93CDB718
:10299000DEB7A1970FB6F894DEBF0FBECDBF6C01B6
:1029A000990FEE08FF08F7FE47C06DE286EE94E04F
:1029B0000E9434048C0122273327A9012C193D09D8
:1029C0004E095F0919A2CE0181967C019AE0892EF9
:1029D000912CA12CB12CCA01B901A50194010E942E
:1029E000E93D605DF70162937F01211531054105E5
:1029F000510589F790E080E0309719F0CF010E94EF
:102A0000670C080F191F8DE493E00E94670C800F7C
:102A1000911FA1960FB6F894DEBF0FBECDBFDF9118
:102A2000CF911F910F91FF90EF90DF90CF90BF90CB
:102A3000AF909F908F900895A701960119A28E01E3
:102A40000F5D1F4F8AE0C82ED12CE12CF12CCA015A
:102A5000B901A70196010E94E93D605DF80162930A
:102A60008F01211531054105510589F7309729F06E
:102A7000CF010E94670C8C01C6CF10E000E0C3CFED
:102A8000CF93DF936091FB097091FC09072E000C36
:102A9000880B990B0E94BC3C9B01AC016091EB0937
:102AA0007091EC098091ED099091EE090E944C3EE5
:102AB0000E94303FEB0177FF02C0C859DE4FCE01C4
:102AC0000E94BB14BE01DD0F880B990B0E94BC3C19
:102AD000DF91CF910895FC012FB7F89480916C0499
:102AE00090916D04A0916E04B0916F042FBF82830A
:102AF0009383A483B58380818130B9F020F0833043
:102B000031F1862F089581810E947106BC016B50BE
:102B100071098CE198E00E941B40633010F463E07F
:102B2000F0CF603270F36FE1ECCF81810E947106CB
:102B3000BC016451710980EC92E10E941B40693034
:102B400010F469E0DECF6235E0F261E5DACF818131
:102B50000E947106BC01990F880B990B0E94BC3C26
:102B600029E23CE547E851E40E944C3E9B01AC0160
:102B700060E078ED83E196E40E94BE3E0E94373F1C
:102B8000633110F463E1BDCF683908F4BACF67E967
:102B9000B8CFCF93DF931092140A1092130A1092B9
:102BA000160A1092150AD0E0C0E020910D0A30916B
:102BB0000E0AC217D3070CF075C080911F0A9091BE
:102BC000200A009721F58091010A9091020A0E9443
:102BD0006B152091130A3091140A820F932F911DC7
:102BE0009093140A8093130A8091030A9091040A27
:102BF0000E946B152091150A3091160A820F932FAF
:102C0000911D9093160A8093150A2196CECF8A358E
:102C10009105B1F48091070A9091080A0E946B1502
:102C20002091130A3091140A820F932F911D9093D3
:102C3000140A8093130A8091050A9091060AD8CF4E
:102C4000843B9105B1F480910B0A90910C0A0E948B
:102C50006B152091130A3091140A820F932F911D46
:102C60009093140A8093130A8091090A90910A0A9A
:102C7000BFCF8E30914049F68091FD099091FE09B9
:102C80000E946B152091130A3091140A820F932F22
:102C9000911D9093140A8093130A8091FF099091DB
:102CA000000AA6CF8091130A9091140AB9010E94DC
:102CB0001B407093140A6093130A8091150A909137
:102CC000160AB9010E941B407093160A6093150AF8
:102CD000DF91CF910895CF93DF9310921C0A109249
:102CE0001B0A10921E0A10921D0AD0E0C0E020912B
:102CF0000D0A30910E0AC217D3070CF075C08091EF
:102D00001F0A9091200A009721F58091090A90915D
:102D10000A0A0E946B1520911B0A30911C0A820F2F
:102D2000932F911D90931C0A80931B0A80910B0A8C
:102D300090910C0A0E946B1520911D0A30911E0A79
:102D4000820F932F911D90931E0A80931D0A219646
:102D5000CECF8A359105B1F48091FF099091000A98
:102D60000E946B1520911B0A30911C0A820F932F31
:102D7000911D90931C0A80931B0A8091FD099091EC
:102D8000FE09D8CF843B9105B1F48091030A90915C
:102D9000040A0E946B1520911B0A30911C0A820FB5
:102DA000932F911D90931C0A80931B0A8091010A16
:102DB0009091020ABFCF8E30914049F68091050A6A
:102DC0009091060A0E946B1520911B0A30911C0AF3
:102DD000820F932F911D90931C0A80931B0A809160
:102DE000070A9091080AA6CF80911B0A90911C0AAD
:102DF000B9010E941B4070931C0A60931B0A8091CA
:102E00001D0A90911E0AB9010E941B4070931E0A70
:102E100060931D0ADF91CF910895CF93DF931092B5
:102E2000180A1092170A10921A0A1092190AD0E082
:102E3000C0E020910D0A30910E0AC217D3070CF0A2
:102E400075C080911F0A9091200A009721F580910A
:102E5000050A9091060A0E946B152091170A30917D
:102E6000180A820F932F911D9093180A8093170AC6
:102E70008091070A9091080A0E946B152091190A07
:102E800030911A0A820F932F911D90931A0A809302
:102E9000190A2196CECF8A359105B1F48091090A9D
:102EA00090910A0A0E946B152091170A3091180A16
:102EB000820F932F911D9093180A8093170A809187
:102EC0000B0A90910C0AD8CF843B9105B1F4809104
:102ED000FF099091000A0E946B152091170A30910A
:102EE000180A820F932F911D9093180A8093170A46
:102EF0008091FD099091FE09BFCF8E30914049F637
:102F00008091030A9091040A0E946B152091170A80
:102F10003091180A820F932F911D9093180A809375
:102F2000170A8091010A9091020AA6CF8091170A90
:102F30009091180AB9010E941B407093180A60937F
:102F4000170A8091190A90911A0AB9010E941B4030
:102F500070931A0A6093190ADF91CF910895CF9365
:102F6000DF931092100A10920F0A1092120A109218
:102F7000110AD0E0C0E0E0910D0AF0910E0ACE17E0
:102F8000DF070CF075C080911F0A9091200A00970E
:102F900021F58091FD099091FE090E946B15209109
:102FA0000F0A3091100A820F932F911D9093100AEF
:102FB00080930F0A8091FF099091000A0E946B157F
:102FC0002091110A3091120A820F932F911D909334
:102FD000120A8093110A2196CECF8A359105B1F459
:102FE0008091010A9091020A0E946B1520910F0AAC
:102FF0003091100A820F932F911D9093100A8093A5
:103000000F0A8091030A9091040AD8CF843B91055E
:10301000B1F48091070A9091080A0E946B152091E3
:103020000F0A3091100A820F932F911D9093100A6E
:1030300080930F0A8091050A9091060ABFCF8E30C7
:10304000914049F68091090A90910A0A0E946B15F5
:1030500020910F0A3091100A820F932F911D9093A7
:10306000100A80930F0A80910B0A90910C0AA6CF48
:1030700080910F0A9091100ABF010E941B409B0192
:103080007093100A60930F0A8091110A9091120AAE
:10309000BF010E941B407093120A6093110A260F11
:1030A000371F80E02631310564F50E94C9150E9462
:1030B0006B168091130A9091140A2091150A309191
:1030C000160A820F931F97FD01969595879520917B
:1030D0001B0A30911C0A40911D0A50911E0A240FB0
:1030E000351F37FF02C02F5F3F4F35952795821B55
:1030F000930B1816190644F48AE590E00E948303A6
:1031000081E0DF91CF910895892B19F086EA9FEF36
:10311000F5CFF7CF9F92AF92BF92CF92DF92EF920F
:10312000FF920F931F93CF93DF931F92CDB7DEB71C
:103130007C015B016A01922E198241E06FEF0E94CF
:103140007C09182F40E060E0C7010E947C09182B21
:1031500040E06FEFC7010E947C09182B992031F0E5
:10316000A5016BECC7010E947C0F182B002341F0D6
:10317000AE014F5F5F4F6EEEC7010E947C0F182BB0
:1031800041E06FEFC7010E947C09182B41E060E02D
:10319000C7010E947C09182B40E06FEFC7010E9415
:1031A0007C0999819F7EF6019083812B0F90DF919E
:1031B000CF911F910F91FF90EF90DF90CF90BF9034
:1031C000AF909F9008952F923F924F925F926F928F
:1031D0007F928F929F92AF92BF92CF92DF92EF92A7
:1031E000FF920F931F93CF93DF93CDB7DEB769970D
:1031F0000FB6F894DEBF0FBECDBF00ED17E020E0A4
:1032000030E00B871C872D873E871F86188A198A16
:103210001A8A40322EE4520761057105E0F45CEF32
:10322000B52E8B2D69960FB6F894DEBF0FBECDBFBD
:10323000DF91CF911F910F91FF90EF90DF90CF9092
:10324000BF90AF909F908F907F906F905F904F90C6
:103250003F902F9008954E8B5F8B688F798F8C01F4
:10326000BE016A5F7F4F0E948710B82E8111D9CFAF
:10327000CE88DF88E88CF98C88EEC81A88E0D80AF6
:10328000E108F1088E81811106C08F81811103C090
:1032900088858823C1F1AE01455F5F4F62E0C801B8
:1032A0000E94B41081110AC18E81882391F08B8510
:1032B0009C85AD85BE85825B9D4FAF4FBF4F8C1502
:1032C0009D05AE05BF0508F0AACFC81AD90AEA0ABB
:1032D000FB0A8885882309F471C08B859C85AD85A0
:1032E000BE858E549D4FAF4FBF4F880F991FAA1FA9
:1032F000BB1F8C159D05AE05BF0508F090CFC81A01
:10330000D90AEA0AFB0A89858823D9F0AE01415F10
:103310005F4F63E0C8010E94B4104F8558896989E6
:103320007A894C565D4F6F4F7F4F4C155D056E058A
:103330007F0508F074CF8111C1C0C41AD50AE60A0E
:10334000F70A8A85882309F46CCFBE016F5F7F4F2F
:10335000C8010E9487108C818823E9F1AE014B5E81
:103360005F4F60E0C8010E94CC0FB82E81111CC0D5
:10337000AE014D5E5F4F61E5C8010E947E0EB82E22
:103380008B899C891C013324512C412C04C0220CB4
:10339000331C441C551C9A95D2F79FEF291A390A01
:1033A000490A590ABB20C9F08E899F89A88DB98D19
:1033B000F801828B938BA48BB58B33CF8F818823BD
:1033C00009F4A1CF8B859C85AD85BE858C569D4F1C
:1033D000AF4FBF4F8ECF312C212CAE014B5E5F4FD4
:1033E00061E0C8010E94CC0FB82E8111DDCFA6E2AA
:1033F000CA1AA2E0DA0AE108F108AD89B0E020E0DB
:103400003FE24AE350E00E942A3E4B015C01B4EFE8
:103410008B0EB1E09B1EA11CB11CA8EEB3E0A7016E
:1034200096010E942A3E2B013C01C501B40120ED0A
:1034300037E040E050E00E94E93D420E531E641E1A
:10344000751EC501B40128EE33E040E050E00E9453
:10345000E93DC301B2010E94E93D220E331E211451
:103460003104E1F04101B12CA12CE1E08E1A910868
:10347000A108B10890E080E0B501A4014427452BE4
:10348000462B472B31F0B694A794979487940196D6
:10349000F3CF982F88271C01280C391CA10161E764
:1034A000C8010E945109B82E81117ECFF801E15365
:1034B000FF4FC082D182E282F38276CFB82EB1CEA6
:1034C0007F928F929F92AF92BF92CF92DF92EF92B4
:1034D000FF920F931F93CF93DF931F92CDB7DEB769
:1034E0007C015B016A01722E4C0183EE881A8EEF1B
:1034F000980AF4011081198241E061E0C7010E943D
:103500007C0981114AC060E4C7010E9469108111E1
:1035100044C0F1E07F121AC000E021E0AE014F5F2D
:103520005F4FB501C7010E948A18882389F00F9068
:10353000DF91CF911F910F91FF90EF90DF90CF908F
:10354000BF90AF909F908F907F900895F50110826B
:1035500042E061E0C7010E947C09811124C060E063
:10356000C7010E94691081111EC0F1E07F1218C0CE
:1035700001E020E0A601BE016F5F7F4FC7010E94FE
:103580008A188111D4CF412F61E0C7010E947C09C4
:103590008111CDCFF4011083CACFF5011082C7CFBE
:1035A000F6011082F0CFF601F9CF2F923F924F92A1
:1035B0005F926F927F928F929F92AF92BF92CF92C3
:1035C000DF92EF92FF920F931F93CF93DF93CDB7CC
:1035D000DEB7C354D1090FB6F894DEBF0FBECDBF1E
:1035E0006C0124967FAF6EAF2497FC01E35EFE4F23
:1035F00040804AAE40EC61E00E947C09811145C0E8
:10360000F601108A41E060E8C6010E947C0941E0B1
:103610006FEFC6010E947C0940E060E0C6010E9495
:103620007C09F601E95DFE4F408161E9C6010E9417
:103630007C0941E060E0C6010E947C0940E06FEF38
:10364000C6010E947C0940E060E8C6010E947C0936
:1036500041E060E0C6010E947C09811116C091E042
:103660009983812C912C5401FFEF8F1A9F0AAF0A86
:10367000BF0A998190FF2BC0811187C228EC821666
:103680009104A104B104D9F489EFCD5BDF4F0FB6EB
:10369000F894DEBF0FBECDBFDF91CF911F910F9188
:1036A000FF90EF90DF90CF90BF90AF909F908F9062
:1036B0007F906F905F904F903F902F900895AE0154
:1036C0004F5F5F4F60E0C6010E947C0FCDCF38ECAA
:1036D00083169104A104B104B9F28111D6CFC601B9
:1036E0000E9423108111D1CF83E0F601E15EFE4FED
:1036F0008083B696E080F1800CE010E020E030E0BE
:10370000AE01465E5F4F64E1349780810E94080DF0
:10371000892B11F08CEEB9CF6CA170E0762F662763
:103720008DA0680D711D29A0312C322C2224330C60
:103730004101B12CA12C8BA190E0982F8827990FE3
:103740002C01712C612C22964CAE5DAE6EAE7FAE1C
:1037500022978C8D90E0982F88272D8D7C01E20E8A
:10376000F11CF601E75CFE4F208131817B971081CF
:10377000283E43E03407C1F1629FC001639F900D72
:10378000729F900D11248C509E4F68EE73E00E9442
:103790000740F601858D968DA78DB0A1228D22233D
:1037A00019F1E89EA001E99E500DF89E500D1124DC
:1037B000452F55272416350641F460EE7AE811238B
:1037C00009F49AC168EB72E212C09101DB010E9418
:1037D0003D3E21013501441A550A61087108A301D3
:1037E00092010E94E93DB901112309F485C13B0111
:1037F00076946794769467947DAE6CAE762E7294D0
:10380000770C770CF0EC7F227BAE8A8D1FA61EA66C
:1038100090E02C0173E0559447947A95E1F759AE06
:1038200048AE28AD2F7028AB222309F469C188ADBA
:103830008D70853009F467C131E03EAB822F8C502A
:10384000843008F01EAA41E06FEFC6010E947C0997
:10385000811107C0AE01425D5F4F66EBC6010E9459
:103860007E0E9EA520E0392F330F2901712C612C8B
:1038700049AA5AAA6BAA7CAA811105C040E06FEF41
:10388000C6010E947C09F601EE5CFE4F49A85AA8C9
:103890006BA87CA84082518262827382811162C1CE
:1038A000F601F5A1FDABFF2309F43CC1F601258D1E
:1038B000368D478D50A1828D882309F427C1D70109
:1038C0000E942A3E9B01AC0120583F4F4F4F5F4F53
:1038D000232F342F452F5527280D391D4A1D5B1DD9
:1038E000A8EEB3E00E942A3E70588F4F9F4FBC0154
:1038F00088279927F601E65DFE4F672B682B692B19
:1039000009F008C18EEA97E8AFE8B2E080839183BE
:10391000A283B3833EEA432E37E8532E3FE8632E5B
:1039200032E0732EAE01465D5F4F70E060E0C6018D
:103930000E94B50E4AA55BA56CA57DA54115510554
:103940006105710531F001E04415550566057705FF
:1039500008F000E081110DC1F601F7A1FFABFF23D4
:1039600009F4E2C0AE014A5D5F4F62E070E0C6015B
:103970000E94B50E4EA15FA168A579A5411551051C
:103980006105710551F011E049A85AA86BA87CA8FF
:10399000441555056605770508F010E08111ECC067
:1039A000F601F0A5F9ABFF2309F4C0C0412C512C5E
:1039B0003201E114F10471F0B10190E080E0982F40
:1039C000872F762F6627970150E040E00E94E93D5F
:1039D00029013A01AE014F5F5F4F63E070E0C6011D
:1039E0000E94B50E49815A816B817C814115510538
:1039F0006105710531F091E04416550666067706BB
:103A000008F090E0882309F492C080E04DA84110AE
:103A100001C001E0F60136A103A7F8A9F43009F4CA
:103A2000D3C021E0311120E0F60124A74FA84110B6
:103A300001C011E0F60115A749A8411001C091E0AD
:103A4000F60196A799E19601265B3F4FF901DE0149
:103A5000119601900D929A95E1F71D821E821F82A8
:103A600018864CAC5DAC5A8649861C861B868D86B2
:103A70009E86AF86B88A22964CAC5DAC6EAC7FACAD
:103A80002297498A5A8A6B8A7C8AFE8AED8A5BACC5
:103A9000588E898F89E1FE013196D90101900D92EE
:103AA0008A95E1F7C6010E94990F8111EECD41E0A0
:103AB0006FEFC6010E947C098111E7CD24964EADBF
:103AC0005FAD249766EBC6010E947E0E8111DDCDAD
:103AD00040E06FEFC6010E947C098111D6CD4AAD4E
:103AE00061E0C6010E947C098111CFCDF601E35E41
:103AF000FE4F6AAC6082C9CD7DAF6CAF1BAE85CE88
:103B000041E04EABA0CE51E05EAB9DCE20E030E078
:103B1000A901E2CE1082118212821382412C512C13
:103B2000320100CF00E018CF10E03ACF90E02EA98C
:103B3000213029F188A98150833018F138A9363015
:103B400061F1393051F188AD8D708830E1F011307C
:103B5000D1F0343081F1913049F1013049F1902FA9
:103B6000102F53CF1FAA1DAA19AA00E090E010E061
:103B70004CCF1FAA19AAFACF19AA90E046CF8FEF0F
:103B800045CF85E043CF83E041CF28EC82169104F6
:103B9000A104B10409F079CD77CD84E04DA841109E
:103BA00039CFF60136A121E023A73BCF82E0F6CF43
:103BB000192F81E0F3CF4DA882E041102BCF81E097
:103BC000F60183A710E082E021E02ECF2F923F92F2
:103BD0004F925F926F927F928F929F92AF92BF921D
:103BE000CF92DF92EF92FF920F931F93CF93DF93C9
:103BF000CDB7DEB7AC970FB6F894DEBF0FBECDBF22
:103C00001C017FA36EA359A748A71F821886198697
:103C10001A861B861C861D861E86198A1A8AFC0136
:103C2000E85DFE4F20813181398F288FAC014F5ED6
:103C30005E4F5B8F4A8FDA011C922C01BEEE4B1A4D
:103C4000BEEF5B0AF20110823C01FDEE6F1AFEEF3F
:103C50007F0AD3011C92FC01EC5EFE4F108231966C
:103C600010823196108241E06FEF0E947C098B8BAD
:103C700081111DC140E06FE4C1010E947C098B8B62
:103C8000811115C14CE26EE4C1010E947C098B8B4D
:103C900081110DC140E06FEFC1010E947C098B8B47
:103CA000811105C144EB66EBC1010E947C098B8B3D
:103CB0008111FDC040E060E8C1010E947C098B8B4E
:103CC0008111F5C020E0AE014E5E5F4FBE016F5E18
:103CD0007F4FC1010E94601A8B8B8111E8C01F8247
:103CE000188619861A86F101E95EFE4FFD8FEC8F6A
:103CF0009E01295F3F4F4901A3E0AA2EB12CC12CA0
:103D0000D12CE12CF12C87012A8D3B8DAF0160E095
:103D1000C1010E94500D8B8B8111C9C04F81588504
:103D200069857A854C8B5D8B6E8B7F8BBE01615F65
:103D30007F4FC1010E94D51A8B8B8111B8C08F852E
:103D40009889688D798D6817790708F0D3C0AA8D96
:103D5000BB8D1C92F2011082D3011C92329610820C
:103D600031961082319610828C899D89AE89BF89E7
:103D70008C549F4FAF4FBF4FE6E0B695A7959795F0
:103D80008795EA95D1F7880F991F880F991F855F4E
:103D90009C4FFC0180819181A281B381892B8A2B68
:103DA0008B2B91F42C893D894E895F892C3231050A
:103DB0004105510548F42F5F3F4F4F4F5F4F2C8B0C
:103DC0003D8B4E8B5F8BD0CFAE01495F5F4F4A0179
:103DD00073E0A72EB12CC12CD12CEC88FD880E8964
:103DE0001F892A8D3B8D4C8D5D8D61E0C1010E9444
:103DF000500D811159C16F81788589859A856C8BA9
:103E00007D8B8E8B9F8BBE01615F7F4FC1010E94B6
:103E1000D51A811149C18F859889A88DB98D11E076
:103E200063E0462E512C612C712CA817B90720F0A5
:103E300010E0412C512C3201C12CD12C7601C394BD
:103E400060C0D501C4010196A11DB11D8C8B9D8B55
:103E5000AE8BBF8B86E0EAA5FBA5ACA5B02F019089
:103E60000D928A95E1F74E8C5F8C68A079A04AA3E9
:103E70005BA36CA37DA36FC04E8C5F8C68A079A000
:103E8000AEA1BFA14D925D926D927C921397E8A571
:103E9000F9A51083F101EC5FFE4F81E0808332973A
:103EA0008C918083A8A5B9A58C91319680838B894C
:103EB000AC960FB6F894DEBF0FBECDBFDF91CF91A9
:103EC0001F910F91FF90EF90DF90CF90BF90AF9038
:103ED0009F908F907F906F905F904F903F902F902A
:103EE0000895BEECBB8BE3CFEEECEB8BE0CFFEECAA
:103EF000FB8BDDCF10E0412C512C3201C12CD12C99
:103F000076018F859889288D398D8217930708F05F
:103F1000B7CF46E0EA8DFB8D9E012F5F3F4FD90161
:103F200001900D924A95E1F7E88DF98D8E1B9F0B5C
:103F3000AC0170E060E04AA35BA36CA37DA353E0F7
:103F4000452E512C612C712CB1016F5E7E4F7BA7E9
:103F50006AA72CA7032F9E01255F3F4F4C895D89DF
:103F60006E897F898C8D9D8D0E9402038B849C8439
:103F7000AD84BE847FEF87169706A706B70609F4BF
:103F8000B0CFD301C2010196A11DB11D8E8F9F8FAD
:103F9000A8A3B9A3D501C4018C549F4FAF4FBF4F05
:103FA00036E0B695A795979587953A95D1F7880FFE
:103FB000991F880F991F855F9C4F11E0FC0180813C
:103FC0009181A281B381892B8A2B8B2B09F410E07C
:103FD000812F90E0B0E0A0E08C159D05AE05BF05F7
:103FE00009F082CFD501C40123E0B695A795979536
:103FF00087952A95D1F7B501A40147705527662703
:10400000772786309105A105B10508F070CFEA8DBC
:10401000FB8DE80FF91F21E030E001C0220F4A9527
:10402000EAF78081822B80836A8D7B8DC1010E949B
:10403000A409811139C0BE01615F7F4FC1010E9497
:10404000D51A811131C08F859889288D398DAC01A1
:10405000421B530B8217930711F450E040E070E0CD
:1040600060E0A88DB98DA817B90708F0EACE8AA13B
:104070009BA1ACA1BDA184179507A607B70708F0BF
:10408000FBCEBE016F5F7F4FC1010E94A40996E085
:10409000FE013196D101AF5EBE4F01900D929A950F
:1040A000E1F7882309F4ECCE8B8B01CF8F929F929E
:1040B000AF92BF92CF92DF92EF92FF920F931F9336
:1040C000CF93DF93CDB7DEB76F970FB6F894DEBF0F
:1040D0000FBECDBFEFEDF9E08CE1DF011D928A95B7
:1040E000E9F70CEC19E084E290E0A0E0B0E0F80120
:1040F00083879487A587B68785819681A781B085B8
:104100008787908BA18BB28B2FB7F89480916C042A
:1041100090916D04A0916E04B0916F042FBF838FB6
:10412000948FA58FB68FFE013D968CE0DF01982F0E
:104130001D929A95E9F743E050E060E070E0D80105
:1041400053964D935D936D937C9356973C97DF0107
:104150001D928A95E9F7AE01475E5F4F86E0FA014E
:1041600011928A95E9F78AE18F8F26E030E0BE014F
:10417000615E7F4FD80113968D919C910E94171418
:10418000698D7A8D072E000C880B990B0E94BC3C20
:1041900020E030E040E85DE30E941B3D4B015C0104
:1041A0006B8D7C8D072E000C880B990B0E94BC3CFC
:1041B00020E030E040E85DE30E941B3D6B017C01A4
:1041C0006D8D7E8D072E000C880B990B0E94BC3CD8
:1041D00020E030E040E85DE30E941B3DF801878E5F
:1041E00090A2A1A2B2A2C3A2D4A2E5A2F6A267A302
:1041F00070A781A792A76F960FB6F894DEBF0FBE87
:10420000CDBFDF91CF911F910F91FF90EF90DF9085
:10421000CF90BF90AF909F908F9008958F929F9274
:10422000AF92BF92CF92DF92EF92FF920F931F93C4
:10423000CF93DF93CDB7DEB763970FB6F894DEBFA9
:104240000FBECDBF8B01FB01349620E2DF011D9232
:104250002A95E9F744E250E060E070E0F80140831D
:10426000518362837383DC0115964D915D916D914D
:104270007C911897448355836683778343E050E0AD
:1042800060E070E040875187628773872FB7F894AA
:1042900040916C0450916D0460916E0470916F04B4
:1042A0002FBF408B518B628B738B2CE0FE013196BC
:1042B000DF011D922A95E9F7AE01435F5F4F26E0CB
:1042C000FA0111922A95E9F72AE12B8B26E030E0DA
:1042D000BE016D5E7F4FDC0113968D919C910E9413
:1042E00017146D857E85072E000C880B990B0E9494
:1042F000BC3C20E030E040E85DE30E941B3D4B0108
:104300005C016F857889072E000C880B990B0E9441
:10431000BC3C20E030E040E85DE30E941B3D6B01C7
:104320007C0169897A89072E000C880B990B0E9401
:10433000BC3C20E030E040E85DE30E941B3DF8011A
:10434000848A958AA68AB78AC08ED18EE28EF38E31
:10435000648F758F868F978F81E063960FB6F89480
:10436000DEBF0FBECDBFDF91CF911F910F91FF90A8
:10437000EF90DF90CF90BF90AF909F908F90089577
:104380004F925F926F927F928F929F92AF92BF9265
:10439000CF92DF92EF92FF920F931F93CF93DF9311
:1043A000CDB7DEB760970FB6F894DEBF0FBECDBFB6
:1043B00029013A01ED82FE820F8318879B01AC012F
:1043C00060E070E084EB93E40E944C3E60935F0AEF
:1043D0007093600A8093610A9093620A4092630A24
:1043E0005092640A6092650A7092660AA801970169
:1043F0002093670A3093680A4093690A50936A0AC7
:104400004092A30A5092A40A6092A50A7092A60A4A
:1044100025E33AEF4EE85CE30E941B3D4B015C0153
:104420000E94B93E6B017C01C092A70AD092A80AF3
:10443000E092A90AF092AA0AC501B4010E94AA3F1B
:1044400069837A838B839C836093AB0A7093AC0AF5
:104450008093AD0A9093AE0A20917F0A3091800A32
:104460004091810A5091820AC301B2010E941B3D12
:104470004B015C012091830A3091840A4091850AA6
:104480005091860AC701B6010E941B3D9B01AC01F9
:10449000C501B4010E944D3E4B015C012091870A89
:1044A0003091880A4091890A50918A0A69817A81FB
:1044B0008B819C810E941B3D9B01AC01C501B40115
:1044C0000E944D3E2D813E814F8158850E941B3DAB
:1044D00069877A878B879C8720918B0A30918C0A19
:1044E00040918D0A50918E0AC301B2010E941B3D7A
:1044F0004B015C0120918F0A3091900A4091910A02
:104500005091920AC701B6010E941B3D9B01AC016C
:10451000C501B4010E944D3E4B015C012091930AFC
:104520003091940A4091950A5091960A69817A8156
:104530008B819C810E941B3D9B01AC01C501B40194
:104540000E944D3E2D813E814F8158850E941B3D2A
:104550006D877E878F87988B2091970A3091980A74
:104560004091990A50919A0AC301B2010E941B3DE1
:104570004B015C0120919B0A30919C0A40919D0A5D
:1045800050919E0AC701B6010E941B3D9B01AC01E0
:10459000C501B4010E944D3E4B015C0120919F0A70
:1045A0003091A00A4091A10A5091A20A69817A81B2
:1045B0008B819C810E941B3D9B01AC01C501B40114
:1045C0000E944D3E2D813E814F8158850E941B3DAA
:1045D0004B015C012091730A3091740A4091750A75
:1045E0005091760AC301B2010E941B3D2B013C0190
:1045F0002091770A3091780A4091790A50917A0A8D
:10460000C701B6010E941B3D9B01AC01C301B20171
:104610000E944D3E6B017C0120917B0A30917C0A07
:1046200040917D0A50917E0A69817A818B819C81BB
:104630000E941B3D9B01AC01C701B6010E944D3E8B
:104640002D813E814F8158850E941B3DAB01BC01ED
:1046500080916B0A90916C0A0E94490B49855A859A
:104660006B857C8580916D0A90916E0A0E94490B42
:10467000B501A4018091710A9091720A0E94490BC0
:104680004D855E856F85788980916F0A9091700A5B
:1046900060960FB6F894DEBF0FBECDBFDF91CF910D
:1046A0001F910F91FF90EF90DF90CF90BF90AF9050
:1046B0009F908F907F906F905F904F900C94490BDC
:1046C000EF92FF920F931F93809110049091110429
:1046D000823091050CF46AC00E94C9150E946B16C5
:1046E0008091130A9091140A2091150A3091160AAC
:1046F000820F931F0A9764F56091230A7091240A30
:10470000072E000C880B990B0E94BC3CE12CF12C6D
:1047100006E113E420E030E0A9010E94C0210E94DC
:10472000C9158091130A9091140A2091150A3091AD
:10473000160A820F931F0A97FCF20E94D90B10925F
:104740001104109210041F910F91FF90EF900895A3
:1047500080911B0A90911C0A20911D0A30911E0A1B
:10476000820F931F0A975CF76091250A7091260AC1
:10477000072E000C880B990B0E94BC3CE12CF12CFD
:1047800006E113E420E030E0A9010E94C0210E946C
:104790006B1680911B0A90911C0A20911D0A309182
:1047A0001E0A820F931F0A97FCF2C7CF01969093BF
:1047B000110480931004C7CFEF92FF920F931F93C1
:1047C00080916A0490916B049C012350310923303D
:1047D0003105C8F460911F0A7091200A072E000C61
:1047E000880B990B0E94BC3CE12CF12C0FE713E4E1
:1047F00020E030E040E05FE30E94C0211F910F9174
:10480000FF90EF9008959C012356314023303105ED
:1048100098F460911F0A7091200A072E000C880BF3
:10482000990B0E94BC3CE12CF12C0FE713E420E033
:1048300030E040E05FEBE0CF9C01265031092F3A99
:10484000310550F460E070E088EC92E41F910F9124
:10485000FF90EF900C94310C855B91098E3A910595
:1048600050F460E070E088EC92E41F910F91FF90AB
:10487000EF900C94FB0B60911F0A7091200A072E99
:10488000000C880B990B0E94BC3CE12CF12C0FE72B
:1048900013E420E030E0A901AFCF0C94D340DF92C5
:1048A000EF92FF920F931F93CF93DF931F92CDB799
:1048B000DEB78C01FC0180819181009711F00E948C
:1048C000D34086E090E00E9437407C0189E2F70106
:1048D000808384E196E092838183138280E290E07A
:1048E00095838483F801F182E0820E94E80781E0E9
:1048F000F7018383C7010E94240BF82E81110BC09E
:10490000F12C8F2D0F90DF91CF911F910F91FF9080
:10491000EF90DF90089582E9898321E030E0AE01D5
:104920004F5F5F4FBA01F801808191810E94171497
:1049300089818D3421F0843411F0803109F781E0D0
:10494000F8018283E5804E2D61E0C8010E94EF0CE2
:10495000F801E582E380D4808281811103C0C8011F
:104960000E944F244E2D6FE0C8010E94EF0CF80109
:10497000E382D48241E060E0C8010E94EF0C63E072
:1049800070E080E090E00E94B30643E060E0C80180
:104990000E94EF0CF801858120E031E0281B3109ED
:1049A0004CE0429FC001439F900D112465E070E0F0
:1049B0000E941B406F5F7F4F072E000C880B990BE6
:1049C0000E94B3069ECF9F92AF92BF92CF92DF928A
:1049D000EF92FF920F931F93CF93DF93CDB7DEB784
:1049E000A0970FB6F894DEBF0FBECDBF6C012FEDC0
:1049F000C20ED11CF601A080F7E0F12CAF1609F42D
:104A0000EEC0B62E8C0141E060E80E947C09F82ED1
:104A100041E06FEFC8010E947C09F82A40E060E0A5
:104A2000C8010E947C09F82A46E06FEFC8010E9485
:104A30007C09F82AAE01425E5F4F63E8C8010E941C
:104A40007C0FF82A4E8D446063E8C8010E947C09FF
:104A5000F82A47E06FEFC8010E947C09F82A41E07C
:104A600061E8C8010E947C09F82A0E94DA02F82A4B
:104A700041E060E8C8010E947C09F82A21E0B212F6
:104A8000C1C0A0FC02C24BE664E9C8010E947C09D7
:104A9000E82EC8010E94EB0F8E29F82AAE01465E6F
:104AA0005F4F60E9C8010E94350EF82A8A8D9B8D00
:104AB000AC8DBD8D992EE89497F897FBEE24E0F825
:104AC00044E264E9C8010E947C09F82AC8010E94F6
:104AD000EB0FF82AAE01465E5F4F60E9C8010E9405
:104AE000350EF82A8A8D9B8D2C8D3D8D3C8B2D8B20
:104AF0009E8B8F8B45E264E9C8010E947C09F82AED
:104B0000C8010E94EB0FF82AAE01465E5F4F60E9D4
:104B1000C8010E94350EF82A8C8D9D8D988F898F43
:104B200040E061E8C8010E947C09F82A46E06FEF86
:104B3000C8010E947C09F82AAE01425E5F4F63E81B
:104B4000C8010E947C0FF82A4E8D4B7F63E8C80194
:104B50000E947C09F82A41E06FEFC8010E947C099D
:104B6000F82A41E060E0C8010E947C09F82A40E090
:104B70006FEFC8010E947C09F82A40E060E8C80194
:104B80000E947C09F82A59F5F1E0BF1699F0A1FCC2
:104B900023C0F801E052FF4F8F8D8083319688A1AA
:104BA0008083BE016F5F7F4FC8018E519F4F0E946F
:104BB0005C4112C0A0FC10C0F801EE5FFE4F908275
:104BC0003196E082DE0154967496035E1E4F8D91FD
:104BD00081930E171F07D9F7BA28F601B0828F2DDF
:104BE000A0960FB6F894DEBF0FBECDBFDF91CF9178
:104BF0001F910F91FF90EF90DF90CF90BF90AF90FB
:104C00009F900895A1FC41C142E064E9C8010E945F
:104C10007C09E82EC8010E94EB0F8E29F82AAE010C
:104C2000415E5F4F60E9C8010E947C0FF82A4BE7A4
:104C300064E9C8010E947C09F82AC8010E94EB0FB0
:104C4000F82AAE01405E5F4F60E9C8010E947C0F08
:104C5000F82A47E764E9C8010E947C09F82AC801DC
:104C60000E94EB0FF82AAE01465E5F4F60E9C80173
:104C70000E94350EF82A4A8D5B8D6C8D7D8DDB018F
:104C8000CA0129E1B695A795979587952A95D1F7F9
:104C90008983DB01CA0132E1B695A795979587957F
:104CA0003A95D1F78F778A83DB01CA01EBE0B6959D
:104CB000A79597958795EA95D1F78F778B83DB0139
:104CC000CA01F4E0B695A79597958795FA95D1F71F
:104CD0008F778C83440F440F440F48774E8F48E7FB
:104CE00064E9C8010E947C09F82AC8010E94EB0F00
:104CF000F82AAE01465E5F4F60E9C8010E94350E9A
:104D0000F82A8A8D9B8DAC8DBD8DAC01BD012DE146
:104D100076956795579547952A95D1F72E8D240F4F
:104D20002D83AC01BD0136E1769567955795479582
:104D30003A95D1F74F774E83AC01BD01EFE0769500
:104D4000679557954795EA95D1F74F774F83292F68
:104D50002F772887AC01BD017695679557954795C4
:104D60004F774987982F9295990F990F90749E8F3E
:104D700049E764E9C8010E947C09F82AC8010E9439
:104D8000EB0FF82AAE01465E5F4F60E9C8010E9452
:104D9000350EF82A8A8D9B8DAC8DBD8DAC01BD0181
:104DA0002AE176956795579547952A95D1F72E8DE7
:104DB000240F2A87AC01BD0133E17695679557959D
:104DC00047953A95D1F74F774B87AC01BD01ECE0A1
:104DD0007695679557954795EA95D1F74F774C8724
:104DE000AC01BD01F5E07695679557954795FA9525
:104DF000D1F74F774D87982F990F990F9C779E8FFA
:104E00004AE764E9C8010E947C09F82AC8010E94A7
:104E1000EB0FF82AAE01465E5F4F60E9C8010E94C1
:104E2000350EF82A8A8D9B8DAC8DBD8DAC01BD01F0
:104E30002EE176956795579547952A95D1F72E8D52
:104E4000240F2E87AC01BD0137E176956795579504
:104E500047953A95D1F74F774F872A2F2F77288B91
:104E6000AC01BD01E9E07695679557954795EA95C0
:104E7000D1F74F77498BF2E0B695A795979587952F
:104E8000FA95D1F78F778A8B1B8AE12C912C48CE2B
:104E90002F923F924F925F926F927F928F929F924A
:104EA000AF92BF92CF92DF92EF92FF920F931F9338
:104EB000CF93DF93CDB7DEB7C755D1090FB6F894BE
:104EC000DEBF0FBECDBF3C01C62EAC01485B5E4FBE
:104ED00060965FAF4EAF6097DA01ED91FC9111974C
:104EE000EF5BFE4F89E28083ED91FC911197EE5BC1
:104EF000FE4F81E08083ED91FC911197ED5BFE4FB9
:104F000080E991E091838083ED91FC91EB5BFE4F12
:104F100084E196E0918380830E94E8072301BFEF3C
:104F20004B1A5B0A21E04EEF69E8C2010E942A0F8A
:104F3000811105C040E068E8C2010E947C09FE01C1
:104F4000FB962A96FFAFEEAF2A97AF0160ECC20145
:104F50000E947C0FF301E052FF4F108288EE93E035
:104F6000E65AFF4F9183808380E991E032969183E6
:104F7000808385E89BE6A1E0B0E032968083918350
:104F8000A283B38384EA90E7A9E0B0E0E557F10992
:104F900080839183A283B383D3015E961D921D9279
:104FA0001D921C929197FE0131962C96FFAFEEAFA9
:104FB0002C97BF01C2010E945812082F81110BC00B
:104FC00019821A828AE3FE013196D301519601902B
:104FD0000D928A95E1F784E690E0F301EE5DFE4FD5
:104FE0009183808384E893E032969183808384EF79
:104FF00091E032969183808380E09AE033969183AA
:10500000808381E07096808341E060E8C2010E9465
:105010007C09182F41E06FEFC2010E947C09182B18
:10502000102B40E060E0C2010E947C09182BAE0109
:10503000415C5F4F61E9C2010E947C0F182B8FAD6C
:10504000F301E85DFE4F808341E060E0C2010E9411
:105050007C09182B40E06FEFC2010E947C09182BDD
:1050600040E060E8C2010E947C09912F982B130157
:1050700010E000E0DD24D3947301F4E0EF0EF11CA6
:105080009111B5C10330110509F491C07CF40130D0
:105090001105D1F00230110509F485C0D3019696AF
:1050A000DC92D1019696DC9280E020C0043011059C
:1050B00009F480C020E04FEE0530110579F760E675
:1050C000C2010E942A0F10C0F70142A953A964A986
:1050D00075A9B9E07695679557954795BA95D1F733
:1050E00064E4C2010E9451098823D9F20F5F1F4F67
:1050F000BFEF2B1A3B0A982F0630110509F0C0CFDD
:10510000811169C0F30110A611A622E04EEF60E6FE
:10511000C2010E942A0F81115EC0D3019A961C928F
:1051200020E14FEE60E6C2010E942A0F811153C0B8
:10513000F30113A686A1811140C080E090E0A2E1B6
:10514000B0E082AB93ABA4ABB5ABD30197968C9197
:10515000811138C080E090E4A0E0B0E0F30186ABBC
:1051600097ABA0AFB1AF80E090E0A3E2B0E082AF38
:1051700093AFA4AFB5AFFE96108211821282138254
:105180008FEFE052FF4F80834FEF61E0C2010E943A
:105190007C0991E0F301E05EFE4F908381111BC01A
:1051A0007B97108218C0D3019896DC927ACFF301D6
:1051B000D1A677CF20E04EEF82CF80E090E0A2E151
:1051C000B0E0BFCF40E250E064E4C2010E94510968
:1051D000882309F4BFCFD3018C934C2D6AE86096E5
:1051E000EEADFFAD6097808191810E947C09D30173
:1051F0008C936AE070E080E090E00E94B306F301D7
:1052000080818111A8C16096AEADBFAD6097ED9170
:10521000FC91EF5BFE4FC08262E0C2010E94E3247A
:10522000811135C08301065B1E4FC30186579E4F17
:10523000F301EF51FF4F20812111DBC06FE473E0D8
:105240000E945C4160E573E0C8010E945C4169E82E
:1052500073E0C80180960E945C41A30146555E4FF1
:1052600060ECC2010E947C0F811111C0AE014F5F42
:105270005F4F62ECC2010E947C0F91E0F301E555A3
:10528000FE4F90833196998192959F709083D301C0
:105290008C9381110DC0F301E555FE4F8081813063
:1052A00021F431968081813019F08BEFF3018083F6
:1052B000D3018C918111D1C06096EEADFFAD6097A6
:1052C000408051808AE32C96AEADBFAD2C971D92E5
:1052D0008A95E9F725961FAE1EAE259728961FAE34
:1052E000289727961FAE279723961CAE1DAE1EAE9D
:1052F0001FAE239761E0C2010E94E324F201ED5F3B
:10530000FE4F3080B1E0B31508F498C0319720808B
:10531000A22CB12CD12CC12C3B1289C0E1E2AE16DB
:10532000B104C104D10408F089C041E06FEFC201AB
:105330000E947C0981111AC040E06FE4C2010E9402
:105340007C09811113C04CE26EE4C2010E947C0909
:1053500081110CC040E06FEFC2010E947C098111F5
:1053600005C044EB66EBC2010E947C0992012F5EEE
:105370003E4FD9011C92F201EE5EFE4F1082319633
:105380001082319610823196108231961082E12C73
:10539000F12C8701332009F4F9C0D801C7018C54DE
:1053A0009F4FAF4FBF4FF6E0B695A795979587955E
:1053B000FA95D1F7880F991F880F991F855F9C4F29
:1053C000FC0180819181A281B381892B8A2B8B2B57
:1053D00009F0DCC0FCE2EF16F1040105110509F447
:1053E000D5C04FEFE41AF40A0F4F1F4FD6CF892FC5
:1053F000F2CEF301EE51FF4FF080B3016D517F4FBC
:105400000E945C41FF2009F41DCFB2E2BF1540F0BD
:10541000E0E26CE573E0FE1217CF68E673E014CFAC
:10542000F6E264E773E0FF1508F40ECFF6CFFDE077
:10543000AF16B104C104D10408F477CFAE014A5BC2
:105440005F4FBE01615C7F4FC2010E94E61DB82E16
:10545000BB2009F4B1C0F301B082D3018C9181115A
:1054600010C0AE014D5B5F4FBE016F5F7F4F609616
:10547000EEADFFAD6097808191810E94E61DD30162
:105480008C93F3018081811111C021E0AE01455C54
:105490005F4FBE01615C7F4F6096AEADBFAD609760
:1054A0008D919C910E94601AF3018083D3018C91AD
:1054B000811109C06096AEADBFAD6097ED91FC91D2
:1054C000108AF3011082D3018C91811140C0609643
:1054D000AEADBFAD6097ED91FC911197FF24F394B1
:1054E000F5A2F30110820D911C91D801D5964D9132
:1054F0005D916D917C91D89799E0769567955795D8
:1055000047959A95D1F764E4C8010E945109811129
:1055100002C0F801F6A2D3018C93811118C06096E5
:10552000AEADBFAD6097ED91FC91119781E080A782
:10553000F3011082ED91FC91FD9684ED98E0A0E0DE
:10554000B0E080839183A283B383D3011C9281E076
:10555000F3019081911180E0C95ADF4F0FB6F894A2
:10556000DEBF0FBECDBFDF91CF911F910F91FF9096
:10557000EF90DF90CF90BF90AF909F908F907F90F3
:105580006F905F904F903F902F900895CE01CB96F3
:105590004C01A201495E5E4F632DC2010E94500D75
:1055A000B82E811155CF81E0F201EC5FFE4F808370
:1055B0003297208231963082F201E85CFE4F808182
:1055C0008111DFC13297C080D18030E020E04201FC
:1055D000FBEB8F1AFEEF9F0AA2014F5B5E4F2E96E8
:1055E0005FAF4EAF2E97C2018D5D9E4F62969FAF0B
:1055F0008EAF6297D201AF5DBE4F6496BFAFAEAFC4
:105600006497F201EB5DFE4F6696FFAFEEAF6697D3
:105610004951510968965FAF4EAF689703C0ECEFF0
:10562000BE2E9101F601E20FF31F0081002309F461
:105630008DC0B11010CF19019FEF291A390AD60178
:10564000A20DB31D6C910F3F09F04FC01901A2E0EC
:105650002A0E311CD601A20DB31D8C91613029F1A7
:1056600098F0623099F16330D1F6190144E0240ECC
:10567000311C238190E0982F8827820F911D689616
:10568000AEADBFAD68971FC01901B4E02B0E311C41
:10569000238190E0982F8827820F911D6496EEADAC
:1056A000FFAD649791838083BCCF190144E0240E41
:1056B000311C238190E0982F8827820F911D6296DC
:1056C000AEADBFAD62978D939C93ABCF1901B4E0A3
:1056D0002B0E311C238190E0982F8827820F911D7B
:1056E0006696EEADFFAD6697DDCF053008F097CF3B
:1056F0002E5F3F4FD601A20FB31FFE01FB96202E57
:10570000312CCF012A964EAD5FAD2A97841B950BA5
:10571000821593051CF48D918193F3CF220E331ED5
:10572000D401ED90FC9010E030E020E0AE01455C4B
:105730005F4F2E96EEADFFAD2E9780810E9410092F
:10574000892B09F46ECF7CEEB72E6BCFB11083CED0
:1057500044E06AE0C2010E947C09B82E81117BCE30
:1057600020E04FEE64E8C2010E942A0FB82E81119A
:1057700072CE84E0F201E253FF4F8083C2010E94A7
:10578000990FB82E811167CE41E06FEFC2010E94E0
:105790007C09B82EAE014D5B5F4F64E8C2010E94E8
:1057A0007E0EB82A40E06FEFC2010E947C09B82A41
:1057B00009F051CEF201E853FF4F25968EAD9FAD13
:1057C000259724E0880F991F2A95E1F7B0E0A0E023
:1057D00080839183A283B383BE016F5F7F4FC20139
:1057E0000E945812B82E811136CEAE01495B5F4F30
:1057F00069E0C2010E947C0FB82E81112CCE289640
:105800008FAD2897817028968FAF2897F201E25EBE
:10581000FE4F80838AE3FE013196D20150960190BB
:105820000D928A95E1F7AE01495B5F4F61E0C201DD
:105830000E947C0FB82E81110ECE8201035E1E4F96
:1058400028968FAD2897D8018C931BAEAE01455C8E
:105850005F4F61E0C2010E947C0FB82E8111FBCD29
:105860008BADF82EE894F4F884FF14C04F2D61E05E
:10587000C2010E947C09B82E8111EDCDF801F082A1
:10588000D20152964D915D916D917C915597C201D7
:105890000E94E3181BAEAE01455C5F4F61E0C201A0
:1058A0000E947C0FB82E8111D6CD8BADF82EE894D6
:1058B000F2F882FF14C04F2D61E0C2010E947C0902
:1058C000B82E8111C8CDF801F082D20152964D91C7
:1058D0005D916D917C915597C2010E94E31883E020
:1058E000F201E15EFE4F8083AE014B5B5F4F60E0F3
:1058F000C2010E94CC0FB82E8111ADCD26968FAD7E
:105900002697F201E852FF4F8083AE014B5B5F4F59
:1059100061E0C2010E94CC0FB82E81119CCD269669
:105920008FAD2697F201ED52FF4F8083AE01455CAB
:105930005F4F63E0C2010E940112B82E81118BCD2E
:105940008BAD9CADADADBEADF201EC52FF4F80838F
:105950009183A283B383AE01455C5F4F64E0C201D3
:105960000E940112B82E811176CDF201E153FF4F52
:105970008BAD9CADADADBEAD80839183A283B3836F
:105980006ACD82E0C82E82E0D82E1FCE0F931F93DF
:10599000CF93DF938C01EB0188E2FB0111928A9592
:1059A000E9F74BE050E061E973E0CE010E9463410A
:1059B0001B8681E090E0A0E0B0E08C879D87AE87F9
:1059C000BF87F80185819681A781B085888B998BE7
:1059D000AA8BBB8B83E090E0A0E0B0E08C8B9D8B2A
:1059E000AE8BBF8B1CA21DA21EA21FA2188E198EE9
:1059F0001A8E1B8E1C8E1D8E1E8E1F8E8AE097EDBA
:105A0000A3E2BCE388A399A3AAA3BBA3DF91CF9190
:105A10001F910F91089585ED8093BC008091BE0485
:105A20009091BF04A091C004B091C1040796A11D3C
:105A3000B11D23E0B695A795979587952A95D1F73F
:105A40002091BC0024FD03C01092BC040895409135
:105A5000BE045091BF046091C0047091C104452BF5
:105A6000462B472B69F30097A105B10541F025E3CB
:105A70002A95F1F700000197A109B109E1CF8091C2
:105A8000BD040C94FF071F920F920FB60F921124C2
:105A90000BB60F922F933F934F935F936F937F9328
:105AA0008F939F93AF93BF93EF93FF9386EE94E012
:105AB0000E941204FF91EF91BF91AF919F918F913E
:105AC0007F916F915F914F913F912F910F900BBEFE
:105AD0000F900FBE0F901F9018951F920F920FB648
